:100000000C9463000C948B000C948B000C948B006C
:100010000C948B000C948B000C948B000C948B0034
:100020000C948B000C948B000C948B000C948B0024
:100030000C948B000C948B000C948B000C948B0014
:100040000C94BF050C948B000C948D050C946705E3
:100050000C948B000C948B000C948B000C948B00F4
:100060000C9409060C948B0000000000240027006B
:100070002A0000000000250028002B0000000000DE
:1000800023002600290004040404040404040202DA
:100090000202020203030303030301020408102007
:1000A0004080010204081020010204081020000012
:1000B0000008000201000003040700000000000027
:1000C00000007107490C11241FBECFEFD8E0DEBF3E
:1000D000CDBF23E0ACECB1E001C01D92AE35B2075C
:1000E000E1F711E0A0E0B1E0E6E5F1E202C0059041
:1000F0000D92AC3CB107D9F710E0C2E6D0E004C0E5
:100100002197FE010E94A60EC136D107C9F70E94B1
:10011000CC070C949E100C940000FC0147E050E0CA
:1001200080E02191042E01C0220F0A94EAF7820F89
:1001300041505109B0F7089508950895DB011496D0
:100140004D915C9115976D917C91DC01ED91FC9145
:100150000280F381E02D0994AF92BF92CF92DF929B
:10016000EF92FF920F931F93CF93DF936C017B016C
:100170008B01040F151FEB015E01AE18BF08C017FD
:10018000D10759F06991D601ED91FC910190F08170
:10019000E02DC6010995892B79F7C501DF91CF9133
:1001A0001F910F91FF90EF90DF90CF90BF90AF9095
:1001B0000895FC01538D448D252F30E0842F90E06D
:1001C000821B930B541710F0CF9608950197089552
:1001D000FC01918D828D981761F0A28DAE0FBF2F1B
:1001E000B11D5D968C91928D9F5F9F73928F90E071
:1001F00008958FEF9FEF0895FC01918D828D9817E0
:1002000031F0828DE80FF11D858D90E008958FEF1C
:100210009FEF0895FC01918D228D892F90E0805CE5
:100220009F4F821B91098F739927089583E992E06C
:100230000E940A0121E0892B09F420E0822F089511
:1002400080E090E0892B29F00E94160181110C9426
:1002500000000895FC01A48DA80FB92FB11DA35A69
:10026000BF4F2C91848D90E001968F739927848FD6
:10027000A689B7892C93A089B1898C9183708064F9
:100280008C93938D848D981306C00288F389E02D9A
:1002900080818F7D80830895EF92FF920F931F934B
:1002A000CF93DF93EC0181E0888F9B8D8C8D981329
:1002B0001AC0E889F989808185FF15C09FB7F89435
:1002C000EE89FF896083E889F98980818370806481
:1002D00080839FBF81E090E0DF91CF911F910F91CC
:1002E000FF90EF900895F62E0B8D10E00F5F1F4FDB
:1002F0000F731127E02E8C8D8E110CC00FB607FCEA
:10030000FACFE889F989808185FFF5CFCE010E9477
:100310002A01F1CFEB8DEC0FFD2FF11DE35AFF4FBA
:10032000F0829FB7F8940B8FEA89FB898081806205
:10033000CFCFCF93DF93EC01888D8823B9F0AA89C2
:10034000BB89E889F9898C9185FD03C0808186FD90
:100350000DC00FB607FCF7CF8C9185FFF2CF8081DF
:1003600085FFEDCFCE010E942A01E9CFDF91CF9129
:100370000895833081F028F4813099F08230A9F01B
:1003800008958730A9F08830C9F08430B1F48091A5
:1003900080008F7D03C0809180008F7780938000E4
:1003A000089584B58F7784BD089584B58F7DFBCF84
:1003B0008091B0008F778093B00008958091B00055
:1003C0008F7DF9CFCF93DF93282F30E0F901E255ED
:1003D000FF4F8491F901E656FF4FD491F901EA5796
:1003E000FF4FC491CC23A1F081110E94B901EC2FE1
:1003F000F0E0EE0FFF1FE458FF4FA591B491EC9190
:10040000ED2381E090E009F480E0DF91CF91089541
:1004100080E090E0FACFBF92CF92DF92EF92FF920E
:100420000F931F93CF93DF93B82ECB016AE070E058
:100430000E945C0E7B01D0E0C0E0042F10E083E25C
:10044000C82ED12C8B2D0E94E2018017910799F4C0
:10045000C6010197F1F72196EC16FD069CF78FEF88
:100460009FEFDF91CF911F910F91FF90EF90DF9061
:10047000CF90BF90089590E080E0F3CF1F93CF938B
:10048000DF93282F30E0F901E255FF4F8491F90105
:10049000E656FF4FD491F901EA57FF4FC491CC23A0
:1004A000A9F0162F81110E94B901EC2FF0E0EE0F98
:1004B000FF1FEE58FF4FA591B4918FB7F894EC91C0
:1004C000111108C0D095DE23DC938FBFDF91CF914F
:1004D0001F910895DE2BF8CFCF93DF9390E0FC01BE
:1004E000E656FF4F24918A579F4FFC018491882341
:1004F000D1F090E0880F991FFC01E859FF4FA591BA
:10050000B491FC01EE58FF4FC591D49161110EC01A
:100510009FB7F8948C91E22FE0958E238C932881DD
:10052000E223E8839FBFDF91CF9108958FB7F894BE
:10053000EC91E22BEC938FBFF6CF3FB7F89480910C
:10054000760290917702A0917802B091790226B557
:10055000A89B05C02F3F19F00196A11DB11D3FBFFB
:10056000BA2FA92F982F8827BC01CD01620F711DCA
:10057000811D911D42E0660F771F881F991F4A95C4
:10058000D1F708958F929F92AF92BF92CF92DF9250
:10059000EF92FF924B015C010E949D026B017C0176
:1005A0000E949D026C197D098E099F09683E734067
:1005B00081059105A8F321E0821A9108A108B108EC
:1005C00088EEC80E83E0D81EE11CF11C8114910452
:1005D000A104B10429F7FF90EF90DF90CF90BF9076
:1005E000AF909F908F90089585ED8093BC0080918F
:1005F000BC0084FDFCCF10928002089520912E0251
:10060000260F3327331F21323105ECF4209180026D
:10061000FC0190E080E0243069F082E00895A09130
:100620002E022191AC01425F5D4FA40FB52FB11D89
:100630002C930196861798F380912E02680F609391
:100640002E0280E0089581E008950895E0918402EB
:1006500080918302E81730F4F0E0E251FE4F808190
:1006600090E008958FEF9FEF08959091840280911C
:1006700083022FEF3FEF981748F4E92FF0E0E251A3
:10068000FE4F208130E09F5F90938402C90108955E
:100690008091830290918402891B990B0895CF92D7
:1006A000DF92EF92FF920F931F93CF93DF937C0122
:1006B000CB018A012091ED01222389F0EB016B012E
:1006C000C40ED51ECC15DD0569F06991D701ED91F9
:1006D000FC910190F081E02DC7010995F3CF642FC3
:1006E0000E94FE02C801DF91CF911F910F91FF90F0
:1006F000EF90DF90CF900895CF93DF931F92CDB707
:10070000DEB769832091ED012223F9F02091810267
:10071000203258F021E030E0FC013383228390E066
:1007200080E00F90DF91CF91089580918202E82FB1
:10073000F0E0E353FE4F998190838F5F80938202B4
:100740008093810281E090E0ECCF61E0CE010196E0
:100750000E94FE02F7CFCF93FC01C48121E02093D9
:10076000ED01C093CC011092820210928102838528
:10077000682B80E393E00E947C0390918102913288
:1007800008F03FC0809180028111FCCF82E080930D
:10079000800281E080937F028FEF8093510210925C
:1007A000730290937202ADECB1E0E2E5F2E080E01A
:1007B00098132FC01092740280917402CC0FC82B32
:1007C000C093740280917E02813039F510927E02CE
:1007D000809174028093BB008091BC0083FDF8CFB0
:1007E00085EC8093BC00809180028230E1F380919F
:1007F00051028F3F31F080915102803211F080918F
:10080000510210928202109281021092ED01CF915A
:1008100008952D9121938F5FCBCF85EEE2CF089580
:1008200090E080E008950F931F93CF938C01C62F23
:100830000E94AB036C2F6460C8010E94AB036C2F55
:100840006B7FC8010E94AB0383EC90E00197F1F746
:10085000CF911F910F9108950F931F93CF93DF9323
:100860008C01D62FC42F607F642B0E94130480E17B
:10087000D89FB00111246C2BC801DF91CF911F913B
:100880000F910C94130440E061E08EE493E00E9429
:100890002C048BE39FE10197F1F70895CF93DF9349
:1008A000CDB7DEB728970FB6F894DEBF0FBECDBF29
:1008B00098E0E6E0F1E0DE01119601900D929A9544
:1008C000E1F790915703961708F46FEF262F30E069
:1008D000220F331F41E050E04C0F5D1F240F351FE6
:1008E000F9016081680F606840E08EE493E028962B
:1008F0000FB6F894DEBF0FBECDBFDF91CF910C9441
:100900002C0441E00E942C0481E090E00895FB015A
:1009100001900020E9F73197AF01461B570BDC012E
:10092000ED91FC910280F381E02D0994CF93DF9348
:10093000BC0183E992E00E949E00EC016EE371E04D
:1009400083E992E00E9487048C0F9D1FDF91CF9175
:10095000089541E0682F8EE493E00E942C046EE33A
:1009600071E08EE493E00E948704019608958F92CF
:100970009F92AF92BF92EF92FF920F931F93CF93EC
:10098000DF93CDB7DEB7A1970FB6F894DEBF0FBEE9
:10099000CDBF7C01FA01CB0119A2223008F42AE074
:1009A0008E010F5D1F4F822E912CB12CA12CBF0107
:1009B000A50194010E94700EF901CA016A300CF57C
:1009C000605DD8016E938D01232B242B252B79F7A5
:1009D00090E080E0109721F0BD01C7010E948704DC
:1009E000A1960FB6F894DEBF0FBECDBFDF91CF91B9
:1009F0001F910F91FF90EF90BF90AF909F908F90BD
:100A00000895695CDECFCF92DF92EF92FF920F9351
:100A10001F93CF93DF93EC016B01770FEE08FF0874
:100A2000F7FE25C0E881F9810190F081E02D6DE2AB
:100A300009958C0144275527BA014C195D096E09A7
:100A40007F092AE0CE010E94B704080F191F6EE348
:100A500071E0CE010E948704800F911FDF91CF913A
:100A60001F910F91FF90EF90DF90CF9008952AE0B3
:100A7000B701A6010E94B7048C01E9CFCF93DF93A1
:100A8000AB01BC012AE083E992E00E94B704EC01CB
:100A90006EE371E083E992E00E9487048C0F9D1F52
:100AA000DF91CF9108950F931F93CF93DF93EC01C4
:100AB0000E9487048C016EE371E0CE010E948704DE
:100AC000800F911FDF91CF911F910F9108951F9279
:100AD0000F920FB60F9211242F933F934F935F9372
:100AE0006F937F938F939F93AF93BF93EF93FF93F6
:100AF00083E992E00E942A01FF91EF91BF91AF91AB
:100B00009F918F917F916F915F914F913F912F9125
:100B10000F900FBE0F901F9018951F920F920FB657
:100B20000F9211242F938F939F93EF93FF93E09154
:100B3000A302F091A4028081E091A902F091AA029F
:100B400082FD1BC090818091AC028F5F8F732091DA
:100B5000AD02821741F0E091AC02F0E0ED56FD4F9E
:100B6000958F8093AC02FF91EF919F918F912F9180
:100B70000F900FBE0F901F9018958081F4CF1F9299
:100B80000F920FB60F9211242F933F938F939F9341
:100B9000AF93BF938091850290918602A0918702C6
:100BA000B09188023091750223E0230F2D3758F55C
:100BB0000196A11DB11D209375028093850290932B
:100BC0008602A0938702B09388028091760290916A
:100BD0007702A0917802B09179020196A11DB11D12
:100BE0008093760290937702A0937802B093790273
:100BF000BF91AF919F918F913F912F910F900FBE19
:100C00000F901F90189526E8230F0296A11DB11D85
:100C1000D2CF1F920F920FB60F9211242F933F93B2
:100C20004F935F936F937F938F939F93AF93BF93F4
:100C3000EF93FF938091B900887F803609F44AC012
:100C4000F0F5883209F4A7C018F5803109F49BC08B
:100C5000B8F4882309F4F9C0883009F494C0FF91EE
:100C6000EF91BF91AF919F918F917F916F915F9124
:100C70004F913F912F910F900FBE0F901F9018959D
:100C8000883109F488C0803251F78093510214C032
:100C9000803409F49DC040F48033B9F38833F9F609
:100CA0008093510285ECB0C0803509F485C0883549
:100CB00009F496C0883499F60E94F402D0CF88399E
:100CC00009F48CC038F5883729F050F4883611F0D3
:100CD000803729F683E0809380021092500257C03B
:100CE000883809F47BC0803919F0803809F0B7CF13
:100CF00080915002803208F071C0E091500281E092
:100D00008E0F809350028091BB00F0E0E05DFD4FBC
:100D100080833DC0803B39F0E0F4803A09F479C02B
:100D2000883A09F09CCF84E08093800210922F02D1
:100D300010922E02E0917C02F0917D020995809143
:100D40002E0281110FC081E080932E0210920E02BC
:100D500009C0803C09F4A6CF883C09F4A3CF883BA6
:100D600009F07DCFE0912F0281E08E0F80932F025A
:100D7000F0E0E25FFD4F80818093BB0090912F02F5
:100D800080912E0229C0809174028093BB0085EC73
:100D90008093BC0064CF9091730280917202981787
:100DA00058F5E091730281E08E0F80937302F0E0BA
:100DB000EE5AFD4F8081E9CFE091730281E08E0F02
:100DC000809373028091BB00F0E0EE5AFD4F808368
:100DD00090917302809172029817C8F285E8D8CF7B
:100DE000E091730281E08E0F809373028091BB00CB
:100DF000F0E0EE5AFD4F808380917F0281115CCF3D
:100E000081E080937E0284EA8093BC00109280028D
:100E100026CF85EC8093BC00109280028091500216
:100E2000803230F4E0915002F0E0E05DFD4F10823E
:100E30006091500270E0E0917A02F0917B0280E3D1
:100E400092E00995109250020ACF1092510234CFCD
:100E5000EF92FF920F931F93CF93DF93EC017B01EF
:100E6000198218821B821A821D821C82FB0101904A
:100E70000020E9F731978F01061B170BB8016F5F50
:100E80007F4F90E080E00E94D10F0097B9F09983E6
:100E900088831B830A832C813D81232B11F4FC0161
:100EA00010821D830C83B70188819981DF91CF91D6
:100EB0001F910F91FF90EF900C949710888199816A
:100EC000009711F00E94480F198218821D821C821F
:100ED0001B821A82DF91CF911F910F91FF90EF90AB
:100EE0000895E3E9F2E01382128288EE93E0A0E035
:100EF000B0E084839583A683B78322E131E0318318
:100F0000208325EC30E03587248724EC30E03787D8
:100F1000268720EC30E0318B208B21EC30E0338BC6
:100F2000228B22EC30E0358B248B26EC30E0378BA3
:100F3000268B118E128E138E148EE0E3F3E0138253
:100F4000128284839583A683B78384E291E09183A0
:100F50008083EEE4F3E01382128286E391E09183D2
:100F6000808387E2848380E1808782E081871286A4
:100F700088E0838761E471E08CE393E00E942807B6
:100F800067E471E082E493E00E9428076DE471E079
:100F900088E493E00C942807CF93DF93CDB7DEB7B6
:100FA000AC970FB6F894DEBF0FBECDBF789484B572
:100FB000826084BD84B5816084BD85B5826085BD55
:100FC00085B5816085BD80916E00816080936E00E3
:100FD00010928100809181008260809381008091D5
:100FE0008100816080938100809180008160809386
:100FF00080008091B10084608093B1008091B00046
:1010000081608093B00080917A00846080937A0040
:1010100080917A00826080937A0080917A0081606A
:1010200080937A0080917A00806880937A00109291
:10103000C100E091A302F091A40282E08083E091DC
:101040009F02F091A0021082E091A102F091A20211
:101050008FEC80831092AB02E091A702F091A8027E
:1010600086E08083E091A502F091A60280818061F4
:101070008083E091A502F091A60280818860808340
:10108000E091A502F091A602808180688083E091C2
:10109000A502F091A60280818F7D80831092840248
:1010A00010928302109282021092810210928002AA
:1010B00081E080937F0210927E0261E082E10E94D3
:1010C0003E0261E083E10E943E028091B9008E7F82
:1010D0008093B9008091B9008D7F8093B90088E436
:1010E0008093B80085E48093BC008CE990E09093F5
:1010F0007D0280937C028DE990E090937B02809347
:101100007A021092530380915703823018F098E0CE
:101110009093530390915803992339F0813029F427
:101120008091530384608093530362E370E080E016
:1011300090E00E94C202609159038EE493E00E9405
:10114000AB0368EE73E080E090E00E94C20260E3CF
:101150008EE493E00E9413040BE416E4C8010197A7
:10116000F1F760E38EE493E00E941304C801019755
:10117000F1F760E38EE493E00E94130483E592E0CC
:101180000197F1F760E28EE493E00E94130460910E
:101190005303606240E08EE493E00E942C0484E0FC
:1011A0008093540340E06CE08EE493E00E942C04B2
:1011B0000E94430482E08093550340E066E08EE4A1
:1011C00093E00E942C0440E062E08EE493E00E94F1
:1011D0002C048BE39FE10197F1F788E0809359039A
:1011E00060E08EE493E00E94AB0361E088E00E943F
:1011F0006C0261E088E00E943E028E010F5F1F4F8B
:101200001E0129E2220E311C8FB7F894409085020E
:101210005090860260908702709088028FBF88E2AB
:10122000D8011D928A95E9F761E082E00E946C0284
:1012300060E082E00E943E0264E170E080E090E0C5
:101240000E94C20261E082E00E943E0283E790E0D9
:101250000197F1F760E082E00E946C0240E060E5F7
:1012600070E082E090E00E940B02892B29F541E0BA
:1012700060E570E082E090E00E940B02892BE1F4CF
:10128000780140E062E370E082E090E00E940B02AF
:101290006C01892B89F482E00E94E201019709F038
:1012A00065C183E290E00197F1F7BFEFCB1ADB0A4B
:1012B000E8E0CE16D10479F768EB71E083E992E0BB
:1012C0000E948704F7C0A70196015F7729A73AA774
:1012D0004BA75CA72FEF3FEF4FE75FE769A57AA524
:1012E0008BA59CA50E94570E81110FC02FEF3FEFD9
:1012F0004FE75FE769A57AA58BA59CA50E945B0CCB
:1013000018161CF46EE571E0E9C12FEF3FEF4FE7CF
:101310005FE4C701B6010E94520E18161CF462E683
:1013200071E0DCC12FEF3FEF4FE75FECC701B60183
:101330000E945B0C87FDF3CF20E030E0A901C701DC
:10134000B6010E945B0C87FF0BC06DE283E992E05F
:101350000E944C0146015701B7FAB094B7F8B09417
:101360002AE037ED43EA5BE3C501B4010E94B70D03
:101370004B015C010E94230E6B017C010E94600CFA
:101380009B01AC01C501B4010E94B60D4B015C018B
:101390002AE0B701A60183E992E00E94B7046EE259
:1013A00083E992E00E944C0120E030E040E251E409
:1013B000C501B4010E94C10C4B015C010E94230EC7
:1013C0006B01F12CE12C2AE0B701A60183E992E040
:1013D0000E94B704C701B6010E94600C9B01AC01DA
:1013E000C501B4010E94B60D20E030E040E251E4B6
:1013F0000E94C10C0E94230EAB0170E060E02AE065
:1014000083E992E00E94B7046DC18AE5E81681E0A5
:10141000F80609F461C092EBE91691E0F9060CF0C8
:1014200056C00E944304A1E0B0E0B0938A02A093AA
:10143000890282E493E00E949604B70183E992E076
:101440000E94030560E080E00E944E0466E671E0C1
:101450008EE493E00E94870461E081E00E944E04E4
:101460008091890290918A0226E0289FB001299FED
:10147000700D1124645C7C4F8EE493E00E949E000A
:1014800060E088E00E943E0260E177E280E090E068
:101490000E94C20261E08AE00E944E0461E088E09E
:1014A0000E943E0210928C0210928B0210928E02C9
:1014B00010928D0220E030E0232B09F4A5CE0E948B
:1014C0001601882309F4A0CE0E9400009DCEB8E04A
:1014D000EB16B2E0FB06DCF5E3EBEE16E1E0FE0610
:1014E000B4F10E94430410928A02109289028CE3A4
:1014F00093E00E949604B70183E992E00E940305FD
:1015000060E080E00E944E0466E671E08EE493E0C5
:101510000E94870461E081E00E944E04809189026C
:1015200090918A0226E0289FB001299F700D112416
:10153000645C7C4F8EE493E00E949E0060E088E053
:101540000E943E0260E27EE480E090E0A1CF0E9433
:10155000430467E771E083E992E00E94530567E77F
:1015600071E08EE493E00E9453058CC181E034E089
:10157000C316D1040CF480E0D7018D937D01A21530
:10158000B30509F07ECE40E062E370E082E090E0D7
:101590000E940B02892B09F08FCEC8010E948D009A
:1015A000E82ECE0109960E948D00F82ECE014196BC
:1015B0000E948D00D82ECE0149960E948D00C82E23
:1015C000CE0181960E948D00FE0CFD0CCF0C8C117B
:1015D00073CE0E94430460E080E00E944E0464E801
:1015E00071E08EE493E00E94530560E08CE00E947D
:1015F0004E046D2D70E08EE493E00E94030560E0E0
:101600008EE00E944E048FED0E94A90460E08FE0FE
:101610000E944E0461E971E08EE493E00E9453055C
:1016200061E080E00E944E0463E971E08EE493E0A3
:101630000E94530561E08CE00E944E046E2D70E024
:101640008EE493E00E94030561E08EE00E944E0468
:101650006EE971E08EE493E00E94530561E08FE053
:101660000E944E0485E20E94A90460EA71E083E9C9
:1016700092E00E945305C301B2010E943E056091B1
:101680008F027091900280919102909192020E943B
:101690003E0560918D0270918E0283E992E00E9476
:1016A000030580918B0290918C0260918D02709164
:1016B0008E020E945C0E072E000C880B990B0E9474
:1016C000620C6B017C014B015C01AC019B010E942F
:1016D000570E882309F4F7CD6AE571E083E992E0BB
:1016E0000E9487046EE371E083E992E00E94870420
:1016F00060ED77E080E090E00E94C2020E94430427
:1017000060E080E00E944E0466E671E08EE493E0C3
:101710000E94870461E081E00E944E04809189026A
:1017200090918A0226E0289FB001299F700D112414
:10173000645C7C4F8EE493E00E949E0060ED77E055
:1017400080E090E00E94C20280918F02909190020E
:10175000A0919102B0919202A3019201281B390B32
:101760004A0B5B0BDA01C901813C9742A940B105E4
:1017700008F4A0CE40928F025092900260929102A3
:101780007092920280918D0290918E0201969093B8
:101790008E0280938D0280E480937C0080917A0099
:1017A000806480937A0080917A0086FDFCCF9091CE
:1017B00078008091790089279827892720918B02CA
:1017C00030918C02820F931F90938C0280938B0236
:1017D00060918D0270918E02663071050CF46ACEB4
:1017E0000E945C0E7B010E944304C301B2010E946F
:1017F0003E0545E0E41641E0F4060CF4A8CE5AE5B7
:10180000E51651E0F5060CF000CE0E94430482E09C
:1018100090E090938A028093890288E493E00E948A
:101820009604B70183E992E00E94030560E080E03E
:101830000E944E0466E671E08EE493E00E94870405
:1018400061E081E00E944E048091890290918A02B9
:1018500026E0289FB001299F700D1124645C7C4F05
:101860008EE493E00E949E0061E088E00E943E02C8
:1018700068EE73E080E090E00E94C20261E08AE0DE
:101880000E944E0468E873E180E090E00E94C2028A
:1018900005CECF93DF93CCE3D3E08C859D850E946A
:1018A000480F8E819F810E94480F88819981DF9126
:1018B000CF910C94480F0E949D0C08F481E008958C
:1018C000E89409C097FB3EF49095809570956195DA
:1018D0007F4F8F4F9F4F9923A9F0F92F96E9BB2790
:1018E0009395F695879577956795B795F111F8CF0C
:1018F000FAF4BB0F11F460FF1BC06F5F7F4F8F4F77
:101900009F4F16C0882311F096E911C0772321F06C
:101910009EE8872F762F05C0662371F096E8862F04
:1019200070E060E02AF09A95660F771F881FDAF75B
:10193000880F9695879597F90895990F0008550F88
:10194000AA0BE0E8FEEF16161706E807F907C0F045
:1019500012161306E407F50798F0621B730B840B4D
:10196000950B39F40A2661F0232B242B252B21F427
:1019700008950A2609F4A140A6958FEF811D811DC7
:1019800008950E94D40C0C94450D0E94370D38F038
:101990000E943E0D20F0952311F00C942E0D0C9416
:1019A000340D11240C94790D0E94560D70F3959FFF
:1019B000C1F3950F50E0551F629FF001729FBB2746
:1019C000F00DB11D639FAA27F00DB11DAA1F649FE2
:1019D0006627B00DA11D661F829F2227B00DA11D95
:1019E000621F739FB00DA11D621F839FA00D611D1B
:1019F000221F749F3327A00D611D231F849F600D3C
:101A0000211D822F762F6A2F11249F5750409AF064
:101A1000F1F088234AF0EE0FFF1FBB1F661F771FF0
:101A2000881F91505040A9F79E3F510580F00C94BB
:101A30002E0D0C94790D5F3FE4F3983ED4F3869518
:101A400077956795B795F795E7959F5FC1F7FE2B5B
:101A5000880F911D9695879597F9089597F99F6737
:101A600080E870E060E008959FEF80EC0895002426
:101A70000A941616170618060906089500240A94F3
:101A800012161306140605060895092E0394000C79
:101A900011F4882352F0BB0F40F4BF2B11F460FF08
:101AA00004C06F5F7F4F8F4F9F4F089557FD905831
:101AB000440F551F59F05F3F71F04795880F97FB12
:101AC000991F61F09F3F79F08795089512161306CC
:101AD0001406551FF2CF4695F1DF08C016161706FB
:101AE0001806991FF1CF8695710561050894089530
:101AF000E894BB2766277727CB0197F908952F92A3
:101B00003F924F925F926F927F928F929F92AF928D
:101B1000BF92CF92DF92EF92FF920F931F93CF93DA
:101B2000DF93CDB7DEB7CA1BDB0B0FB6F894DEBF71
:101B30000FBECDBF09942A88398848885F846E8497
:101B40007D848C849B84AA84B984C884DF80EE80E1
:101B5000FD800C811B81AA81B981CE0FD11D0FB6EA
:101B6000F894DEBF0FBECDBFED0108955058BB27DE
:101B7000AA270E94CE0D0C94450D0E94370D38F017
:101B80000E943E0D20F039F49F3F19F426F40C9486
:101B9000340D0EF4E095E7FB0C942E0DE92F0E9416
:101BA000560D58F3BA17620773078407950720F09C
:101BB00079F4A6F50C94780D0EF4E0950B2EBA2F5F
:101BC000A02D0B01B90190010C01CA01A001112443
:101BD000FF27591B99F0593F50F4503E68F11A16EF
:101BE000F040A22F232F342F4427585FF3CF469580
:101BF00037952795A795F0405395C9F77EF41F16A2
:101C0000BA0B620B730B840BBAF09150A1F0FF0F6B
:101C1000BB1F661F771F881FC2F70EC0BA0F621F57
:101C2000731F841F48F4879577956795B795F79547
:101C30009E3F08F0B0CF9395880F08F09927EE0FDC
:101C40009795879508950E945E0D88F09F5798F0AC
:101C5000B92F9927B751B0F0E1F0660F771F881FB1
:101C6000991F1AF0BA95C9F714C0B13091F00E94CB
:101C7000780DB1E008950C94780D672F782F8827A0
:101C8000B85F39F0B93FCCF3869577956795B395F2
:101C9000D9F73EF490958095709561957F4F8F4F61
:101CA0009F4F08950E949D0C08F48FEF08950E94A5
:101CB0009D0C880B990B089597FB072E16F4009442
:101CC00007D077FD09D00E94920E07FC05D03EF4A4
:101CD000909581959F4F0895709561957F4F0895D8
:101CE000A1E21A2EAA1BBB1BFD010DC0AA1FBB1F20
:101CF000EE1FFF1FA217B307E407F50720F0A21B92
:101D0000B30BE40BF50B661F771F881F991F1A94FE
:101D100069F760957095809590959B01AC01BD0128
:101D2000CF010895AA1BBB1B51E107C0AA1FBB1F0F
:101D3000A617B70710F0A61BB70B881F991F5A9557
:101D4000A9F780959095BC01CD010895EE0FFF1F76
:101D50000590F491E02D09940F931F93CF93DF9397
:101D60008230910510F482E090E0E0915C03F09104
:101D70005D0330E020E0B0E0A0E0309799F4211559
:101D8000310509F44AC0281B390B24303105D8F538
:101D90008A819B816115710589F1FB01938382839F
:101DA000FE0111C0408151810281138148175907FA
:101DB000E0F04817590799F4109761F012960C93C8
:101DC000129713961C933296CF01DF91CF911F91FA
:101DD0000F91089500935C0310935D03F4CF2115D8
:101DE000310551F04217530738F0A901DB019A0180
:101DF000BD01DF01F801C1CFEF01F9CF90935D0381
:101E000080935C03CDCFFE01E20FF31F819391938A
:101E10002250310939832883D7CF20915A0330913A
:101E20005B03232B41F42091020130910301309395
:101E30005B0320935A032091000130910101211589
:101E4000310541F42DB73EB7409104015091050191
:101E5000241B350BE0915A03F0915B03E217F30763
:101E6000A0F42E1B3F0B2817390778F0AC014E5F0A
:101E70005F4F2417350748F04E0F5F1F50935B03E9
:101E800040935A03819391939FCFF0E0E0E09CCF81
:101E9000CF93DF930097E9F0FC013297138212820F
:101EA000A0915C03B0915D03ED0130E020E010975C
:101EB000A1F420813181820F931F20915A03309128
:101EC0005B032817390709F061C0F0935B03E093C7
:101ED0005A03DF91CF910895EA01CE17DF07E8F5A5
:101EE0004A815B819E0141155105B1F7E901FB83F0
:101EF000EA8349915991C40FD51FEC17FD0761F48E
:101F0000808191810296840F951FE90199838883CE
:101F1000828193819B838A83F0E0E0E012968D9129
:101F20009C9113970097B9F52D913C911197CD0194
:101F30000296820F931F20915A0330915B0328175A
:101F4000390739F6309751F510925D0310925C0312
:101F5000B0935B03A0935A03BCCFD383C283408169
:101F60005181840F951FC817D90761F44E5F5F4FE9
:101F700088819981480F591F518340838A819B81B1
:101F8000938382832115310509F0B0CFF0935D036F
:101F9000E0935C039ECFFD01DC01C0CF138212826F
:101FA000D7CFB0E0A0E0E7EDFFE00C94810D8C010D
:101FB000009751F4CB010E94AC0E8C01C801CDB743
:101FC000DEB7E0E10C949D0DFC01E60FF71F9C01CC
:101FD00022503109E217F30708F49DC0D901CD91D1
:101FE000DC911197C617D70798F0C530D10530F3AB
:101FF000CE0104978617970708F3C61BD70B2297C5
:10200000C193D1936D937C93CF010E94480FD6CF9B
:102010005B01AC1ABD0A4C018C0E9D1EA0915C03A5
:10202000B0915D03512C412CF12CE12C109731F52E
:1020300080915A0390915B038815990509F05CC063
:102040004616570608F058C0809100019091010192
:10205000009741F48DB79EB740910401509105015E
:10206000841B950BE817F90708F055C0F0935B0344
:10207000E0935A03F90171836083A0CF8D919C9105
:10208000119712966C90129713967C901397A8153F
:10209000B90559F56C0142E0C40ED11CCA14DB0429
:1020A00020F1AC014A195B09DA011296159780F00C
:1020B0006282738251834083D9016D937C93E114D2
:1020C000F10471F0D7011396FC93EE93129776CF3B
:1020D00022968C0F9D1FF90191838083F301EFCF2E
:1020E000F0935D03E0935C0369CF4816590608F44A
:1020F0002C017D01D3019ACFCB010E94AC0E7C0153
:10210000009749F0AE01B8010E948E10C8010E94EC
:10211000480F870153CF10E000E050CFFB01DC01F6
:1021200002C001900D9241505040D8F70895FB0134
:10213000DC0101900D920020E1F7089510E0C2E665
:10214000D0E004C0FE010E94A60E2196C336D1073E
:06215000C9F7F894FFCF6F
:1021560000005E03800000004000140054000000F0
:1021660000004C01AC00D90099010A01E800FC000E
:10217600000000007C034F031004250348033503C9
:102186002603000000008104AC0010040F040D0AB1
:10219600005375636861004D6F6B72610042617236
:1021A600647A6F206D6F6B7261006E616E00696E8E
:1021B60066006F76660057696C676F746E6F73633F
:1021C60020676C65627900426C616420706F6D698E
:1021D6006172750054656D70657261747572613AED
:1021E60000430057696C676F746E6F73633A200023
:1021F6002D2D2D2D2D2D2D2D2D2D2D2D2D2D2D2D09
:102206002D2D2D2D2D2D2D00526561642044485411
:0C2216003131206661696C65642E0000A7
:00000001FF
