:100000000C9463000C948B000C948B000C94990757
:100010000C9499070C9499070C948B000C948B000A
:100020000C948B000C948B000C948B000C948B0024
:100030000C948B000C948B000C948B000C948B0014
:100040000C944F070C948B000C941D070C94F7062E
:100050000C948B000C948B000C948B000C948B00F4
:100060000C9411080C948B00000000002400270061
:100070002A0000000008000201000003040700003D
:1000800000000000000000000000230026002900FE
:1000900000000000250028002B00040404040404D0
:1000A0000404020202020202030303030303010227
:1000B00004081020408001020408102001020408F6
:1000C00010203009E90F11241FBECFEFD8E0DEBFAA
:1000D000CDBF24E0A4EFB1E001C01D92A730B2076C
:1000E000E1F711E0A0E0B1E0EAE4F9E202C0059036
:1000F0000D92A43FB107D9F710E0C2E6D0E004C0EA
:100100002197FE010E94A012C136D107C9F70E94B3
:10011000340A0C9498140C940000FC0147E050E061
:1001200080E02191042E01C0220F0A94EAF7820F89
:1001300041505109B0F7089508950895DB011496D0
:100140004D915C9115976D917C91DC01ED91FC9145
:100150000280F381E02D0994AF92BF92CF92DF929B
:10016000EF92FF920F931F93CF93DF936C017B016C
:100170008B01040F151FEB015E01AE18BF08C017FD
:10018000D10759F06991D601ED91FC910190F08170
:10019000E02DC6010995892B79F7C501DF91CF9133
:1001A0001F910F91FF90EF90DF90CF90BF90AF9095
:1001B0000895FC01538D448D252F30E0842F90E06D
:1001C000821B930B541710F0CF9608950197089552
:1001D000FC01918D828D981761F0A28DAE0FBF2F1B
:1001E000B11D5D968C91928D9F5F9F73928F90E071
:1001F00008958FEF9FEF0895FC01918D828D9817E0
:1002000031F0828DE80FF11D858D90E008958FEF1C
:100210009FEF0895FC01918D228D892F90E0805CE5
:100220009F4F821B91098F73992708958FEF92E05A
:100230000E940A0121E0892B09F420E0822F089511
:1002400080E090E0892B29F00E94160181110C9426
:1002500000000895FC01A48DA80FB92FB11DA35A69
:10026000BF4F2C91848D90E001968F739927848FD6
:10027000A689B7892C93A089B1898C9183708064F9
:100280008C93938D848D981306C00288F389E02D9A
:1002900080818F7D80830895EF92FF920F931F934B
:1002A000CF93DF93EC0181E0888F9B8D8C8D981329
:1002B0001AC0E889F989808185FF15C09FB7F89435
:1002C000EE89FF896083E889F98980818370806481
:1002D00080839FBF81E090E0DF91CF911F910F91CC
:1002E000FF90EF900895F62E0B8D10E00F5F1F4FDB
:1002F0000F731127E02E8C8D8E110CC00FB607FCEA
:10030000FACFE889F989808185FFF5CFCE010E9477
:100310002A01F1CFEB8DEC0FFD2FF11DE35AFF4FBA
:10032000F0829FB7F8940B8FEA89FB898081806205
:10033000CFCFCF93DF93EC01888D8823B9F0AA89C2
:10034000BB89E889F9898C9185FD03C0808186FD90
:100350000DC00FB607FCF7CF8C9185FFF2CF8081DF
:1003600085FFEDCFCE010E942A01E9CFDF91CF9129
:100370000895833081F028F4813099F08230A9F01B
:1003800008958730A9F08830C9F08430B1F48091A5
:1003900080008F7D03C0809180008F7780938000E4
:1003A000089584B58F7784BD089584B58F7DFBCF84
:1003B0008091B0008F778093B00008958091B00055
:1003C0008F7DF9CFCF93DF93282F30E0F901EE58DE
:1003D000FF4F8491F901E255FF4FD491F901E656A0
:1003E000FF4FC491CC23A1F081110E94B901EC2FE1
:1003F000F0E0EE0FFF1FEA57FF4FA591B491EC918B
:10040000ED2381E090E009F480E0DF91CF91089541
:1004100080E090E0FACFBF92CF92DF92EF92FF920E
:100420000F931F93CF93DF93B82ECB016AE070E058
:100430000E9456127B01D0E0C0E0042F10E083E25E
:10044000C82ED12C8B2D0E94E2018017910799F4C0
:10045000C6010197F1F72196EC16FD069CF78FEF88
:100460009FEFDF91CF911F910F91FF90EF90DF9061
:10047000CF90BF90089590E080E0F3CF1F93CF938B
:10048000DF93282F30E0F901EE58FF4F8491F901F6
:10049000E255FF4FD491F901E656FF4FC491CC23AA
:1004A000A9F0162F81110E94B901EC2FF0E0EE0F98
:1004B000FF1FE057FF4FA591B4918FB7F894EC91CF
:1004C000111108C0D095DE23DC938FBFDF91CF914F
:1004D0001F910895DE2BF8CFCF93DF9390E0FC01BE
:1004E000E255FF4F249186569F4FFC01849188234B
:1004F000D1F090E0880F991FFC01E859FF4FA591BA
:10050000B491FC01E057FF4FC591D49161110EC029
:100510009FB7F8948C91E22FE0958E238C932881DD
:10052000E223E8839FBFDF91CF9108958FB7F894BE
:10053000EC91E22BEC938FBFF6CF3FB7F89480910C
:10054000DE029091DF02A091E002B091E10226B5B7
:10055000A89B05C02F3F19F00196A11DB11D3FBFFB
:10056000BA2FA92F982F8827BC01CD01620F711DCA
:10057000811D911D42E0660F771F881F991F4A95C4
:10058000D1F708958F929F92AF92BF92CF92DF9250
:10059000EF92FF924B015C010E949D026B017C0176
:1005A0000E949D026C197D098E099F09683E734067
:1005B00081059105A8F321E0821A9108A108B108EC
:1005C00088EEC80E83E0D81EE11CF11C8114910452
:1005D000A104B10429F7FF90EF90DF90CF90BF9076
:1005E000AF909F908F9008952091E4023091E502A2
:1005F0002817390771F49091E2028091E30298176D
:1006000041F0E091E202F0E0E356FD4F808190E09E
:1006100008958FEF9FEF08950895EF92FF920F9343
:100620001F93CF93DF93DC015C96ED90FC905D9778
:10063000E114F10479F481E090E013969C938E9399
:10064000129790E080E0DF91CF911F910F91FF9082
:10065000EF9008955196ED91FC91529750968C91A0
:100660005097982F90950FB75E962C915E97122F0A
:10067000127021FD6095F8942081112319F1282B27
:100680002083E7012197F1F728E0462F50E03081E1
:1006900060FF1AC0382B3083E7012197F1F7BA01C8
:1006A00075956795215089F7112381F08081892301
:1006B00080830FBF5C968D919C910197F1F781E04B
:1006C00090E0C1CF2923DCCF3923E5CF9081892B5E
:1006D000EFCF2091E4023091E5022817390771F439
:1006E0008091E3022091E20290E0805C9F4F821BA8
:1006F000910960E470E00E945612089590E080E055
:1007000008952091E4023091E50228173907B9F4E1
:100710009091E2028091E302981789F0E091E20261
:10072000F0E0E356FD4F80812091E20230E02F5F40
:100730003F4F2F7333272093E20290E008958FEF0D
:100740009FEF089585ED8093BC008091BC0084FDEF
:10075000FCCF1092EC02089520915602260F332709
:10076000331F21323105ECF42091EC02FC0190E0C2
:1007700080E0243069F082E00895A0915602219132
:10078000AC014A5C5D4FA40FB52FB11D2C930196AF
:10079000861798F380915602680F6093560280E0A6
:1007A000089581E00895E091F0028091EF02E8174A
:1007B00030F4F0E0EA5EFD4F808190E008958FEF25
:1007C0009FEF08959091F0028091EF022FEF3FEF9D
:1007D000981748F4E92FF0E0EA5EFD4F208130E001
:1007E0009F5F9093F002C90108958091EF0290916C
:1007F000F002891B990B0895CF92DF92EF92FF923E
:100800000F931F93CF93DF937C01CB018A0120913B
:100810001502222389F0EB016B01C40ED51ECC1505
:10082000DD0569F06991D701ED91FC910190F081AE
:10083000E02DC7010995F3CF642F0E94AC03C801D6
:10084000DF91CF911F910F91FF90EF90DF90CF90AC
:100850000895CF93DF931F92CDB7DEB769832091C0
:1008600015022223F9F02091ED02203258F021E008
:1008700030E0FC013383228390E080E00F90DF9131
:10088000CF9108958091EE02E82FF0E0EB50FE4FFB
:10089000998190838F5F8093EE028093ED0281E0D7
:1008A00090E0ECCF61E0CE0101960E94AC03F7CF5F
:1008B000CF93FC01C48121E020931502C093F40181
:1008C0001092EE021092ED028385682B8CE993E082
:1008D0000E9429049091ED02913208F03FC080916E
:1008E000EC028111FCCF82E08093EC0281E08093E6
:1008F000EB028FEF8093790210929B0290939A0201
:10090000A5EFB1E0EAE7F2E080E098132FC0109283
:100910009C0280919C02CC0FC82BC0939C028091BA
:10092000EA02813039F51092EA0280919C028093AC
:10093000BB008091BC0083FDF8CF85EC8093BC00A8
:100940008091EC028230E1F3809179028F3F31F0A7
:1009500080917902803211F0809179021092EE023A
:100960001092ED0210921502CF9108952D912193CE
:100970008F5FCBCF85EEE2CF089590E080E00895C1
:100980000F931F93CF938C01C62F0E9458046C2F96
:100990006460C8010E9458046C2F6B7FC8010E94DC
:1009A000580483EC90E00197F1F7CF911F910F91DC
:1009B00008950F931F93CF93DF938C01D62FC42FED
:1009C000607F642B0E94C00480E1D89FB001112495
:1009D0006C2BC801DF91CF911F910F910C94C00433
:1009E00040E061E088ED93E00E94D9048BE39FE151
:1009F0000197F1F70895CF93DF93CDB7DEB728972E
:100A00000FB6F894DEBF0FBECDBF98E0E6E0F1E090
:100A1000DE01119601900D929A95E1F79091E10314
:100A2000961708F46FEF262F30E0220F331F41E0B6
:100A300050E04C0F5D1F240F351FF9016081680FD6
:100A4000606840E088ED93E028960FB6F894DEBF2A
:100A50000FBECDBFDF91CF910C94D90441E00E942D
:100A6000D90481E090E00895FB0101900020E9F7AE
:100A70003197AF01461B570BDC01ED91FC910280D1
:100A8000F381E02D099441E0682F88ED93E00E9406
:100A9000D90460E571E088ED93E00E943405019689
:100AA00008958F929F92AF92BF92EF92FF920F9311
:100AB0001F93CF93DF93CDB7DEB7A1970FB6F8940E
:100AC000DEBF0FBECDBF7C01FA01CB0119A22230DF
:100AD00008F42AE08E010F5D1F4F822E912CB12C5D
:100AE000A12CBF01A50194010E946A12F901CA015B
:100AF0006A300CF5605DD8016E938D01232B242B99
:100B0000252B79F790E080E0109721F0BD01C70117
:100B10000E943405A1960FB6F894DEBF0FBECDBF7C
:100B2000DF91CF911F910F91FF90EF90BF90AF9009
:100B30009F908F900895695CDECFCF92DF92EF9205
:100B4000FF920F931F93CF93DF93EC016B01770F0D
:100B5000EE08FF08F7FE25C0E881F9810190F081D9
:100B6000E02D6DE209958C0144275527BA014C19F7
:100B70005D096E097F092AE0CE010E945105080F28
:100B8000191F60E571E0CE010E943405800F911FAE
:100B9000DF91CF911F910F91FF90EF90DF90CF9059
:100BA00008952AE0B701A6010E9451058C01E9CF02
:100BB0000F931F93CF93DF93EC010E9434058C01B8
:100BC00060E571E0CE010E943405800F911FDF9136
:100BD000CF911F910F9108950F931F93CF93DF93A0
:100BE000EC010E949E008C0160E571E0CE010E9444
:100BF0003405800F911FDF91CF911F910F910895C0
:100C0000CF93DF93EC0188819981009711F00E94C6
:100C10004213198218821D821C821B821A82DF9164
:100C2000CF9108950F931F93CF93DF93EC018881A9
:100C30009981009759F02A813B812617370730F0B8
:100C400081E0DF91CF911F910F9108958B016F5F2C
:100C50007F4F0E94CB13009759F0998388831B83A1
:100C60000A832C813D81232B59F7FC011082E8CFA8
:100C700080E0E7CFEF92FF920F931F93CF93DF9324
:100C80006115710541F480E0DF91CF911F910F91C3
:100C9000FF90EF90089541155105B1F07B01EC01F3
:100CA0000C811D81040F151FB8010E9412068823B4
:100CB00051F3288139818C819D81B701820F931F67
:100CC0000E9491141D830C8381E0DECFCF93DF93CC
:100CD000EC0141E050E063E571E00E943A068111C9
:100CE00003C0CE010E940006CE01DF91CF9108958E
:100CF000EF92FF920F931F93CF93DF93CDB7DEB7A1
:100D000028970FB6F894DEBF0FBECDBF7C01CB0194
:100D10004AE08E010F5F1F4FB8010E942010F801BA
:100D200001900020E9F73197AF01401B510BB8014A
:100D3000C7010E943A06811103C0C7010E94000644
:100D4000C70128960FB6F894DEBF0FBECDBFDF9166
:100D5000CF911F910F91FF90EF900895EF92FF9226
:100D60000F931F93CF93DF93EC017B018A01BA01AC
:100D70000E94120681110BC0CE010E940006CE0116
:100D8000DF91CF911F910F91FF90EF9008951D83F8
:100D90000C83B701888199810E949114F0CFCF9381
:100DA000DF93EC01FB018617970749F060817181A1
:100DB0006115710541F0448155810E94AE06CE0156
:100DC000DF91CF9108950E940006F9CFFC011182B6
:100DD00010821382128215821482FB01019000207E
:100DE000E9F73197AF01461B570B0C94AE061F92E3
:100DF0000F920FB60F9211242F933F934F935F934F
:100E00006F937F938F939F93AF93BF93EF93FF93D2
:100E10008FEF92E00E942A01FF91EF91BF91AF9175
:100E20009F918F917F916F915F914F913F912F9102
:100E30000F900FBE0F901F9018951F920F920FB634
:100E40000F9211242F938F939F93EF93FF93E09131
:100E50000F03F09110038081E0911503F0911603C8
:100E600082FD1BC09081809118038F5F8F7320914A
:100E70001903821741F0E0911803F0E0E150FD4FB3
:100E8000958F80931803FF91EF919F918F912F91F0
:100E90000F900FBE0F901F9018958081F4CF1F9276
:100EA0000F920FB60F9211242F933F938F939F931E
:100EB000AF93BF938091F1029091F202A091F3025F
:100EC000B091F4023091DD0223E0230F2D3758F565
:100ED0000196A11DB11D2093DD028093F102909334
:100EE000F202A093F302B093F4028091DE0290919B
:100EF000DF02A091E002B091E1020196A11DB11DB7
:100F00008093DE029093DF02A093E002B093E102AF
:100F1000BF91AF919F918F913F912F910F900FBEF5
:100F20000F901F90189526E8230F0296A11DB11D62
:100F3000D2CF1F920F920FB60F9211242F933F938F
:100F40004F935F936F937F938F939F93AF93BF93D1
:100F5000EF93FF93E091E402F091E502309749F0BE
:100F6000A685B7858585968D91FF14C09C918923B0
:100F7000A1F4FF91EF91BF91AF919F918F917F91DC
:100F80006F915F914F913F912F910F900FBE0F90F6
:100F90001F9018959C91892361F7A389B4899C912E
:100FA0008589809589238C93868997890197F1F7A4
:100FB000608D718DA685B785558538E020E0CB0121
:100FC0000197F1F7822F90E095958795282F4C9106
:100FD000452309F02068315091F7868D81FD2095D9
:100FE0008091E30290E001968F7399273091E2029D
:100FF000381799F0A091E302B0E0A356BD4F2C93AF
:101000008093E302828D938D0197F1F7A389B489D0
:101010008C919589892B8C93ACCF868D8160868F3E
:10102000F1CF1F920F920FB60F9211242F933F937F
:101030004F935F936F937F938F939F93AF93BF93E0
:10104000EF93FF938091B900887F803609F44AC0FE
:10105000F0F5883209F4A7C018F5803109F49BC077
:10106000B8F4882309F4F9C0883009F494C0FF91DA
:10107000EF91BF91AF919F918F917F916F915F9110
:101080004F913F912F910F900FBE0F901F90189589
:10109000883109F488C0803251F78093790214C0F6
:1010A000803409F49DC040F48033B9F38833F9F6F5
:1010B0008093790285ECB0C0803509F485C088350D
:1010C00009F496C0883499F60E94A203D0CF8839DB
:1010D00009F48CC038F5883729F050F4883611F0BF
:1010E000803729F683E08093EC021092780257C093
:1010F000883809F47BC0803919F0803809F0B7CFFF
:1011000080917802803208F071C0E091780281E02D
:101110008E0F809378028091BB00F0E0E85AFD4F7B
:1011200080833DC0803B39F0E0F4803A09F479C017
:10113000883A09F09CCF84E08093EC021092570229
:1011400010925602E091E802F091E902099580912F
:10115000560281110FC081E0809356021092360230
:1011600009C0803C09F4A6CF883C09F4A3CF883B92
:1011700009F07DCFE091570281E08E0F80935702F6
:10118000F0E0EA5CFD4F80818093BB0090915702B4
:101190008091560229C080919C028093BB0085EC0F
:1011A0008093BC0064CF90919B0280919A02981723
:1011B00058F5E0919B0281E08E0F80939B02F0E056
:1011C000E658FD4F8081E9CFE0919B0281E08E0FD0
:1011D00080939B028091BB00F0E0E658FD4F808336
:1011E00090919B0280919A029817C8F285E8D8CF17
:1011F000E0919B0281E08E0F80939B028091BB0067
:10120000F0E0E658FD4F80838091EB0281115CCFC6
:1012100081E08093EA0284EA8093BC001092EC02A1
:1012200026CF85EC8093BC001092EC02809178026E
:10123000803230F4E0917802F0E0E85AFD4F1082FD
:101240006091780270E0E091E602F091E70288E5B3
:1012500092E00995109278020ACF1092790234CF69
:10126000109202031092010388EE93E0A0E0B0E038
:101270008093030390930403A0930503B0930603A4
:1012800022E131E0309300032093FF0225EC30E0AF
:1012900030930C0320930B0324EC30E030930E03C7
:1012A00020930D0320EC30E03093100320930F03C4
:1012B00021EC30E0309312032093110322EC30E054
:1012C000309314032093130326EC30E0309316037D
:1012D00020931503109218031092190310921A0309
:1012E00010921B0310929F0310929E038093A00301
:1012F0009093A103A093A203B093A30324E231E04F
:1013000030939D0320939C031092E7031092E60311
:101310008093E8039093E903A093EA03B093EB036F
:1013200082E491E09093E5038093E4031092FB0341
:101330001092FA031092FD031092FC031092FF0327
:101340001092FE03109201041092000460910204B6
:101350006E7F6D7F609302046695617081E06827FF
:1013600084E00E943E0261E084E00E946C02E2EBB5
:10137000F0E0E491E093F403EEE9F0E0E491F0E0D2
:10138000EE0FFF1FE057FF4F859194919093F60366
:101390008093F50360E083E00E946C028091020478
:1013A00081FD04C061E083E00E943E0283E08093FF
:1013B000F003E1EBF0E0E491E093F103EDE9F0E01C
:1013C000E491F0E0EE0FFF1FEA57FF4F85919491F3
:1013D0009093F3038093F2031092DB031092DA03ED
:1013E00086E391E09093D9038093D80387E28093BA
:1013F000DC0380E18093E00382E08093E1031092BC
:10140000E20388E08093E30365E571E084EB93E019
:101410000E94E6066BE571E08AEB93E00E94E60627
:1014200061E671E080EC93E00E94E6066EE671E012
:1014300086EC93E00E94E6066BE771E08CEC93E0AB
:101440000E94E60666E871E082ED93E00E94E606FF
:1014500062E571E08EEA93E00E94E60662E571E0E3
:1014600088EA93E00C94E606CF93DF93CDB7DEB71E
:10147000E0970FB6F894DEBF0FBECDBF789484B569
:10148000826084BD84B5816084BD85B5826085BD80
:1014900085B5816085BD80916E00816080936E000E
:1014A0001092810080918100826080938100809100
:1014B00081008160809381008091800081608093B1
:1014C00080008091B10084608093B1008091B00071
:1014D00081608093B00080917A00846080937A006C
:1014E00080917A00826080937A0080917A00816096
:1014F00080937A0080917A00806880937A001092BD
:10150000C100E0910F03F091100382E08083E0912D
:101510000B03F0910C031082E0910D03F0910E0388
:101520008FEC808310921703E0911303F091140362
:1015300086E08083E0911103F09112038081806145
:101540008083E0911103F091120380818860808391
:10155000E0911103F0911203808180688083E09113
:101560001103F091120380818F7D80831092FF031D
:101570001092FE031092FD031092FC031092FB03E5
:101580001092FA038DE991E0909301048093000496
:101590009091F003963108F047C02DEB30E0309386
:1015A000FB032093FA032BE931E03093FD032093F2
:1015B000FC032CE231E03093FF032093FE032091E3
:1015C000680084E0983048F031E09E3008F430E064
:1015D00081E001C0880F3A95EAF7822B809368007A
:1015E0002DE630E0983050F02BE630E09E3030F0C1
:1015F0002CE630E0963110F030E020E03093F80334
:101600002093F703292F30E0983008F07AC181E069
:1016100001C0880F9A95EAF78093F903809100043E
:10162000909101040197F1F78091FE039091FF03DF
:10163000892B49F1E091E402F091E50223E0E43ED8
:10164000F20709F1309739F0A389B4899C91858913
:10165000809589238C93809102048E7F809302046D
:101660001092E3021092E20284EE93E09093E5027E
:101670008093E402E091F703F091F8038081909168
:10168000F903892B80831092F0021092EF021092DE
:10169000EE021092ED021092EC0281E08093EB02D8
:1016A0001092EA0261E082E10E943E0261E083E181
:1016B0000E943E028091B9008E7F8093B900809194
:1016C000B9008D7F8093B90088E48093B80085E4E9
:1016D0008093BC008CE990E09093E9028093E8024B
:1016E0008DE990E09093E7028093E6021092DD038B
:1016F0008091E103823018F098E09093DD0390919F
:10170000E203992339F0813029F48091DD0384606C
:101710008093DD0362E370E080E090E00E94C2020B
:101720006091E30388ED93E00E94580468EE73E053
:1017300080E090E00E94C20260E388ED93E00E94A6
:10174000C0040BE416E4C8010197F1F760E388EDEB
:1017500093E00E94C004C8010197F1F760E388EDAF
:1017600093E00E94C00483E592E00197F1F760E204
:1017700088ED93E00E94C0046091DD03606240E068
:1017800088ED93E00E94D90484E08093DE0340E07A
:101790006CE088ED93E00E94D9040E94F00482E09E
:1017A0008093DF0340E066E088ED93E00E94D90477
:1017B00040E062E088ED93E00E94D9048BE39FE172
:1017C0000197F1F788E08093E30360E088ED93E010
:1017D0000E94580461E088E00E946C0261E088E0A9
:1017E0000E943E028E010F5F1F4FAE01475D5F4FAB
:1017F0005AA749A78FB7F8944090F1025090F2028F
:101800006090F3027090F4028FBF88E2D8011D92BD
:101810008A95E9F761E082E00E946C0260E082E074
:101820000E943E0264E170E080E090E00E94C2020B
:1018300061E082E00E943E0283E790E00197F1F7C9
:1018400060E082E00E946C0240E060E570E082E0CF
:1018500090E00E940B02892B29F541E060E570E0E1
:1018600082E090E00E940B02892BE1F4780140E0D5
:1018700062E370E082E090E00E940B026C01892B31
:1018800089F482E00E94E201019709F092C183E2AB
:1018900090E00197F1F7BFEFCB1ADB0AE8E0CE1634
:1018A000D10479F744E050E05093FE024093FD02EA
:1018B00061EE71E08FEF92E00E94D8050E94F00483
:1018C00060E080E00E94FB048091FD029091FE02A6
:1018D00026E0289FB001299F700D11246C547C4F85
:1018E00088ED93E00E949E0068E873E180E090E05C
:1018F0000E94C20285E090E09093FE028093FD0278
:101900005BC39E3040F42850310981E001C0880F4C
:101910002A95EAF781CE2E503109F7CFA70196011B
:101920005F772DA73EA74FA758AB2FEF3FEF4FE7AD
:101930005FE76DA57EA58FA598A90E945112811120
:101940000FC02FEF3FEF4FE75FE76DA57EA58FA597
:1019500098A90E94551018161CF464E971E008C299
:101960002FEF3FEF4FE75FE4C701B6010E944C1233
:1019700018161CF468E971E0FBC12FEF3FEF4FE749
:101980005FECC701B6010E94551087FDF3CF20E040
:1019900030E0A901C701B6010E94551087FF0BC0B6
:1019A0006DE28FEF92E00E944C0146015701B7FAB9
:1019B000B094B7F8B0942AE037ED43EA5BE3C50191
:1019C000B4010E94B1114B015C010E941D126B0118
:1019D0007C010E945A109B01AC01C501B4010E9418
:1019E000B0114B015C012AE0B701A6018FEF92E034
:1019F0000E9451056EE28FEF92E00E944C0120E0C0
:101A000030E040E251E4C501B4010E94BB104B013B
:101A10005C010E941D126B01F12CE12C2AE0B70140
:101A2000A6018FEF92E00E945105C701B6010E9406
:101A30005A109B01AC01C501B4010E94B01120E015
:101A400030E040E251E40E94BB100E941D12AB0145
:101A500070E060E02AE08FEF92E00E9451058CC1B7
:101A60006B3581E07807F4F1623B71400CF07EC089
:101A70000E94F00481E090E09093FE028093FD02CA
:101A80006AEB73E08FEF92E00E94EC05B7018FEFF5
:101A900092E00E949D0560E080E00E94FB046CE9FA
:101AA00071E088ED93E00E94340561E081E00E94DE
:101AB000FB048091FD029091FE0226E0289FB00178
:101AC000299F700D11246C547C4F88ED93E00E9487
:101AD0009E0060E088E00E943E0260E177E280E0E4
:101AE00090E053C26530A1E07A070CF43FC06A353C
:101AF0007140E4F50E94F00482E090E09093FE02D1
:101B00008093FD0260EC73E08FEF92E00E94EC05A1
:101B1000B7018FEF92E00E949D0560E080E00E9497
:101B2000FB046CE971E088ED93E00E94340561E00C
:101B300081E00E94FB048091FD029091FE0226E06C
:101B4000289FB001299F700D11246C547C4F88EDA3
:101B500093E00E949E0061E088E00E943E0268E8F7
:101B600073E180E090E00E94C2021AC283E090E03C
:101B70009093FE028093FD020E94F00460E080E0FA
:101B80000E94FB0466EC73E08FEF92E00E94EC058C
:101B90008091FD029091FE0226E0289FB001299FCE
:101BA000700D11246C547C4F88ED93E00E949E00D0
:101BB000D6CF81E0E4E0CE16D1040CF480E0D7016A
:101BC0008D937D01E9A5FAA5AE17BF0709F04FCEA9
:101BD00040E062E370E082E090E00E940B02892B1B
:101BE00009F060CEC8010E948D00282ECE01099612
:101BF0000E948D00F82ECE0141960E948D00E82EA5
:101C0000CE0149960E948D00D82ECE0181960E9469
:101C10008D00F20CFE0CDF0C8D1144CE0E94F004FE
:101C200060E080E00E94FB046DEA71E088ED93E0E3
:101C30000E94D80560E08CE00E94FB042E2D30E06D
:101C40003CA72BA7B90188ED93E00E949D0560E0B9
:101C50008EE00E94FB048FED0E94430560E08FE060
:101C60000E94FB046AEB71E088ED93E00E94D805C6
:101C700061E080E00E94FB046CEB71E088ED93E092
:101C80000E94D80561E08CE00E94FB04312CB10178
:101C900088ED93E00E949D0561E08EE00E94FB04C8
:101CA00067EC71E088ED93E00E94D80561E08FE079
:101CB0000E94FB0485E20E94430569EC71E08FEF0E
:101CC00092E00E94D8052AE0B301A2018FEF92E0D2
:101CD0000E94510560E571E08FEF92E00E943405AB
:101CE0004091F9025091FA026091FB027091FC025E
:101CF0002AE08FEF92E00E94510560E571E08FEFDE
:101D000092E00E9434056091F7027091F8028FEF23
:101D100092E00E949D058091FD029091FE0226E0D6
:101D2000289FB001299F700D11246C547C4F8FEFB8
:101D300092E00E94EC058091F5029091F60260918C
:101D4000F7027091F8020E945612072E000C880BC1
:101D5000990B0E945C106B017C014B015C01AC0192
:101D60009B010E945112882309F4D8CD60E971E0EB
:101D70008FEF92E00E94340560E571E08FEF92E012
:101D80000E94340568EE73E080E090E00E94C20299
:101D90000E94F00460E080E00E94FB046CE971E0C6
:101DA00088ED93E00E94340561E081E00E94FB042D
:101DB0008091FD029091FE0226E0F22EF89EB00185
:101DC000F99E700D11246C547C4F88ED93E00E94B5
:101DD0009E008091FD029091FE02F89EB001F99E56
:101DE000700D11246C547C4F88EA93E00E94CF065A
:101DF0001A8219821C821B821E821D826EEA73E087
:101E0000C8010E94CF066BA57CA5C8010E94780678
:101E10000E946606B1010E9478060E9466067C0157
:101E20004091AC035091AD036091A8037091A90358
:101E30000E943A06811103C0C7010E940006B70143
:101E40008EEA93E00E94CF0689819A810E94421314
:101E50006EEA73E084EE93E00E94EC0550E040E00F
:101E600062E571E08EEA93E00E94AE068091F9028D
:101E70009091FA02A091FB02B091FC02A3019201A1
:101E8000281B390B4A0B5B0BDA01C90181379741DB
:101E9000A105B10508F490C04092F9025092FA02EF
:101EA0006092FB027092FC028091F7029091F8021E
:101EB00001969093F8028093F70280E480937C006F
:101EC00080917A00806480937A0080917A0086FD08
:101ED000FCCF9091780080917900892798278927F5
:101EE0002091F5023091F602820F931F9093F60233
:101EF0008093F5026091F7027091F80266307105E7
:101F00000CF45AC00E9456127B01633B41E07407F7
:101F10000CF4A6CD683072400CF028CE0E94F0047C
:101F20001092FE021092FD0264EB73E08FEF92E0DC
:101F30000E94EC05B7018FEF92E00E949D0560E0E2
:101F400080E00E94FB046CE971E088ED93E00E9460
:101F5000340561E081E00E94FB048091FD029091D4
:101F6000FE0226E0289FB001299F700D11246C54B9
:101F70007C4F88ED93E00E949E0060E088E00E9424
:101F80003E0260E27EE480E090E00E94C20261E0F6
:101F90008AE00E94FB04B70188ED93E00E949D0552
:101FA00061E088E00E943E021092F8021092F7026F
:101FB0001092F6021092F50280E090E0892B09F46D
:101FC00019CC0E941601882309F414CC0E94000049
:101FD00011CCCF93DF938091A8039091A9030E9425
:101FE00042138091AE039091AF030E944213C8ED5B
:101FF000D3E02697888199810E94421323E0C43B55
:10200000D207B9F782E491E09093E5038093E4036B
:102010008091E4029091E502845E934071F4E09136
:10202000F703F091F80390818091F903809589235B
:1020300080831092E5021092E402DF91CF9108951F
:10204000BB274A3031F4992322F4BDE29095819563
:102050009F4F0C942C10BB27FB015527AA27880FF4
:10206000991FAA1FA41710F0A41B83955051B9F70C
:10207000A05DAA3308F0A95DA193009779F7B1118B
:10208000B1931192CB010C944510DC01FC01672F38
:1020900071917723E1F7329704C07C916D9370833F
:1020A0006291AE17BF07C8F308950E94971008F415
:1020B00081E00895E89409C097FB3EF490958095DF
:1020C000709561957F4F8F4F9F4F9923A9F0F92FFE
:1020D00096E9BB279395F695879577956795B7957C
:1020E000F111F8CFFAF4BB0F11F460FF1BC06F5F62
:1020F0007F4F8F4F9F4F16C0882311F096E911C074
:10210000772321F09EE8872F762F05C0662371F094
:1021100096E8862F70E060E02AF09A95660F771FA8
:10212000881FDAF7880F9695879597F90895990F84
:102130000008550FAA0BE0E8FEEF16161706E80791
:10214000F907C0F012161306E407F50798F0621BB2
:10215000730B840B950B39F40A2661F0232B242B87
:10216000252B21F408950A2609F4A140A6958FEFA6
:10217000811D811D08950E94CE100C943F110E9474
:10218000311138F00E94381120F0952311F00C9491
:1021900028110C942E1111240C9473110E945011CB
:1021A00070F3959FC1F3950F50E0551F629FF001AA
:1021B000729FBB27F00DB11D639FAA27F00DB11DC3
:1021C000AA1F649F6627B00DA11D661F829F22274C
:1021D000B00DA11D621F739FB00DA11D621F839FD3
:1021E000A00D611D221F749F3327A00D611D231FA9
:1021F000849F600D211D822F762F6A2F11249F57F7
:1022000050409AF0F1F088234AF0EE0FFF1FBB1FF9
:10221000661F771F881F91505040A9F79E3F5105B8
:1022200080F00C9428110C9473115F3FE4F3983EF6
:10223000D4F3869577956795B795F795E7959F5F62
:10224000C1F7FE2B880F911D9695879597F90895F4
:1022500097F99F6780E870E060E008959FEF80EC59
:10226000089500240A9416161706180609060895FC
:1022700000240A9412161306140605060895092E62
:102280000394000C11F4882352F0BB0F40F4BF2BD1
:1022900011F460FF04C06F5F7F4F8F4F9F4F089511
:1022A00057FD9058440F551F59F05F3F71F0479507
:1022B000880F97FB991F61F09F3F79F087950895EC
:1022C000121613061406551FF2CF4695F1DF08C00B
:1022D000161617061806991FF1CF86957105610528
:1022E00008940895E894BB2766277727CB0197F9D0
:1022F00008952F923F924F925F926F927F928F92AA
:102300009F92AF92BF92CF92DF92EF92FF920F9384
:102310001F93CF93DF93CDB7DEB7CA1BDB0B0FB68E
:10232000F894DEBF0FBECDBF09942A88398848884B
:102330005F846E847D848C849B84AA84B984C884E1
:10234000DF80EE80FD800C811B81AA81B981CE0FD8
:10235000D11D0FB6F894DEBF0FBECDBFED010895BD
:102360005058BB27AA270E94C8110C943F110E9405
:10237000311138F00E94381120F039F49F3F19F4E0
:1023800026F40C942E110EF4E095E7FB0C94281122
:10239000E92F0E94501158F3BA1762077307840798
:1023A000950720F079F4A6F50C9472110EF4E095DF
:1023B0000B2EBA2FA02D0B01B90190010C01CA01FF
:1023C000A0011124FF27591B99F0593F50F4503EAA
:1023D00068F11A16F040A22F232F342F4427585F9C
:1023E000F3CF469537952795A795F0405395C9F7B4
:1023F0007EF41F16BA0B620B730B840BBAF091506C
:10240000A1F0FF0FBB1F661F771F881FC2F70EC00A
:10241000BA0F621F731F841F48F4879577956795DD
:10242000B795F7959E3F08F0B0CF9395880F08F0C9
:102430009927EE0F9795879508950E94581188F077
:102440009F5798F0B92F9927B751B0F0E1F0660F78
:10245000771F881F991F1AF0BA95C9F714C0B130B9
:1024600091F00E947211B1E008950C947211672FDF
:10247000782F8827B85F39F0B93FCCF386957795E8
:102480006795B395D9F73EF49095809570956195D1
:102490007F4F8F4F9F4F08950E94971008F48FEF42
:1024A00008950E949710880B990B089597FB072EAB
:1024B00016F4009407D077FD09D00E948C1207FC17
:1024C00005D03EF4909581959F4F08957095619544
:1024D0007F4F0895A1E21A2EAA1BBB1BFD010DC060
:1024E000AA1FBB1FEE1FFF1FA217B307E407F507C4
:1024F00020F0A21BB30BE40BF50B661F771F881FA0
:10250000991F1A9469F760957095809590959B0135
:10251000AC01BD01CF010895AA1BBB1B51E107C04F
:10252000AA1FBB1FA617B70710F0A61BB70B881F63
:10253000991F5A95A9F780959095BC01CD010895F2
:10254000EE0FFF1F0590F491E02D09940F931F9358
:10255000CF93DF938230910510F482E090E0E09118
:102560000504F091060430E020E0B0E0A0E03097F0
:1025700099F42115310509F44AC0281B390B243080
:102580003105D8F58A819B816115710589F1FB01BF
:1025900093838283FE0111C04081518102811381A6
:1025A00048175907E0F04817590799F4109761F058
:1025B00012960C93129713961C933296CF01DF91CB
:1025C000CF911F910F910895009305041093060475
:1025D000F4CF2115310551F04217530738F0A90106
:1025E000DB019A01BD01DF01F801C1CFEF01F9CF95
:1025F0009093060480930504CDCFFE01E20FF31FF4
:10260000819391932250310939832883D7CF209128
:10261000030430910404232B41F4209102013091F2
:1026200003013093040420930304209100013091AE
:1026300001012115310541F42DB73EB74091040148
:1026400050910501241B350BE0910304F091040423
:10265000E217F307A0F42E1B3F0B2817390778F079
:10266000AC014E5F5F4F2417350748F04E0F5F1FD8
:102670005093040440930304819391939FCFF0E01F
:10268000E0E09CCFCF93DF930097E9F0FC01329715
:1026900013821282A0910504B0910604ED0130E08E
:1026A00020E01097A1F420813181820F931F2091A7
:1026B0000304309104042817390709F061C0F0932E
:1026C0000404E0930304DF91CF910895EA01CE174B
:1026D000DF07E8F54A815B819E0141155105B1F79D
:1026E000E901FB83EA8349915991C40FD51FEC1787
:1026F000FD0761F4808191810296840F951FE901A5
:1027000099838883828193819B838A83F0E0E0E0D0
:1027100012968D919C9113970097B9F52D913C914C
:102720001197CD010296820F931F209103043091DF
:1027300004042817390739F6309751F5109206042A
:1027400010920504B0930404A0930304BCCFD38378
:10275000C28340815181840F951FC817D90761F446
:102760004E5F5F4F88819981480F591F5183408385
:102770008A819B81938382832115310509F0B0CF33
:10278000F0930604E09305049ECFFD01DC01C0CF69
:1027900013821282D7CFB0E0A0E0E1EDF3E10C9418
:1027A0007B118C01009751F4CB010E94A6128C0181
:1027B000C801CDB7DEB7E0E10C949711FC01E60F3C
:1027C000F71F9C0122503109E217F30708F49DC05E
:1027D000D901CD91DC911197C617D70798F0C53074
:1027E000D10530F3CE0104978617970708F3C61B6F
:1027F000D70B2297C193D1936D937C93CF010E9405
:102800004213D6CF5B01AC1ABD0A4C018C0E9D1E43
:10281000A0910504B0910604512C412CF12CE12C1F
:10282000109731F58091030490910404881599055F
:1028300009F05CC04616570608F058C080910001A8
:1028400090910101009741F48DB79EB7409104012A
:1028500050910501841B950BE817F90708F055C046
:10286000F0930404E0930304F90171836083A0CF23
:102870008D919C91119712966C90129713967C9063
:102880001397A815B90559F56C0142E0C40ED11C87
:10289000CA14DB0420F1AC014A195B09DA01129673
:1028A000159780F06282738251834083D9016D93C2
:1028B0007C93E114F10471F0D7011396FC93EE932D
:1028C000129776CF22968C0F9D1FF90191838083FA
:1028D000F301EFCFF0930604E093050469CF4816A7
:1028E000590608F42C017D01D3019ACFCB010E9437
:1028F000A6127C01009749F0AE01B8010E9488142D
:10290000C8010E944213870153CF10E000E050CF6E
:10291000FB01DC0102C001900D9241505040D8F7FC
:102920000895FB01DC0101900D920020E1F708956C
:1029300010E0C2E6D0E004C0FE010E94A012219681
:0A294000C336D107C9F7F894FFCFA2
:10294A00000007048000000040001400540000004A
:10295A0000004C01AC00D90099010A01E800FC0012
:10296A00000000002904FC03BD040C03F503E20384
:10297A00D303000000002E05AC00BD04BC04000017
:10298A0000000D03AC00BD040C0369038103F402CB
:10299A000D0A002C00537563686F004D6F6B7261EE
:1029AA0000426172647A6F206D6F6B726100626CB3
:1029BA00616420706F6D6961727500626C61642078
:1029CA00444854313100706F6D6961722E2E2E00A9
:1029DA006E616E00696E66006F76660057696C6795
:1029EA006F746E6F736320676C6562790054656DEE
:1029FA0070657261747572613A00430057696C6759
:102A0A006F746E6F73633A20002D2D2D2D2D2D2D91
:102A1A002D2D2D2D2D2D2D2D2D2D2D2D2D2D2D2DDC
:102A2A000052656164204448543131206661696C02
:042A3A0065642E00A1
:00000001FF
