:100000000C9462000C948A000C948A000C948A0070
:100010000C948A000C948A000C948A000C948A0038
:100020000C948A000C948A000C948A000C948A0028
:100030000C948A000C948A000C948A000C948A0018
:100040000C9455050C948A000C9423050C94FD0423
:100050000C948A000C948A000C948A000C948A00F8
:100060000C949F050C948A000000000023002600D9
:10007000290000000008000201000003040700003E
:1000800000000000000000000000250028002B00F8
:1000900000000000240027002A00040404040404D3
:1000A0000404020202020202030303030303010227
:1000B00004081020408001020408102001020408F6
:1000C0001020BE0611241FBECFEFD8E0DEBFCDBF8B
:1000D00011E0A0E0B1E0EAE7F4E102C005900D9282
:1000E000A238B107D9F722E0A2E8B1E001C01D9221
:1000F000A83FB207E1F710E0C2E6D0E004C02197C4
:10010000FE010E94350AC136D107C9F70E940807CF
:100110000C943B0A0C940000FC0147E050E080E0A6
:100120002191042E01C0220F0A94EAF7820F415058
:100130005109B0F7089508950895AF92BF92CF92F4
:10014000DF92EF92FF920F931F93CF93DF936C0197
:100150007B018B01040F151FEB015E01AE18BF0878
:10016000C017D10759F06991D601ED91FC9101902A
:10017000F081E02DC6010995892B79F7C501DF9142
:10018000CF911F910F91FF90EF90DF90CF90BF9094
:10019000AF900895FC01538D448D252F30E0842FBE
:1001A00090E0821B930B541710F0CF96089501979F
:1001B0000895FC01918D828D981761F0A28DAE0F8C
:1001C000BF2FB11D5D968C91928D9F5F9F73928F13
:1001D00090E008958FEF9FEF0895FC01918D828D3F
:1001E000981731F0828DE80FF11D858D90E008950C
:1001F0008FEF9FEF0895FC01918D228D892F90E064
:10020000805C9F4F821B91098F739927089583E427
:1002100092E00E94FB0021E0892B09F420E0822F6C
:10022000089580E090E0892B29F00E940701811158
:100230000C9400000895FC01A48DA80FB92FB11DE6
:10024000A35ABF4F2C91848D90E001968F7399270C
:10025000848FA689B7892C93A089B1898C918370EA
:1002600080648C93938D848D981306C00288F389E3
:10027000E02D80818F7D80830895EF92FF920F9310
:100280001F93CF93DF93EC0181E0888F9B8D8C8D42
:1002900098131AC0E889F989808185FF15C09FB736
:1002A000F894EE89FF896083E889F98980818370F9
:1002B000806480839FBF81E090E0DF91CF911F91A8
:1002C0000F91FF90EF900895F62E0B8D10E00F5FC9
:1002D0001F4F0F731127E02E8C8D8E110CC00FB69F
:1002E00007FCFACFE889F989808185FFF5CFCE0137
:1002F0000E941B01F1CFEB8DEC0FFD2FF11DE35A96
:10030000FF4FF0829FB7F8940B8FEA89FB898081B9
:100310008062CFCFCF93DF93EC01888D8823B9F033
:10032000AA89BB89E889F9898C9185FD03C0808100
:1003300086FD0DC00FB607FCF7CF8C9185FFF2CF7D
:10034000808185FFEDCFCE010E941B01E9CFDF91B7
:10035000CF910895833081F028F4813099F0823074
:10036000A9F008958730A9F08830C9F08430B1F43D
:10037000809180008F7D03C0809180008F77809373
:100380008000089584B58F7784BD089584B58F7DEE
:10039000FBCF8091B0008F778093B000089580915B
:1003A000B0008F7DF9CFCF93DF93282F30E0F90194
:1003B000EE58FF4F8491F901E255FF4FD491F901B6
:1003C000E656FF4FC491CC23A1F081110E94AA01EF
:1003D000EC2FF0E0EE0FFF1FE859FF4FA591B4910D
:1003E000EC91ED2381E090E009F480E0DF91CF9182
:1003F000089580E090E0FACFBF92CF92DF92EF9223
:10040000FF920F931F93CF93DF93B82ECB016AE037
:1004100070E00E94EB097B01D0E0C0E0042F10E007
:1004200083E2C82ED12C8B2D0E94D3018017910717
:1004300099F4C6010197F1F72196EC16FD069CF799
:100440008FEF9FEFDF91CF911F910F91FF90EF9072
:10045000DF90CF90BF90089590E080E0F3CF1F939E
:10046000CF93DF93282F30E0F901EE58FF4F8491AE
:10047000F901E255FF4FD491F901E656FF4FC491BF
:10048000CC23A9F0162F81110E94AA01EC2FF0E0D5
:10049000EE0FFF1FEA57FF4FA591B4918FB7F89465
:1004A000EC91111108C0D095DE23DC938FBFDF9152
:1004B000CF911F910895DE2BF8CF3FB7F89480912C
:1004C000300290913102A0913202B091330226B5F0
:1004D000A89B05C02F3F19F00196A11DB11D3FBF7C
:1004E000BA2FA92F982F8827BC01CD01620F711D4B
:1004F000811D911D42E0660F771F881F991F4A9545
:10050000D1F708958F929F92AF92BF92CF92DF92D0
:10051000EF92FF924B015C010E945D026B017C0136
:100520000E945D026C197D098E099F09683E734027
:1005300081059105A8F321E0821A9108A108B1086C
:1005400088EEC80E83E0D81EE11CF11C81149104D2
:10055000A104B10429F7FF90EF90DF90CF90BF90F6
:10056000AF909F908F90089585ED8093BC0080910F
:10057000BC0084FDFCCF10923A0208952091E40162
:10058000260F3327331F21323105ECF420913A0234
:10059000FC0190E080E0243069F082E00895A091B1
:1005A000E4012191AC014C535E4FA40FB52FB11D56
:1005B0002C930196861798F38091E401680F60935D
:1005C000E40180E0089581E008950895E0913E02FD
:1005D00080913D02E81730F4F0E0EC55FE4F808149
:1005E00090E008958FEF9FEF089590913E028091E3
:1005F0003D022FEF3FEF981748F4E92FF0E0EC555C
:10060000FE4F208130E09F5F90933E02C901089524
:1006100080913D0290913E02891B990B0895CF92E3
:10062000DF92EF92FF920F931F93CF93DF937C01A2
:10063000CB018A012091A301222389F0EB016B01F8
:10064000C40ED51ECC15DD0569F06991D701ED9179
:10065000FC910190F081E02DC7010995F3CF642F43
:100660000E94BE02C801DF91CF911F910F91FF90B0
:10067000EF90DF90CF900895CF93DF931F92CDB787
:10068000DEB769832091A3012223F9F020913B0278
:10069000203258F021E030E0FC013383228390E0E7
:1006A00080E00F90DF91CF91089580913C02E82F78
:1006B000F0E0ED57FE4F998190838F5F80933C026D
:1006C00080933B0281E090E0ECCF61E0CE010196A7
:1006D0000E94BE02F7CFCF93FC01C48121E020939A
:1006E000A301C093820110923C0210923B028385C9
:1006F000682B80EE92E00E943C0390913B02913285
:1007000008F03FC080913A028111FCCF82E08093D3
:100710003A0281E0809339028FEF809307021092B2
:10072000290290932802A3E8B1E0E8E0F2E080E03B
:1007300098132FC010922A0280912A02CC0FC82B46
:10074000C0932A0280913802813039F51092380224
:1007500080912A028093BB008091BC0083FDF8CF7A
:1007600085EC8093BC0080913A028230E1F3809165
:1007700007028F3F31F080910702803211F08091A3
:10078000070210923C0210923B021092A301CF91FB
:1007900008952D9121938F5FCBCF85EEE2CF089501
:1007A00090E080E008950F931F93CF938C01C62FA4
:1007B0000E946B036C2F6460C8010E946B036C2F56
:1007C0006B7FC8010E946B0383EC90E00197F1F707
:1007D000CF911F910F9108950F931F93CF93DF93A4
:1007E0008C01D62FC42F607F642B0E94D30380E13D
:1007F000D89FB00111246C2BC801DF91CF911F91BC
:100800000F910C94D30340E061E08CEE92E00E94E3
:10081000EC038BE39FE10197F1F70895CF93DF930A
:10082000CDB7DEB728970FB6F894DEBF0FBECDBFA9
:1008300098E0E0E0F1E0DE01119601900D929A95CA
:10084000E1F79091F502961708F46FEF262F30E04C
:10085000220F331F41E050E04C0F5D1F240F351F66
:10086000F9016081680F606840E08CEE92E02896A4
:100870000FB6F894DEBF0FBECDBFDF91CF910C94C1
:10088000EC0341E00E94EC0381E090E00895FB015D
:1008900001900020E9F73197AF01461B570BDC01AF
:1008A000ED91FC910280F381E02D09944F925F92CB
:1008B0006F927F928F929F92AF92BF92CF92DF9270
:1008C000EF92FF920F931F93CF93DF93CDB7DEB7D5
:1008D000A1970FB6F894DEBF0FBECDBF8C016B01A0
:1008E000770FEE08FF08F7FE50C0DC01ED91FC9198
:1008F0000190F081E02D6DE209955C0122273327FC
:10090000A9012C193D094E095F0919A2FE01B196F2
:100910007F019AE0492E512C612C712CCA01B9013A
:10092000A30192010E94FF09605DD7016E937D01D2
:10093000211531054105510589F790E080E01097B8
:1009400021F0BD01C8010E944704A80EB91E68E34A
:1009500071E0C8010E9447048A0D9B1DA1960FB645
:10096000F894DEBF0FBECDBFDF91CF911F910F91E5
:10097000FF90EF90DF90CF90BF90AF909F908F90BF
:100980007F906F905F904F900895A701960119A2F4
:10099000FE01B1967F018AE0882E912CA12CB12C0A
:1009A000CA01B901A50194010E94FF09605DD70148
:1009B0006E937D01211531054105510589F7B12C53
:1009C000A12C109721F2BD01C8010E9447045C01CF
:1009D000BECF0F931F93CF93DF93EC010E94470488
:1009E0008C0168E371E0CE010E944704800F911FE3
:1009F000DF91CF911F910F9108951F920F920FB623
:100A00000F9211242F933F934F935F936F937F9394
:100A10008F939F93AF93BF93EF93FF9383E492E001
:100A20000E941B01FF91EF91BF91AF919F918F9118
:100A30007F916F915F914F913F912F910F900FBEDA
:100A40000F901F9018951F920F920FB60F921124BE
:100A50002F938F939F93EF93FF93E0915302F09125
:100A600054028081E0915902F0915A0282FD1BC02C
:100A7000908180915C028F5F8F7320915D0282175D
:100A800041F0E0915C02F0E0ED5BFD4F958F8093CB
:100A90005C02FF91EF919F918F912F910F900FBE6C
:100AA0000F901F9018958081F4CF1F920F920FB670
:100AB0000F9211242F933F938F939F93AF93BF93E4
:100AC00080912C0290912D02A0912E02B0912F02C4
:100AD00030912B0223E0230F2D3758F50196A11DED
:100AE000B11D20932B0280932C0290932D02A09392
:100AF0002E02B0932F028091300290913102A0918A
:100B00003202B09133020196A11DB11D80933002D3
:100B100090933102A0933202B0933302BF91AF9110
:100B20009F918F913F912F910F900FBE0F901F902B
:100B3000189526E8230F0296A11DB11DD2CF1F9252
:100B40000F920FB60F9211242F933F934F935F9301
:100B50006F937F938F939F93AF93BF93EF93FF9385
:100B60008091B900887F803609F44AC0F0F5883258
:100B700009F4A7C018F5803109F49BC0B8F48823A4
:100B800009F4F9C0883009F494C0FF91EF91BF9146
:100B9000AF919F918F917F916F915F914F913F9115
:100BA0002F910F900FBE0F901F901895883109F468
:100BB00088C0803251F78093070214C0803409F452
:100BC0009DC040F48033B9F38833F9F6809307026F
:100BD00085ECB0C0803509F485C0883509F496C02D
:100BE000883499F60E94B402D0CF883909F48CC0B9
:100BF00038F5883729F050F4883611F0803729F617
:100C000083E080933A021092060257C0883809F4B4
:100C10007BC0803919F0803809F0B7CF8091060287
:100C2000803208F071C0E091060281E08E0F80935F
:100C300006028091BB00F0E0EA51FE4F80833DC088
:100C4000803B39F0E0F4803A09F479C0883A09F041
:100C50009CCF84E080933A021092E5011092E40167
:100C6000E0913602F091370209958091E4018111FB
:100C70000FC081E08093E4011092C40109C0803C60
:100C800009F4A6CF883C09F4A3CF883B09F07DCFB7
:100C9000E091E50181E08E0F8093E501F0E0EC53F7
:100CA000FE4F80818093BB009091E5018091E4012B
:100CB00029C080912A028093BB0085EC8093BC0000
:100CC00064CF9091290280912802981758F5E091FD
:100CD000290281E08E0F80932902F0E0E85FFD4F4A
:100CE0008081E9CFE091290281E08E0F8093290273
:100CF0008091BB00F0E0E85FFD4F80839091290276
:100D0000809128029817C8F285E8D8CFE09129028F
:100D100081E08E0F809329028091BB00F0E0E85FB4
:100D2000FD4F80838091390281115CCF81E08093F7
:100D3000380284EA8093BC0010923A0226CF85ECF8
:100D40008093BC0010923A0280910602803230F407
:100D5000E0910602F0E0EA51FE4F10826091060237
:100D600070E0E0913402F091350286EE91E0099551
:100D7000109206020ACF1092070234CFE3E4F2E0A9
:100D80001382128288EE93E0A0E0B0E08483958322
:100D9000A683B7832CE031E03183208325EC30E05B
:100DA0003587248724EC30E03787268720EC30E035
:100DB000318B208B21EC30E0338B228B22EC30E026
:100DC000358B248B26EC30E0378B268B118E128EE0
:100DD000138E148EE0EEF2E01382128284839583E8
:100DE000A683B7838EE191E091838083ECEEF2E0FD
:100DF0001382128280E391E09183808387E284836F
:100E000080E1808782E08187128688E08387089569
:100E1000CF93DF93CDB7DEB7A8970FB6F894DEBFB8
:100E20000FBECDBF789484B5826084BD84B58160E7
:100E300084BD85B5826085BD85B5816085BD8091A5
:100E40006E00816080936E0010928100809181001D
:100E50008260809381008091810081608093810015
:100E6000809180008160809380008091B1008460D7
:100E70008093B1008091B00081608093B000809138
:100E80007A00846080937A0080917A0082608093F7
:100E90007A0080917A00816080937A0080917A0054
:100EA000806880937A001092C100E0915302F09123
:100EB000540282E08083E0914F02F0915002108250
:100EC000E0915102F09152028FEC808310925B020C
:100ED000E0915702F091580286E08083E09155023C
:100EE000F0915602808180618083E0915502F091FB
:100EF0005602808188608083E0915502F09156020D
:100F0000808180688083E0915502F0915602808153
:100F10008F7D808310923E0210923D0210923C021F
:100F200010923B0210923A0281E0809339021092B3
:100F3000380261E082E10E942F0261E083E10E94B9
:100F40002F028091B9008E7F8093B9008091B90003
:100F50008D7F8093B90088E48093B80085E4809306
:100F6000BC008BE990E090933702809336028CE9C5
:100F700090E090933502809334021092F1028091B8
:100F8000F502823018F098E09093F1029091F60209
:100F9000992339F0813029F48091F10284608093A3
:100FA000F10262E370E080E090E00E9482026091D2
:100FB000F7028CEE92E00E946B0368EE73E080E033
:100FC00090E00E94820260E38CEE92E00E94D303E4
:100FD0000BE416E4C8010197F1F760E38CEE92E0B0
:100FE0000E94D303C8010197F1F760E38CEE92E011
:100FF0000E94D30383E592E00197F1F760E28CEE63
:1010000092E00E94D3036091F102606240E08CEEB6
:1010100092E00E94EC0384E08093F20240E06CE0F6
:101020008CEE92E00E94EC030E94030482E0809325
:10103000F30240E066E08CEE92E00E94EC0340E0B8
:1010400062E08CEE92E00E94EC038BE39FE101975B
:10105000F1F788E08093F70260E08CEE92E00E9466
:101060006B03CE0101967C015E0199E2A90EB11CD1
:10107000E3E28E2E912C50EB252E50E0352E6CE9BC
:10108000462E60E0562E73E7672E712C88E2F7013A
:1010900011928A95E9F7F1012491F2018491882354
:1010A00099F090E0880F991FFC01E057FF4FA59140
:1010B000B491FC01EA57FF4F859194918FB7F89452
:1010C0009C91292B2C938FBF60E082E00E942F021D
:1010D00064E170E080E090E00E94820261E082E0E2
:1010E0000E942F02C3010197F1F7F1012491F2014F
:1010F00084918823C1F090E0880F991FFC01E0578C
:10110000FF4FA591B491FC01EA57FF4F859194914F
:101110004FB7F8943C91209532233C93FC013081E9
:10112000232320834FBF40E060E570E082E090E041
:101130000E94FC01892B11F541E060E570E082E03E
:1011400090E00E94FC01892BC9F4670140E062E352
:1011500070E082E090E00E94FC018C01892B71F428
:1011600082E00E94D301019709F055C0C4010197A4
:10117000F1F70F5F1F4F0830110591F76EE671E030
:1011800083E492E00E94470419C18A35E1E09E079A
:10119000E9F0823BF1E09F07ACF460E471E083E4A6
:1011A00092E00E94E90460913F027091400283E462
:1011B00092E00E94560460E080E00E940E0460E429
:1011C00071E0DCC0883022E09207C4F4833B914098
:1011D000ACF064E471E083E492E00E94E904609181
:1011E0003F027091400283E492E00E94560460E066
:1011F00080E00E940E0464E471E0C0C068E471E025
:1012000083E492E00E94E90468E471E08CEE92E0ED
:101210000E94E904C9C081E0043011050CF480E0AB
:10122000F60181936F01AE16BF0609F08FCF40E043
:1012300062E370E082E090E00E94FC01892B09F0FB
:101240009DCFC7010E948C00082FCE0109960E94F5
:101250008C00182FCE0141960E948C00D82ECE0112
:1012600049960E948C00C82ECE0181960E948C0067
:10127000100F1D0D1C0D811381CF0E94030460E02F
:1012800080E00E940E0465E571E08CEE92E00E9421
:10129000E90460E08CE00E940E046D2D70E08CEE9D
:1012A00092E00E94560461E080E00E940E0462E633
:1012B00071E08CEE92E00E94E90461E08CE00E9413
:1012C0000E04602F70E08CEE92E00E945604609154
:1012D00041027091420283E492E00E94560460ED64
:1012E00077E080E090E00E9482028091410290913C
:1012F000420201969093420280934102059709F0C1
:101300005DC00E94030465E070E083E492E00E9407
:10131000560480E480937C0080917A0080648093FE
:101320007A0080917A0086FDFCCF909178008091C0
:1013300079008927982789279093400280933F025C
:101340008530F1E09F070CF459CF8A3521E09207F0
:101350000CF01BCF6BE371E083E492E00E94E904A0
:1013600060913F027091400283E492E00E94560433
:1013700060E080E00E940E046BE371E08CEE92E08E
:101380000E94470468EE73E080E090E00E948202D1
:1013900061E080E00E940E0460913F027091400283
:1013A0008CEE92E00E94560468E873E180E090E0E1
:1013B0000E948202109242021092410280E090E06C
:1013C000892B09F463CE0E940701882309F453CEC8
:1013D0000E94000050CE97FB072E16F4009407D011
:1013E00077FD09D00E94210A07FC05D03EF49095B4
:1013F00081959F4F0895709561957F4F0895A1E263
:101400001A2EAA1BBB1BFD010DC0AA1FBB1FEE1F7E
:10141000FF1FA217B307E407F50720F0A21BB30BC9
:10142000E40BF50B661F771F881F991F1A9469F745
:1014300060957095809590959B01AC01BD01CF01A1
:101440000895AA1BBB1B51E107C0AA1FBB1FA6170B
:10145000B70710F0A61BB70B881F991F5A95A9F75D
:1014600080959095BC01CD010895EE0FFF1F05906A
:0A147000F491E02D0994F894FFCFE9
:10147A000000400014005400000000003D019D00DF
:10148A00CA008A01FB00D900ED00000000003C03FD
:10149A000F03D003E5020803F502E602000000008C
:1014AA0041049D00D003CF030D0A005665727920CE
:1014BA005765740044727900426C616420706F6DE4
:1014CA00696172750054656D7065726174757261D7
:1014DA003A0057696C676F746E6F73633A005265AE
:1014EA006164204448543131206661696C65642E18
:0214FA000000F0
:107E0000112484B714BE81FFF0D085E080938100F7
:107E100082E08093C00088E18093C10086E0809377
:107E2000C20080E18093C4008EE0C9D0259A86E02C
:107E300020E33CEF91E0309385002093840096BBD3
:107E4000B09BFECF1D9AA8958150A9F7CC24DD24C4
:107E500088248394B5E0AB2EA1E19A2EF3E0BF2EE7
:107E6000A2D0813461F49FD0082FAFD0023811F036
:107E7000013811F484E001C083E08DD089C08234E0
:107E800011F484E103C0853419F485E0A6D080C0E4
:107E9000853579F488D0E82EFF2485D0082F10E0AE
:107EA000102F00270E291F29000F111F8ED06801E7
:107EB0006FC0863521F484E090D080E0DECF843638
:107EC00009F040C070D06FD0082F6DD080E0C81688
:107ED00080E7D80618F4F601B7BEE895C0E0D1E017
:107EE00062D089930C17E1F7F0E0CF16F0E7DF06D8
:107EF00018F0F601B7BEE89568D007B600FCFDCFD4
:107F0000A601A0E0B1E02C9130E011968C91119780
:107F100090E0982F8827822B932B1296FA010C0160
:107F200087BEE89511244E5F5F4FF1E0A038BF0790
:107F300051F7F601A7BEE89507B600FCFDCF97BE46
:107F4000E89526C08437B1F42ED02DD0F82E2BD052
:107F50003CD0F601EF2C8F010F5F1F4F84911BD097
:107F6000EA94F801C1F70894C11CD11CFA94CF0C13
:107F7000D11C0EC0853739F428D08EE10CD085E9AC
:107F80000AD08FE07ACF813511F488E018D01DD067
:107F900080E101D065CF982F8091C00085FFFCCF94
:107FA0009093C60008958091C00087FFFCCF809118
:107FB000C00084FD01C0A8958091C6000895E0E648
:107FC000F0E098E1908380830895EDDF803219F02E
:107FD00088E0F5DFFFCF84E1DECF1F93182FE3DFCA
:107FE0001150E9F7F2DF1F91089580E0E8DFEE27F6
:047FF000FF270994CA
:027FFE00040479
:0400000300007E007B
:00000001FF
