:100000000C9462000C948A000C948A000C948A0070
:100010000C948A000C948A000C948A000C948A0038
:100020000C948A000C948A000C948A000C948A0028
:100030000C948A000C948A000C948A000C948A0018
:100040000C9464050C948A000C9432050C940C05F5
:100050000C948A000C948A000C948A000C948A00F8
:100060000C94AE050C948A000000000023002600CA
:10007000290000000008000201000003040700003E
:1000800000000000000000000000250028002B00F8
:1000900000000000240027002A00040404040404D3
:1000A0000404020202020202030303030303010227
:1000B00004081020408001020408102001020408F6
:1000C0001020CD0611241FBECFEFD8E0DEBFCDBF7C
:1000D00011E0A0E0B1E0E8E1F5E102C005900D9289
:1000E000AE3AB107D9F723E0AEEAB1E001C01D9204
:1000F000A432B207E1F710E0C2E6D0E004C02197D5
:10010000FE010E94840AC136D107C9F70E94170771
:100110000C948A0A0C940000FC0147E050E080E057
:100120002191042E01C0220F0A94EAF7820F415058
:100130005109B0F7089508950895AF92BF92CF92F4
:10014000DF92EF92FF920F931F93CF93DF936C0197
:100150007B018B01040F151FEB015E01AE18BF0878
:10016000C017D10759F06991D601ED91FC9101902A
:10017000F081E02DC6010995892B79F7C501DF9142
:10018000CF911F910F91FF90EF90DF90CF90BF9094
:10019000AF900895FC01538D448D252F30E0842FBE
:1001A00090E0821B930B541710F0CF96089501979F
:1001B0000895FC01918D828D981761F0A28DAE0F8C
:1001C000BF2FB11D5D968C91928D9F5F9F73928F13
:1001D00090E008958FEF9FEF0895FC01918D828D3F
:1001E000981731F0828DE80FF11D858D90E008950C
:1001F0008FEF9FEF0895FC01918D228D892F90E064
:10020000805C9F4F821B91098F73992708958FE619
:1002100092E00E94FB0021E0892B09F420E0822F6C
:10022000089580E090E0892B29F00E940701811158
:100230000C9400000895FC01A48DA80FB92FB11DE6
:10024000A35ABF4F2C91848D90E001968F7399270C
:10025000848FA689B7892C93A089B1898C918370EA
:1002600080648C93938D848D981306C00288F389E3
:10027000E02D80818F7D80830895EF92FF920F9310
:100280001F93CF93DF93EC0181E0888F9B8D8C8D42
:1002900098131AC0E889F989808185FF15C09FB736
:1002A000F894EE89FF896083E889F98980818370F9
:1002B000806480839FBF81E090E0DF91CF911F91A8
:1002C0000F91FF90EF900895F62E0B8D10E00F5FC9
:1002D0001F4F0F731127E02E8C8D8E110CC00FB69F
:1002E00007FCFACFE889F989808185FFF5CFCE0137
:1002F0000E941B01F1CFEB8DEC0FFD2FF11DE35A96
:10030000FF4FF0829FB7F8940B8FEA89FB898081B9
:100310008062CFCFCF93DF93EC01888D8823B9F033
:10032000AA89BB89E889F9898C9185FD03C0808100
:1003300086FD0DC00FB607FCF7CF8C9185FFF2CF7D
:10034000808185FFEDCFCE010E941B01E9CFDF91B7
:10035000CF910895833081F028F4813099F0823074
:10036000A9F008958730A9F08830C9F08430B1F43D
:10037000809180008F7D03C0809180008F77809373
:100380008000089584B58F7784BD089584B58F7DEE
:10039000FBCF8091B0008F778093B000089580915B
:1003A000B0008F7DF9CFCF93DF93282F30E0F90194
:1003B000EE58FF4F8491F901E255FF4FD491F901B6
:1003C000E656FF4FC491CC23A1F081110E94AA01EF
:1003D000EC2FF0E0EE0FFF1FE859FF4FA591B4910D
:1003E000EC91ED2381E090E009F480E0DF91CF9182
:1003F000089580E090E0FACFBF92CF92DF92EF9223
:10040000FF920F931F93CF93DF93B82ECB016AE037
:1004100070E00E943A0A7B01D0E0C0E0042F10E0B7
:1004200083E2C82ED12C8B2D0E94D3018017910717
:1004300099F4C6010197F1F72196EC16FD069CF799
:100440008FEF9FEFDF91CF911F910F91FF90EF9072
:10045000DF90CF90BF90089590E080E0F3CF1F939E
:10046000CF93DF93282F30E0F901EE58FF4F8491AE
:10047000F901E255FF4FD491F901E656FF4FC491BF
:10048000CC23A9F0162F81110E94AA01EC2FF0E0D5
:10049000EE0FFF1FEA57FF4FA591B4918FB7F89465
:1004A000EC91111108C0D095DE23DC938FBFDF9152
:1004B000CF911F910895DE2BF8CF3FB7F89480912C
:1004C0005C0290915D02A0915E02B0915F0226B540
:1004D000A89B05C02F3F19F00196A11DB11D3FBF7C
:1004E000BA2FA92F982F8827BC01CD01620F711D4B
:1004F000811D911D42E0660F771F881F991F4A9545
:10050000D1F708958F929F92AF92BF92CF92DF92D0
:10051000EF92FF924B015C010E945D026B017C0136
:100520000E945D026C197D098E099F09683E734027
:1005300081059105A8F321E0821A9108A108B1086C
:1005400088EEC80E83E0D81EE11CF11C81149104D2
:10055000A104B10429F7FF90EF90DF90CF90BF90F6
:10056000AF909F908F90089585ED8093BC0080910F
:10057000BC0084FDFCCF1092660208952091100209
:10058000260F3327331F21323105ECF42091660208
:10059000FC0190E080E0243069F082E00895A091B1
:1005A00010022191AC0140515E4FA40FB52FB11D37
:1005B0002C930196861798F380911002680F609330
:1005C000100280E0089581E008950895E0916A02A4
:1005D00080916902E81730F4F0E0E053FE4F80812B
:1005E00090E008958FEF9FEF089590916A028091B7
:1005F00069022FEF3FEF981748F4E92FF0E0E0533E
:10060000FE4F208130E09F5F90936A02C9010895F8
:100610008091690290916A02891B990B0895CF928B
:10062000DF92EF92FF920F931F93CF93DF937C01A2
:10063000CB018A012091CF01222389F0EB016B01CC
:10064000C40ED51ECC15DD0569F06991D701ED9179
:10065000FC910190F081E02DC7010995F3CF642F43
:100660000E94BE02C801DF91CF911F910F91FF90B0
:10067000EF90DF90CF900895CF93DF931F92CDB787
:10068000DEB769832091CF012223F9F02091670220
:10069000203258F021E030E0FC013383228390E0E7
:1006A00080E00F90DF91CF91089580916802E82F4C
:1006B000F0E0E155FE4F998190838F5F809368024F
:1006C0008093670281E090E0ECCF61E0CE0101967B
:1006D0000E94BE02F7CFCF93FC01C48121E020939A
:1006E000CF01C093AE011092680210926702838519
:1006F000682B8CE093E00E943C039091670291325A
:1007000008F03FC0809166028111FCCF82E08093A7
:10071000660281E0809365028FEF8093330210922E
:10072000550290935402AFEAB1E0E4E3F2E080E0D6
:1007300098132FC01092560280915602CC0FC82BEE
:10074000C093560280916402813039F510926402A0
:10075000809156028093BB008091BC0083FDF8CF4E
:1007600085EC8093BC00809166028230E1F3809139
:1007700033028F3F31F080913302803211F080914B
:10078000330210926802109267021092CF01CF914B
:1007900008952D9121938F5FCBCF85EEE2CF089501
:1007A00090E080E008950F931F93CF938C01C62FA4
:1007B0000E946B036C2F6460C8010E946B036C2F56
:1007C0006B7FC8010E946B0383EC90E00197F1F707
:1007D000CF911F910F9108950F931F93CF93DF93A4
:1007E0008C01D62FC42F607F642B0E94D30380E13D
:1007F000D89FB00111246C2BC801DF91CF911F91BC
:100800000F910C94D30340E061E088E193E00E94F3
:10081000EC038BE39FE10197F1F70895CF93DF930A
:10082000CDB7DEB728970FB6F894DEBF0FBECDBFA9
:1008300098E0E0E0F1E0DE01119601900D929A95CA
:10084000E1F790912103961710F46FEF690F262FAF
:1008500030E0220F331F41E050E04C0F5D1F240FAA
:10086000351FF9016081680F606840E088E193E01E
:1008700028960FB6F894DEBF0FBECDBFDF91CF91A3
:100880000C94EC0341E00E94EC0381E090E00895B9
:10089000FB0101900020E9F73197AF01461B570B90
:1008A000DC01ED91FC910280F381E02D09944F92DF
:1008B0005F926F927F928F929F92AF92BF92CF92F0
:1008C000DF92EF92FF920F931F93CF93DF93CDB7F9
:1008D000DEB7A1970FB6F894DEBF0FBECDBF8C0177
:1008E0006B01770FEE08FF08F7FE50C0DC01ED91B9
:1008F000FC910190F081E02D6DE209955C012227C9
:100900003327A9012C193D094E095F0919A2FE01DF
:10091000B1967F019AE0492E512C612C712CCA01AD
:10092000B901A30192010E944E0A605DD7016E9346
:100930007D01211531054105510589F790E080E0E1
:10094000109721F0BD01C8010E944804A80EB91EED
:1009500068E371E0C8010E9448048A0D9B1DA196BE
:100960000FB6F894DEBF0FBECDBFDF91CF911F91C0
:100970000F91FF90EF90DF90CF90BF90AF909F903E
:100980008F907F906F905F904F900895A701960190
:1009900019A2FE01B1967F018AE0882E912CA12C2C
:1009A000B12CCA01B901A50194010E944E0A605DF3
:1009B000D7016E937D01211531054105510589F758
:1009C000B12CA12C109721F2BD01C8010E9448044E
:1009D0005C01BECF41E0682F88E193E00E94EC0308
:1009E00068E371E088E193E00E944804019608956D
:1009F0000F931F93CF93DF93EC010E9448048C0167
:100A000068E371E0CE010E944804800F911FDF91DE
:100A1000CF911F910F9108951F920F920FB60F92D1
:100A200011242F933F934F935F936F937F938F93F3
:100A30009F93AF93BF93EF93FF938FE692E00E9453
:100A40001B01FF91EF91BF91AF919F918F917F918A
:100A50006F915F914F913F912F910F900FBE0F902B
:100A60001F9018951F920F920FB60F9211242F937B
:100A70008F939F93EF93FF93E0917F02F091800219
:100A80008081E0918502F091860282FD1BC09081F9
:100A9000809188028F5F8F7320918902821741F0C5
:100AA000E0918802F0E0E159FD4F958F8093880234
:100AB000FF91EF919F918F912F910F900FBE0F900B
:100AC0001F9018958081F4CF1F920F920FB60F924E
:100AD00011242F933F938F939F93AF93BF93809154
:100AE000580290915902A0915A02B0915B02309144
:100AF000570223E0230F2D3758F50196A11DB11D94
:100B0000209357028093580290935902A0935A025F
:100B1000B0935B0280915C0290915D02A0915E02B5
:100B2000B0915F020196A11DB11D80935C0290936C
:100B30005D02A0935E02B0935F02BF91AF919F915F
:100B40008F913F912F910F900FBE0F901F9018958E
:100B500026E8230F0296A11DB11DD2CF1F920F923E
:100B60000FB60F9211242F933F934F935F936F9380
:100B70007F938F939F93AF93BF93EF93FF93809156
:100B8000B900887F803609F44AC0F0F5883209F44C
:100B9000A7C018F5803109F49BC0B8F4882309F484
:100BA000F9C0883009F494C0FF91EF91BF91AF91E3
:100BB0009F918F917F916F915F914F913F912F9175
:100BC0000F900FBE0F901F901895883109F488C0C0
:100BD000803251F78093330214C0803409F49DC0F1
:100BE00040F48033B9F38833F9F68093330285EC0F
:100BF000B0C0803509F485C0883509F496C08834C2
:100C000099F60E94B402D0CF883909F48CC038F527
:100C1000883729F050F4883611F0803729F683E0C0
:100C2000809366021092320257C0883809F47BC064
:100C3000803919F0803809F0B7CF809132028032C4
:100C400008F071C0E091320281E08E0F8093320291
:100C50008091BB00F0E0EE5EFD4F80833DC0803BA5
:100C600039F0E0F4803A09F479C0883A09F09CCF71
:100C700084E0809366021092110210921002E091BB
:100C80006202F091630209958091100281110FC0F8
:100C900081E0809310021092F00109C0803C09F4B9
:100CA000A6CF883C09F4A3CF883B09F07DCFE09123
:100CB000110281E08E0F80931102F0E0E051FE4FAF
:100CC00080818093BB00909111028091100229C015
:100CD000809156028093BB0085EC8093BC0064CF6A
:100CE0009091550280915402981758F5E091550261
:100CF00081E08E0F80935502F0E0EC5CFD4F808127
:100D0000E9CFE091550281E08E0F809355028091EA
:100D1000BB00F0E0EC5CFD4F808390915502809128
:100D200054029817C8F285E8D8CFE091550281E0C7
:100D30008E0F809355028091BB00F0E0EC5CFD4F7C
:100D400080838091650281115CCF81E08093640291
:100D500084EA8093BC001092660226CF85EC8093D3
:100D6000BC001092660280913202803230F4E09131
:100D70003202F0E0EE5EFD4F10826091320270E0D0
:100D8000E0916002F091610282E192E00995109297
:100D900032020ACF1092330234CFEFE6F2E0138230
:100DA000128288EE93E0A0E0B0E084839583A6836E
:100DB000B7832CE031E03183208325EC30E03587A8
:100DC000248724EC30E03787268720EC30E0318B15
:100DD000208B21EC30E0338B228B22EC30E0358B02
:100DE000248B26EC30E0378B268B118E128E138EDF
:100DF000148EECE0F3E01382128284839583A68341
:100E0000B7838EE191E091838083E8E1F3E0138280
:100E1000128280E391E09183808387E2848380E182
:100E2000808782E08187128688E083870895CF9348
:100E3000DF93CDB7DEB7A8970FB6F894DEBF0FBE2D
:100E4000CDBF789484B5826084BD84B5816084BD53
:100E500085B5826085BD85B5816085BD80916E0058
:100E6000816080936E001092810080918100826089
:100E700080938100809181008160809381008091C6
:100E800080008160809380008091B10084608093B5
:100E9000B1008091B00081608093B00080917A00B1
:100EA000846080937A0080917A00826080937A00D7
:100EB00080917A00816080937A0080917A008068C6
:100EC00080937A001092C100E0917F02F09180023D
:100ED00082E08083E0917B02F0917C021082E091BD
:100EE0007D02F0917E028FEC808310928702E09168
:100EF0008302F091840286E08083E0918102F09188
:100F00008202808180618083E0918102F09182027F
:100F1000808188608083E0918102F09182028081EB
:100F200080688083E0918102F091820280818F7DD0
:100F3000808310926A0210926902109268021092E5
:100F400067021092660281E080936502109264024B
:100F500061E082E10E942F0261E083E10E942F02A2
:100F60008091B9008E7F8093B9008091B9008D7F08
:100F70008093B90088E48093B80085E48093BC0036
:100F80008BE990E090936302809362028CE990E099
:100F9000909361028093600210921D03809121035F
:100FA000823018F098E090931D03909122039923CA
:100FB00039F0813029F480911D03846080931D03F2
:100FC00062E370E080E090E00E948202609123037F
:100FD00088E193E00E946B0368EE73E080E090E0AC
:100FE0000E94820260E388E193E00E94D3030BE455
:100FF00016E4C8010197F1F760E388E193E00E94ED
:10100000D303C8010197F1F760E388E193E00E9400
:10101000D30383E592E00197F1F760E288E193E082
:101020000E94D30360911D03606240E088E193E079
:101030000E94EC0384E080931E0340E06CE088E1B2
:1010400093E00E94EC030E94030482E080931F035C
:1010500040E066E088E193E00E94EC0340E062E05B
:1010600088E193E00E94EC038BE39FE10197F1F7A5
:1010700088E08093230360E088E193E00E946B03A3
:10108000CE0101967C015E0199E2A90EB11CE3E25A
:101090008E2E912C50EB252E50E0352E6CE9462EED
:1010A00060E0562E73E7672E712C88E2F7011192EB
:1010B0008A95E9F7F1012491F2018491882399F04E
:1010C00090E0880F991FFC01E057FF4FA591B49164
:1010D000FC01EA57FF4F859194918FB7F8949C914A
:1010E000292B2C938FBF60E082E00E942F0264E1E5
:1010F00070E080E090E00E94820261E082E00E9465
:101100002F02C3010197F1F7F1012491F2018491BB
:101110008823C1F090E0880F991FFC01E057FF4F32
:10112000A591B491FC01EA57FF4F859194914FB777
:10113000F8943C91209532233C93FC013081232389
:1011400020834FBF40E060E570E082E090E00E94C5
:10115000FC01892B11F541E060E570E082E090E050
:101160000E94FC01892BC9F4670140E062E370E052
:1011700082E090E00E94FC018C01892B71F482E0F6
:101180000E94D301019709F069C0C4010197F1F7EA
:101190000F5F1F4F0830110591F76BE971E08FE683
:1011A00092E00E94480459C18A35E1E09E0739F176
:1011B000823BF1E09F07FCF460E471E08FE692E08F
:1011C0000E94F80460916B0270916C028FE692E0CD
:1011D0000E94570465E080E00E940E0464E471E020
:1011E00088E193E00E94480465E081E00E940E04DB
:1011F00062E671E012C1883022E0920714F5833B69
:101200009140FCF068E671E08FE692E00E94F804FD
:1012100060916B0270916C028FE692E00E9457041D
:1012200065E080E00E940E0464E471E088E193E0F0
:101230000E94480465E081E00E940E046CE671E0C3
:10124000ECC062E771E08FE692E00E94F80462E78A
:1012500071E088E193E00E94F804F5C081E0043079
:1012600011050CF480E0F60181936F01AE16BF0604
:1012700009F07BCF40E062E370E082E090E00E9402
:10128000FC01892B09F089CFC7010E948C00082F2F
:10129000CE0109960E948C00182FCE0141960E9423
:1012A0008C00D82ECE0149960E948C00C82ECE010B
:1012B00081960E948C00100F1D0D1C0D81136DCFA7
:1012C0000E94030460E080E00E940E046FE771E07A
:1012D00088E193E00E94F80460E08CE00E940E0434
:1012E0006D2D70E088E193E00E94570460E08EE08D
:1012F0000E940E048FED0E94EA0460E08FE00E94DD
:101300000E046CE871E088E193E00E94F80461E06B
:1013100080E00E940E046EE871E088E193E00E9494
:10132000F80461E08CE00E940E04602F70E088E118
:1013300093E00E94570461E08EE00E940E0469E988
:1013400071E088E193E00E94F80461E08FE00E9480
:101350000E0485E20E94EA0460916D0270916E02B3
:101360008FE692E00E94570460ED77E080E090E025
:101370000E94820280916D0290916E02019690937C
:101380006E0280936D02059709F067C00E94030406
:1013900065E070E08FE692E00E94570480E480935D
:1013A0007C0080917A00806480937A0080917A003A
:1013B00086FDFCCF9091780080917900892798274D
:1013C000892790936C0280936B028530F1E09F0730
:1013D0000CF437CF8A3521E092070CF0E5CE6BE3B1
:1013E00071E08FE692E00E94F80460916B027091C8
:1013F0006C028FE692E00E94570465E080E00E9454
:101400000E0464E471E088E193E00E94480465E022
:1014100081E00E940E0465E571E088E193E00E949E
:10142000480468EE73E080E090E00E94820261E090
:1014300080E00E940E0460916B0270916C0288E162
:1014400093E00E94570468E873E180E090E00E9416
:10145000820210926E0210926D0280E090E0892B61
:1014600009F423CE0E940701882309F413CE0E94B9
:10147000000010CE97FB072E16F4009407D077FDDE
:1014800009D00E94700A07FC05D03EF49095819522
:101490009F4F0895709561957F4F0895A1E21A2E90
:1014A000AA1BBB1BFD010DC0AA1FBB1FEE1FFF1F08
:1014B000A217B307E407F50720F0A21BB30BE40B58
:1014C000F50B661F771F881F991F1A9469F760959F
:1014D0007095809590959B01AC01BD01CF01089559
:1014E000AA1BBB1B51E107C0AA1FBB1FA617B7074A
:1014F00010F0A61BB70B881F991F5A95A9F7809566
:101500009095BC01CD010895EE0FFF1F0590F49159
:08151000E02D0994F894FFCFCF
:101518000000400014005400000000003D019D0040
:10152800CA008A01FB00D900ED00000000003C035E
:101538000F03D003E5020803F502E60200000000ED
:1015480042049D00D003CF030D0A0056657279202E
:101558005765740057696C676F746E6F73632067A3
:101568006C65627900626172647A6F206D6F6B726C
:1015780061004D6F6B726100447279005375636846
:101588006100426C616420706F6D6961727500540E
:10159800656D70657261747572613A0043005769D0
:1015A8006C676F746E6F73633A20005265616420D4
:0E15B8004448543131206661696C65642E0030
:107E0000112484B714BE81FFF0D085E080938100F7
:107E100082E08093C00088E18093C10086E0809377
:107E2000C20080E18093C4008EE0C9D0259A86E02C
:107E300020E33CEF91E0309385002093840096BBD3
:107E4000B09BFECF1D9AA8958150A9F7CC24DD24C4
:107E500088248394B5E0AB2EA1E19A2EF3E0BF2EE7
:107E6000A2D0813461F49FD0082FAFD0023811F036
:107E7000013811F484E001C083E08DD089C08234E0
:107E800011F484E103C0853419F485E0A6D080C0E4
:107E9000853579F488D0E82EFF2485D0082F10E0AE
:107EA000102F00270E291F29000F111F8ED06801E7
:107EB0006FC0863521F484E090D080E0DECF843638
:107EC00009F040C070D06FD0082F6DD080E0C81688
:107ED00080E7D80618F4F601B7BEE895C0E0D1E017
:107EE00062D089930C17E1F7F0E0CF16F0E7DF06D8
:107EF00018F0F601B7BEE89568D007B600FCFDCFD4
:107F0000A601A0E0B1E02C9130E011968C91119780
:107F100090E0982F8827822B932B1296FA010C0160
:107F200087BEE89511244E5F5F4FF1E0A038BF0790
:107F300051F7F601A7BEE89507B600FCFDCF97BE46
:107F4000E89526C08437B1F42ED02DD0F82E2BD052
:107F50003CD0F601EF2C8F010F5F1F4F84911BD097
:107F6000EA94F801C1F70894C11CD11CFA94CF0C13
:107F7000D11C0EC0853739F428D08EE10CD085E9AC
:107F80000AD08FE07ACF813511F488E018D01DD067
:107F900080E101D065CF982F8091C00085FFFCCF94
:107FA0009093C60008958091C00087FFFCCF809118
:107FB000C00084FD01C0A8958091C6000895E0E648
:107FC000F0E098E1908380830895EDDF803219F02E
:107FD00088E0F5DFFFCF84E1DECF1F93182FE3DFCA
:107FE0001150E9F7F2DF1F91089580E0E8DFEE27F6
:047FF000FF270994CA
:027FFE00040479
:0400000300007E007B
:00000001FF
