:100000000C9462000C948A000C948A000C948A0070
:100010000C948A000C948A000C948A000C948A0038
:100020000C948A000C948A000C948A000C948A0028
:100030000C948A000C948A000C948A000C948A0018
:100040000C949D050C948A000C946B050C9445054A
:100050000C948A000C948A000C948A000C948A00F8
:100060000C94E7050C948A0000000000240027008F
:100070002A0000000000250028002B0000000000DE
:1000800023002600290004040404040404040202DA
:100090000202020203030303030301020408102007
:1000A0004080010204081020010204081020000012
:1000B0000008000201000003040700000000000027
:1000C0000000060711241FBECFEFD8E0DEBFCDBF72
:1000D00011E0A0E0B1E0E6E0F6E102C005900D928B
:1000E000AE3AB107D9F723E0AEEAB1E001C01D9204
:1000F000A832B207E1F710E0C2E6D0E004C02197D1
:10010000FE010E94FB0AC136D107C9F70E945007C1
:100110000C94010B0C940000FC0147E050E080E0DF
:100120002191042E01C0220F0A94EAF7820F415058
:100130005109B0F7089508950895AF92BF92CF92F4
:10014000DF92EF92FF920F931F93CF93DF936C0197
:100150007B018B01040F151FEB015E01AE18BF0878
:10016000C017D10759F06991D601ED91FC9101902A
:10017000F081E02DC6010995892B79F7C501DF9142
:10018000CF911F910F91FF90EF90DF90CF90BF9094
:10019000AF900895FC01538D448D252F30E0842FBE
:1001A00090E0821B930B541710F0CF96089501979F
:1001B0000895FC01918D828D981761F0A28DAE0F8C
:1001C000BF2FB11D5D968C91928D9F5F9F73928F13
:1001D00090E008958FEF9FEF0895FC01918D828D3F
:1001E000981731F0828DE80FF11D858D90E008950C
:1001F0008FEF9FEF0895FC01918D228D892F90E064
:10020000805C9F4F821B91098F739927089583E724
:1002100092E00E94FB0021E0892B09F420E0822F6C
:10022000089580E090E0892B29F00E940701811158
:100230000C9400000895FC01A48DA80FB92FB11DE6
:10024000A35ABF4F2C91848D90E001968F7399270C
:10025000848FA689B7892C93A089B1898C918370EA
:1002600080648C93938D848D981306C00288F389E3
:10027000E02D80818F7D80830895EF92FF920F9310
:100280001F93CF93DF93EC0181E0888F9B8D8C8D42
:1002900098131AC0E889F989808185FF15C09FB736
:1002A000F894EE89FF896083E889F98980818370F9
:1002B000806480839FBF81E090E0DF91CF911F91A8
:1002C0000F91FF90EF900895F62E0B8D10E00F5FC9
:1002D0001F4F0F731127E02E8C8D8E110CC00FB69F
:1002E00007FCFACFE889F989808185FFF5CFCE0137
:1002F0000E941B01F1CFEB8DEC0FFD2FF11DE35A96
:10030000FF4FF0829FB7F8940B8FEA89FB898081B9
:100310008062CFCFCF93DF93EC01888D8823B9F033
:10032000AA89BB89E889F9898C9185FD03C0808100
:1003300086FD0DC00FB607FCF7CF8C9185FFF2CF7D
:10034000808185FFEDCFCE010E941B01E9CFDF91B7
:10035000CF910895833081F028F4813099F0823074
:10036000A9F008958730A9F08830C9F08430B1F43D
:10037000809180008F7D03C0809180008F77809373
:100380008000089584B58F7784BD089584B58F7DEE
:10039000FBCF8091B0008F778093B000089580915B
:1003A000B0008F7DF9CFCF93DF93282F30E0F90194
:1003B000E255FF4F8491F901E656FF4FD491F901C0
:1003C000EA57FF4FC491CC23A1F081110E94AA01EA
:1003D000EC2FF0E0EE0FFF1FE458FF4FA591B49112
:1003E000EC91ED2381E090E009F480E0DF91CF9182
:1003F000089580E090E0FACFBF92CF92DF92EF9223
:10040000FF920F931F93CF93DF93B82ECB016AE037
:1004100070E00E94B10A7B01D0E0C0E0042F10E040
:1004200083E2C82ED12C8B2D0E94D3018017910717
:1004300099F4C6010197F1F72196EC16FD069CF799
:100440008FEF9FEFDF91CF911F910F91FF90EF9072
:10045000DF90CF90BF90089590E080E0F3CF1F939E
:10046000CF93DF93282F30E0F901E255FF4F8491BD
:10047000F901E656FF4FD491F901EA57FF4FC491B5
:10048000CC23A9F0162F81110E94AA01EC2FF0E0D5
:10049000EE0FFF1FEE58FF4FA591B4918FB7F89460
:1004A000EC91111108C0D095DE23DC938FBFDF9152
:1004B000CF911F910895DE2BF8CFCF93DF9390E07B
:1004C000FC01E656FF4F24918A579F4FFC0184910F
:1004D0008823D1F090E0880F991FFC01E859FF4F65
:1004E000A591B491FC01EE58FF4FC591D4916111D3
:1004F0000EC09FB7F8948C91E22FE0958E238C93D9
:100500002881E223E8839FBFDF91CF9108958FB7C1
:10051000F894EC91E22BEC938FBFF6CF3FB7F894B1
:100520008091580290915902A0915A02B0915B02B9
:1005300026B5A89B05C02F3F19F00196A11DB11D3E
:100540003FBFBA2FA92F982F8827BC01CD01620F7A
:10055000711D811D911D42E0660F771F881F991F35
:100560004A95D1F708958F929F92AF92BF92CF9202
:10057000DF92EF92FF924B015C010E948E026B01B1
:100580007C010E948E026C197D098E099F09683ECC
:10059000734081059105A8F321E0821A9108A10812
:1005A000B10888EEC80E83E0D81EE11CF11C81144E
:1005B0009104A104B10429F7FF90EF90DF90CF9050
:1005C000BF90AF909F908F90089585ED8093BC0071
:1005D0008091BC0084FDFCCF1092620208952091AE
:1005E0001002260F3327331F21323105ECF42091FE
:1005F0006202FC0190E080E0243069F082E008951E
:10060000A09110022191AC0140515E4FA40FB52F73
:10061000B11D2C930196861798F380911002680FF4
:100620006093100280E0089581E008950895E091BC
:10063000660280916502E81730F4F0E0E053FE4F67
:10064000808190E008958FEF9FEF0895909166026A
:10065000809165022FEF3FEF981748F4E92FF0E003
:10066000E053FE4F208130E09F5F90936602C90106
:1006700008958091650290916602891B990B0895F7
:10068000CF92DF92EF92FF920F931F93CF93DF935E
:100690007C01CB018A012091CF01222389F0EB015B
:1006A0006B01C40ED51ECC15DD0569F06991D7012B
:1006B000ED91FC910190F081E02DC7010995F3CFF8
:1006C000642F0E94EF02C801DF91CF911F910F911B
:1006D000FF90EF90DF90CF900895CF93DF931F921C
:1006E000CDB7DEB769832091CF012223F9F02091A5
:1006F0006302203258F021E030E0FC013383228392
:1007000090E080E00F90DF91CF9108958091640296
:10071000E82FF0E0E155FE4F998190838F5F809341
:1007200064028093630281E090E0ECCF61E0CE014F
:1007300001960E94EF02F7CFCF93FC01C48121E024
:100740002093CF01C093AE01109264021092630215
:100750008385682B80E193E00E946D039091630292
:10076000913208F03FC0809162028111FCCF82E09B
:100770008093620281E0809361028FEF8093330265
:100780001092550290935402AFEAB1E0E4E3F2E034
:1007900080E098132FC01092560280915602CC0F21
:1007A000C82BC093560280916002813039F51092B7
:1007B0006002809156028093BB008091BC0083FD53
:1007C000F8CF85EC8093BC00809162028230E1F327
:1007D000809133028F3F31F080913302803211F0EB
:1007E0008091330210926402109263021092CF0142
:1007F000CF9108952D9121938F5FCBCF85EEE2CFDE
:10080000089590E080E008950F931F93CF938C019B
:10081000C62F0E949C036C2F6460C8010E949C0339
:100820006C2F6B7FC8010E949C0383EC90E00197C2
:10083000F1F7CF911F910F9108950F931F93CF93CD
:10084000DF938C01D62FC42F607F642B0E94040499
:1008500080E1D89FB00111246C2BC801DF91CF91AA
:100860001F910F910C94040440E061E08CE193E04F
:100870000E941D048BE39FE10197F1F70895CF9348
:10088000DF93CDB7DEB728970FB6F894DEBF0FBE63
:10089000CDBF98E0E0E0F1E0DE01119601900D920D
:1008A0009A95E1F790912503961708F46FEF262F9C
:1008B00030E0220F331F41E050E04C0F5D1F240F4A
:1008C000351FF9016081680F606840E08CE193E0BA
:1008D00028960FB6F894DEBF0FBECDBFDF91CF9143
:1008E0000C941D0441E00E941D0481E090E00895F5
:1008F000FB0101900020E9F73197AF01461B570B30
:10090000DC01ED91FC910280F381E02D099441E03E
:10091000682F8CE193E00E941D0468E371E08CE194
:1009200093E00E947804019608958F929F92AF926F
:10093000BF92EF92FF920F931F93CF93DF93CDB7A8
:10094000DEB7A1970FB6F894DEBF0FBECDBF7C0116
:10095000FA01CB0119A2223008F42AE08E010F5DC2
:100960001F4F822E912CB12CA12CBF01A501940107
:100970000E94C50AF901CA016A300CF5605DD80110
:100980006E938D01232B242B252B79F790E080E0AB
:10099000109721F0BD01C7010E947804A1960FB6FF
:1009A000F894DEBF0FBECDBFDF91CF911F910F91A5
:1009B000FF90EF90BF90AF909F908F900895695CEB
:1009C000DECFCF92DF92EF92FF920F931F93CF93E0
:1009D000DF93EC016B01770FEE08FF08F7FE25C0EF
:1009E000E881F9810190F081E02D6DE209958C019B
:1009F00044275527BA014C195D096E097F092AE081
:100A0000CE010E949504080F191F68E371E0CE0122
:100A10000E947804800F911FDF91CF911F910F9159
:100A2000FF90EF90DF90CF9008952AE0B701A601E4
:100A30000E9495048C01E9CFCF93DF93AB01BC01F9
:100A40002AE083E792E00E949504EC0168E371E0FC
:100A500083E792E00E9478048C0F9D1FDF91CF9175
:100A600008950F931F93CF93DF93EC010E947804B6
:100A70008C0168E371E0CE010E947804800F911F21
:100A8000DF91CF911F910F9108951F920F920FB692
:100A90000F9211242F933F934F935F936F937F9304
:100AA0008F939F93AF93BF93EF93FF9383E792E06E
:100AB0000E941B01FF91EF91BF91AF919F918F9188
:100AC0007F916F915F914F913F912F910F900FBE4A
:100AD0000F901F9018951F920F920FB60F9211242E
:100AE0002F938F939F93EF93FF93E0918302F09165
:100AF00084028081E0918902F0918A0282FD1BC00C
:100B0000908180918C028F5F8F7320918D0282176C
:100B100041F0E0918C02F0E0ED58FD4F958F80930D
:100B20008C02FF91EF919F918F912F910F900FBEAB
:100B30000F901F9018958081F4CF1F920F920FB6DF
:100B40000F9211242F933F938F939F93AF93BF9353
:100B50008091670290916802A0916902B0916A0247
:100B60003091570223E0230F2D3758F50196A11D30
:100B7000B11D209357028093670290936802A0935F
:100B80006902B0936A028091580290915902A09133
:100B90005A02B0915B020196A11DB11D80935802CB
:100BA00090935902A0935A02B0935B02BF91AF9108
:100BB0009F918F913F912F910F900FBE0F901F909B
:100BC000189526E8230F0296A11DB11DD2CF1F92C2
:100BD0000F920FB60F9211242F933F934F935F9371
:100BE0006F937F938F939F93AF93BF93EF93FF93F5
:100BF0008091B900887F803609F44AC0F0F58832C8
:100C000009F4A7C018F5803109F49BC0B8F4882313
:100C100009F4F9C0883009F494C0FF91EF91BF91B5
:100C2000AF919F918F917F916F915F914F913F9184
:100C30002F910F900FBE0F901F901895883109F4D7
:100C400088C0803251F78093330214C0803409F495
:100C50009DC040F48033B9F38833F9F680933302B2
:100C600085ECB0C0803509F485C0883509F496C09C
:100C7000883499F60E94E502D0CF883909F48CC0F7
:100C800038F5883729F050F4883611F0803729F686
:100C900083E0809362021092320257C0883809F4D0
:100CA0007BC0803919F0803809F0B7CF80913202CB
:100CB000803208F071C0E091320281E08E0F8093A3
:100CC00032028091BB00F0E0EE5EFD4F80833DC0BC
:100CD000803B39F0E0F4803A09F479C0883A09F0B1
:100CE0009CCF84E080936202109211021092100255
:100CF000E0915E02F0915F020995809110028111EE
:100D00000FC081E0809310021092F00109C0803C76
:100D100009F4A6CF883C09F4A3CF883B09F07DCF26
:100D2000E091110281E08E0F80931102F0E0E0511A
:100D3000FE4F80818093BB00909111028091100240
:100D400029C0809156028093BB0085EC8093BC0043
:100D500064CF9091550280915402981758F5E09114
:100D6000550281E08E0F80935502F0E0EC5CFD4F60
:100D70008081E9CFE091550281E08E0F809355028A
:100D80008091BB00F0E0EC5CFD4F808390915502B8
:100D9000809154029817C8F285E8D8CFE0915502A7
:100DA00081E08E0F809355028091BB00F0E0EC5CF7
:100DB000FD4F80838091610281115CCF81E080933F
:100DC000600284EA8093BC001092620226CF85EC18
:100DD0008093BC001092620280913202803230F423
:100DE000E0913202F0E0EE5EFD4F1082609132023F
:100DF00070E0E0915C02F0915D0282E192E0099581
:100E0000109232020ACF1092330234CFE3E7F2E0BD
:100E10001382128288EE93E0A0E0B0E08483958391
:100E2000A683B7832CE031E03183208325EC30E0CA
:100E30003587248724EC30E03787268720EC30E0A4
:100E4000318B208B21EC30E0338B228B22EC30E095
:100E5000358B248B26EC30E0378B268B118E128E4F
:100E6000138E148EE0E1F3E0138212828483958363
:100E7000A683B7838EE191E091838083ECE1F3E078
:100E80001382128280E391E09183808387E28483DE
:100E900080E1808782E08187128688E083870895D9
:100EA000CF93DF93CDB7DEB7A8970FB6F894DEBF28
:100EB0000FBECDBF789484B5826084BD84B5816057
:100EC00084BD85B5826085BD85B5816085BD809115
:100ED0006E00816080936E0010928100809181008D
:100EE0008260809381008091810081608093810085
:100EF000809180008160809380008091B100846047
:100F00008093B1008091B00081608093B0008091A7
:100F10007A00846080937A0080917A008260809366
:100F20007A0080917A00816080937A0080917A00C3
:100F3000806880937A001092C100E0918302F09162
:100F4000840282E08083E0917F02F091800210822F
:100F5000E0918102F09182028FEC808310928B02EB
:100F6000E0918702F091880286E08083E09185021B
:100F7000F0918602808180618083E0918502F0910A
:100F80008602808188608083E0918502F0918602EC
:100F9000808180688083E0918502F0918602808163
:100FA0008F7D808310926602109265021092640217
:100FB000109263021092620281E0809361021092AB
:100FC000600261E082E10E942F0261E083E10E9401
:100FD0002F028091B9008E7F8093B9008091B90073
:100FE0008D7F8093B90088E48093B80085E4809376
:100FF000BC008BE990E090935F0280935E028CE9E5
:1010000090E090935D0280935C02109221038091A6
:101010002503823018F098E09093210390912603E5
:10102000992339F0813029F48091210384608093E1
:10103000210362E370E080E090E00E94B3026091DF
:1010400027038CE193E00E949C0368EE73E080E04C
:1010500090E00E94B30260E38CE193E00E940404FC
:101060000BE416E4C8010197F1F760E38CE193E02B
:101070000E940404C8010197F1F760E38CE193E05A
:101080000E94040483E592E00197F1F760E28CE1AD
:1010900093E00E94040460912103606240E08CE1CF
:1010A00093E00E941D0484E08093220340E06CE002
:1010B0008CE193E00E941D040E94340482E080933E
:1010C000230340E066E08CE193E00E941D0440E0D1
:1010D00062E08CE193E00E941D048BE39FE10197A5
:1010E000F1F788E08093270360E08CE193E00E94B1
:1010F0009C0361E088E00E945D0261E088E00E945C
:101100002F029E012F5F3F4F79014E0139E2830E7E
:10111000911C93E2A92EB12C80E0282E80E0382E7D
:101120008FB7F8944090670250906802609069020F
:1011300070906A028FBFF70128E211922A95E9F7B1
:1011400061E082E00E945D0260E082E00E942F0286
:1011500064E170E080E090E00E94B30261E082E030
:101160000E942F0283E790E00197F1F760E082E0B0
:101170000E945D0240E060E570E082E090E00E9445
:10118000FC01892B11F541E060E570E082E090E020
:101190000E94FC01892BC9F4670140E062E370E022
:1011A00082E090E00E94FC018C01892B71F482E0C6
:1011B0000E94D301019709F0A7C0C5010197F1F77B
:1011C0000F5F1F4F0830110591F76BE971E083E75E
:1011D00092E00E9478044BC00A3551E0150709F4EB
:1011E00056C0023B81E018070CF04DC00E94340449
:1011F00060E471E083E792E00E943105B80183E783
:1012000092E00E94E10460E080E00E943F0464E418
:1012100071E08CE193E00E94780461E081E00E943B
:101220003F0462E671E08CE193E00E94780460E0A4
:1012300088E00E942F0268EE73E080E090E00E9458
:10124000B30261E08AE00E943F0468EB7BE080E04B
:1012500090E00E94B30261E088E00E942F021092A9
:101260006C0210926B0210926E0210926D022114A9
:10127000310409F455CF0E940701882309F44CCFAB
:101280000E94000049CF083092E0190774F5033B33
:10129000E1E01E0754F10E94340468E671E083E740
:1012A00092E00E943105B80183E792E00E94E104D8
:1012B00060E080E00E943F0464E471E08CE193E030
:1012C0000E94780461E081E00E943F046CE671E0D6
:1012D0008CE193E00E94780460E088E00E942F0295
:1012E00068EB7BE080E090E031C10E94340462E76B
:1012F00071E083E792E00E94310562E771E08CE1E2
:1013000093E00E94310528C181E0043011050CF4FE
:1013100080E0F60181936F01E815F90509F03DCFF2
:1013200040E062E370E082E090E00E94FC01892BE3
:1013300009F04BCFC7010E948C00082FCE010996FF
:101340000E948C00182FCE0141960E948C00D82E4E
:10135000CE0149960E948C00C82ECE0181960E9433
:101360008C00100F1D0DC10E8C112FCF0E94340464
:1013700060E080E00E943F046FE771E08CE193E061
:101380000E94310560E08CE00E943F046D2D70E00A
:101390008CE193E00E94E10460E08EE00E943F0453
:1013A0008FED0E94870460E08FE00E943F046CE8AC
:1013B00071E08CE193E00E94310561E080E00E94E1
:1013C0003F046EE871E08CE193E00E94310561E03A
:1013D0008CE00E943F04602F70E08CE193E00E945B
:1013E000E10461E08EE00E943F0469E971E08CE174
:1013F00093E00E94310561E08FE00E943F0485E2A6
:101400000E948704C301B2010E941C0560916F0213
:101410007091700280917102909172020E941C057D
:1014200060916D0270916E0283E792E00E94E10488
:1014300060ED77E080E090E00E94B30280916F025F
:1014400090917002A0917102B0917202A301920179
:10145000281B390B4A0B5B0BDA01C9018536910554
:10146000A105B10508F403CF40926F0250927002BB
:10147000609271027092720280916D0290916E0280
:10148000019690936E0280936D0280E480937C00BD
:1014900080917A00806480937A0080917A0086FD42
:1014A000FCCF90917800809179008927982789272F
:1014B00020916B0230916C02820F931F90936C020B
:1014C00080936B0260916D0270916E026A307105BB
:1014D0000CF4CDCE0E94B10A8B010E943404C301EA
:1014E000B2010E941C05053031E013070CF4FDCE5B
:1014F0000A3541E014070CF06FCE0E9434046BE310
:1015000071E083E792E00E943105B80183E792E041
:101510000E94E10460E080E00E943F0464E471E026
:101520008CE193E00E94780461E081E00E943F0436
:1015300065E571E08CE193E00E94780461E088E069
:101540000E942F0268EE73E080E090E00E94B302F8
:1015500061E08AE00E943F0468E873E180E090E087
:1015600078CE97FB072E16F4009407D077FD09D0AC
:101570000E94E70A07FC05D03EF4909581959F4FA5
:101580000895709561957F4F0895A1E21A2EAA1BC8
:10159000BB1BFD010DC0AA1FBB1FEE1FFF1FA21723
:1015A000B307E407F50720F0A21BB30BE40BF50B20
:1015B000661F771F881F991F1A9469F760957095A9
:1015C000809590959B01AC01BD01CF010895AA1BA8
:1015D000BB1B51E107C0AA1FBB1FA617B70710F01E
:1015E000A61BB70B881F991F5A95A9F78095909550
:1015F000BC01CD010895EE0FFF1F0590F491E02D81
:061600000994F894FFCFED
:101606000000400014005400000000003D019D0051
:10161600CA008A01FB00D900ED00000000006D033E
:1016260040030104160339032603170300000000D4
:1016360072049D00010400040D0A005665727920AB
:101646005765740057696C676F746E6F73632067B4
:101656006C65627900626172647A6F206D6F6B727D
:1016660061004D6F6B726100447279005375636857
:101676006100426C616420706F6D6961727500541F
:10168600656D70657261747572613A0043005769E1
:101696006C676F746E6F73633A20005265616420E5
:0E16A6004448543131206661696C65642E0041
:00000001FF
