:100000000C9463000C948B000C948B000C949D0753
:100010000C949D070C949D070C948B000C948B0002
:100020000C948B000C948B000C948B000C948B0024
:100030000C948B000C948B000C948B000C948B0014
:100040000C9453070C948B000C9421070C94FB0622
:100050000C948B000C948B000C948B000C948B00F4
:100060000C9415080C948B0000000000240027005D
:100070002A0000000008000201000003040700003D
:1000800000000000000000000000230026002900FE
:1000900000000000250028002B00040404040404D0
:1000A0000404020202020202030303030303010227
:1000B00004081020408001020408102001020408F6
:1000C00010204509CE0F11241FBECFEFD8E0DEBFB0
:1000D000CDBF23E0A0EEB1E001C01D92A73EB20764
:1000E000E1F711E0A0E0B1E0E4E1F9E202C005903F
:1000F0000D92A03EB107D9F710E0C2E6D0E004C0EF
:100100002197FE010E948512C136D107C9F70E94CE
:100110003D0A0C947D140C940000FC0147E050E073
:1001200080E02191042E01C0220F0A94EAF7820F89
:1001300041505109B0F7089508950895DB011496D0
:100140004D915C9115976D917C91DC01ED91FC9145
:100150000280F381E02D0994AF92BF92CF92DF929B
:10016000EF92FF920F931F93CF93DF936C017B016C
:100170008B01040F151FEB015E01AE18BF08C017FD
:10018000D10759F06991D601ED91FC910190F08170
:10019000E02DC6010995892B79F7C501DF91CF9133
:1001A0001F910F91FF90EF90DF90CF90BF90AF9095
:1001B0000895FC01538D448D252F30E0842F90E06D
:1001C000821B930B541710F0CF9608950197089552
:1001D000FC01918D828D981761F0A28DAE0FBF2F1B
:1001E000B11D5D968C91928D9F5F9F73928F90E071
:1001F00008958FEF9FEF0895FC01918D828D9817E0
:1002000031F0828DE80FF11D858D90E008958FEF1C
:100210009FEF0895FC01918D228D892F90E0805CE5
:100220009F4F821B91098F73992708958BEE92E05F
:100230000E940A0121E0892B09F420E0822F089511
:1002400080E090E0892B29F00E94160181110C9426
:1002500000000895FC01A48DA80FB92FB11DA35A69
:10026000BF4F2C91848D90E001968F739927848FD6
:10027000A689B7892C93A089B1898C9183708064F9
:100280008C93938D848D981306C00288F389E02D9A
:1002900080818F7D80830895EF92FF920F931F934B
:1002A000CF93DF93EC0181E0888F9B8D8C8D981329
:1002B0001AC0E889F989808185FF15C09FB7F89435
:1002C000EE89FF896083E889F98980818370806481
:1002D00080839FBF81E090E0DF91CF911F910F91CC
:1002E000FF90EF900895F62E0B8D10E00F5F1F4FDB
:1002F0000F731127E02E8C8D8E110CC00FB607FCEA
:10030000FACFE889F989808185FFF5CFCE010E9477
:100310002A01F1CFEB8DEC0FFD2FF11DE35AFF4FBA
:10032000F0829FB7F8940B8FEA89FB898081806205
:10033000CFCFCF93DF93EC01888D8823B9F0AA89C2
:10034000BB89E889F9898C9185FD03C0808186FD90
:100350000DC00FB607FCF7CF8C9185FFF2CF8081DF
:1003600085FFEDCFCE010E942A01E9CFDF91CF9129
:100370000895833081F028F4813099F08230A9F01B
:1003800008958730A9F08830C9F08430B1F48091A5
:1003900080008F7D03C0809180008F7780938000E4
:1003A000089584B58F7784BD089584B58F7DFBCF84
:1003B0008091B0008F778093B00008958091B00055
:1003C0008F7DF9CFCF93DF93282F30E0F901EE58DE
:1003D000FF4F8491F901E255FF4FD491F901E656A0
:1003E000FF4FC491CC23A1F081110E94B901EC2FE1
:1003F000F0E0EE0FFF1FEA57FF4FA591B491EC918B
:10040000ED2381E090E009F480E0DF91CF91089541
:1004100080E090E0FACFBF92CF92DF92EF92FF920E
:100420000F931F93CF93DF93B82ECB016AE070E058
:100430000E943B127B01D0E0C0E0042F10E083E279
:10044000C82ED12C8B2D0E94E2018017910799F4C0
:10045000C6010197F1F72196EC16FD069CF78FEF88
:100460009FEFDF91CF911F910F91FF90EF90DF9061
:10047000CF90BF90089590E080E0F3CF1F93CF938B
:10048000DF93282F30E0F901EE58FF4F8491F901F6
:10049000E255FF4FD491F901E656FF4FC491CC23AA
:1004A000A9F0162F81110E94B901EC2FF0E0EE0F98
:1004B000FF1FE057FF4FA591B4918FB7F894EC91CF
:1004C000111108C0D095DE23DC938FBFDF91CF914F
:1004D0001F910895DE2BF8CFCF93DF9390E0FC01BE
:1004E000E255FF4F249186569F4FFC01849188234B
:1004F000D1F090E0880F991FFC01E859FF4FA591BA
:10050000B491FC01E057FF4FC591D49161110EC029
:100510009FB7F8948C91E22FE0958E238C932881DD
:10052000E223E8839FBFDF91CF9108958FB7F894BE
:10053000EC91E22BEC938FBFF6CF3FB7F89480910C
:10054000CA029091CB02A091CC02B091CD0226B507
:10055000A89B05C02F3F19F00196A11DB11D3FBFFB
:10056000BA2FA92F982F8827BC01CD01620F711DCA
:10057000811D911D42E0660F771F881F991F4A95C4
:10058000D1F708958F929F92AF92BF92CF92DF9250
:10059000EF92FF924B015C010E949D026B017C0176
:1005A0000E949D026C197D098E099F09683E734067
:1005B00081059105A8F321E0821A9108A108B108EC
:1005C00088EEC80E83E0D81EE11CF11C8114910452
:1005D000A104B10429F7FF90EF90DF90CF90BF9076
:1005E000AF909F908F9008952091D0023091D102CA
:1005F0002817390771F49091CE028091CF02981795
:1006000041F0E091CE02F0E0E757FD4F808190E0AD
:1006100008958FEF9FEF08950895EF92FF920F9343
:100620001F93CF93DF93DC015C96ED90FC905D9778
:10063000E114F10479F481E090E013969C938E9399
:10064000129790E080E0DF91CF911F910F91FF9082
:10065000EF9008955196ED91FC91529750968C91A0
:100660005097982F90950FB75E962C915E97122F0A
:10067000127021FD6095F8942081112319F1282B27
:100680002083E7012197F1F728E0462F50E03081E1
:1006900060FF1AC0382B3083E7012197F1F7BA01C8
:1006A00075956795215089F7112381F08081892301
:1006B00080830FBF5C968D919C910197F1F781E04B
:1006C00090E0C1CF2923DCCF3923E5CF9081892B5E
:1006D000EFCF2091D0023091D1022817390771F461
:1006E0008091CF022091CE0290E0805C9F4F821BD0
:1006F000910960E470E00E943B12089590E080E070
:1007000008952091D0023091D10228173907B9F409
:100710009091CE028091CF02981789F0E091CE029D
:10072000F0E0E757FD4F80812091CE0230E02F5F4F
:100730003F4F2F7333272093CE0290E008958FEF21
:100740009FEF089585ED8093BC008091BC0084FDEF
:10075000FCCF1092D802089520914202260F332731
:10076000331F21323105ECF42091D802FC0190E0D6
:1007700080E0243069F082E00895A0914202219146
:10078000AC014E5D5D4FA40FB52FB11D2C930196AA
:10079000861798F380914202680F6093420280E0CE
:1007A000089581E00895E091DC028091DB02E81772
:1007B00030F4F0E0EE5FFD4F808190E008958FEF20
:1007C0009FEF08959091DC028091DB022FEF3FEFC5
:1007D000981748F4E92FF0E0EE5FFD4F208130E0FC
:1007E0009F5F9093DC02C90108958091DB02909194
:1007F000DC02891B990B0895CF92DF92EF92FF9252
:100800000F931F93CF93DF937C01CB018A0120913B
:100810000102222389F0EB016B01C40ED51ECC1519
:10082000DD0569F06991D701ED91FC910190F081AE
:10083000E02DC7010995F3CF642F0E94AC03C801D6
:10084000DF91CF911F910F91FF90EF90DF90CF90AC
:100850000895CF93DF931F92CDB7DEB769832091C0
:1008600001022223F9F02091D902203258F021E030
:1008700030E0FC013383228390E080E00F90DF9131
:10088000CF9108958091DA02E82FF0E0EF51FE4F0A
:10089000998190838F5F8093DA028093D90281E0FF
:1008A00090E0ECCF61E0CE0101960E94AC03F7CF5F
:1008B000CF93FC01C48121E020930102C093E001A9
:1008C0001092DA021092D9028385682B88E893E0AF
:1008D0000E9429049091D902913208F03FC0809182
:1008E000D8028111FCCF82E08093D80281E080930E
:1008F000D7028FEF80936502109287029093860251
:10090000A1EEB1E0E6E6F2E080E098132FC010928D
:10091000880280918802CC0FC82BC09388028091F6
:10092000D602813039F51092D602809188028093E8
:10093000BB008091BC0083FDF8CF85EC8093BC00A8
:100940008091D8028230E1F3809165028F3F31F0CF
:1009500080916502803211F0809165021092DA0276
:100960001092D90210920102CF9108952D912193F6
:100970008F5FCBCF85EEE2CF089590E080E00895C1
:100980000F931F93CF938C01C62F0E9458046C2F96
:100990006460C8010E9458046C2F6B7FC8010E94DC
:1009A000580483EC90E00197F1F7CF911F910F91DC
:1009B00008950F931F93CF93DF938C01D62FC42FED
:1009C000607F642B0E94C00480E1D89FB001112495
:1009D0006C2BC801DF91CF911F910F910C94C00433
:1009E00040E061E088EB93E00E94D9048BE39FE153
:1009F0000197F1F70895CF93DF93CDB7DEB728972E
:100A00000FB6F894DEBF0FBECDBF98E0E6E0F1E090
:100A1000DE01119601900D929A95E1F79091C10334
:100A2000961708F46FEF262F30E0220F331F41E0B6
:100A300050E04C0F5D1F240F351FF9016081680FD6
:100A4000606840E088EB93E028960FB6F894DEBF2C
:100A50000FBECDBFDF91CF910C94D90441E00E942D
:100A6000D90481E090E00895FB0101900020E9F7AE
:100A70003197AF01461B570BDC01ED91FC910280D1
:100A8000F381E02D099441E0682F88EB93E00E9408
:100A9000D90460E571E088EB93E00E94340501968B
:100AA00008958F929F92AF92BF92EF92FF920F9311
:100AB0001F93CF93DF93CDB7DEB7A1970FB6F8940E
:100AC000DEBF0FBECDBF7C01FA01CB0119A22230DF
:100AD00008F42AE08E010F5D1F4F822E912CB12C5D
:100AE000A12CBF01A50194010E944F12F901CA0176
:100AF0006A300CF5605DD8016E938D01232B242B99
:100B0000252B79F790E080E0109721F0BD01C70117
:100B10000E943405A1960FB6F894DEBF0FBECDBF7C
:100B2000DF91CF911F910F91FF90EF90BF90AF9009
:100B30009F908F900895695CDECFCF92DF92EF9205
:100B4000FF920F931F93CF93DF93EC016B01770F0D
:100B5000EE08FF08F7FE25C0E881F9810190F081D9
:100B6000E02D6DE209958C0144275527BA014C19F7
:100B70005D096E097F092AE0CE010E945105080F28
:100B8000191F60E571E0CE010E943405800F911FAE
:100B9000DF91CF911F910F91FF90EF90DF90CF9059
:100BA00008952AE0B701A6010E9451058C01E9CF02
:100BB000CF93DF93AB01BC012AE08BEE92E00E9461
:100BC0005105EC0160E571E08BEE92E00E94340586
:100BD0008C0F9D1FDF91CF9108950F931F93CF939B
:100BE000DF93EC010E9434058C0160E571E0CE01D9
:100BF0000E943405800F911FDF91CF911F910F91BB
:100C000008950F931F93CF93DF93EC010E949E00F2
:100C10008C0160E571E0CE010E943405800F911FC8
:100C2000DF91CF911F910F910895CF93DF93EC0146
:100C300088819981009711F00E94271319821882E8
:100C40001D821C821B821A82DF91CF9108950F931F
:100C50001F93CF93DF93EC0188819981009759F01E
:100C60002A813B812617370730F081E0DF91CF9151
:100C70001F910F9108958B016F5F7F4F0E94B013FA
:100C8000009759F0998388831B830A832C813D81C7
:100C9000232B59F7FC011082E8CF80E0E7CFEF92D9
:100CA000FF920F931F93CF93DF936115710541F46A
:100CB00080E0DF91CF911F910F91FF90EF90089509
:100CC00041155105B1F07B01EC010C811D81040F30
:100CD000151FB8010E942706882351F32881398106
:100CE0008C819D81B701820F931F0E9476141D8312
:100CF0000C8381E0DECFCF93DF93EC0141E050E045
:100D000063E571E00E944F06811103C0CE010E948D
:100D10001506CE01DF91CF910895EF92FF920F93C8
:100D20001F93CF93DF93CDB7DEB728970FB6F89414
:100D3000DEBF0FBECDBF7C01CB014AE08E010F5F4D
:100D40001F4FB8010E940510F80101900020E9F73B
:100D50003197AF01401B510BB801C7010E944F06EC
:100D6000811103C0C7010E941506C70128960FB65E
:100D7000F894DEBF0FBECDBFDF91CF911F910F91D1
:100D8000FF90EF900895EF92FF920F931F93CF93F0
:100D9000DF93EC017B018A01BA010E9427068111D1
:100DA0000BC0CE010E941506CE01DF91CF911F919D
:100DB0000F91FF90EF9008951D830C83B7018881F8
:100DC00099810E947614F0CFCF93DF93EC01FB0161
:100DD0008617970749F0608171816115710541F0AF
:100DE000448155810E94C306CE01DF91CF910895C1
:100DF0000E941506F9CF1F920F920FB60F92112481
:100E00002F933F934F935F936F937F938F939F9312
:100E1000AF93BF93EF93FF938BEE92E00E942A0172
:100E2000FF91EF91BF91AF919F918F917F916F91C2
:100E30005F914F913F912F910F900FBE0F901F9098
:100E400018951F920F920FB60F9211242F938F9324
:100E50009F93EF93FF93E091FB02F091FC0280815E
:100E6000E0910103F091020382FD1BC0908180910B
:100E700004038F5F8F7320910503821741F0E09187
:100E80000403F0E0E551FD4F958F80930403FF913B
:100E9000EF919F918F912F910F900FBE0F901F9008
:100EA00018958081F4CF1F920F920FB60F921124E4
:100EB0002F933F938F939F93AF93BF938091DD02C6
:100EC0009091DE02A091DF02B091E0023091C90260
:100ED00023E0230F2D3758F50196A11DB11D209356
:100EE000C9028093DD029093DE02A093DF02B093EB
:100EF000E0028091CA029091CB02A091CC02B09105
:100F0000CD020196A11DB11D8093CA029093CB0220
:100F1000A093CC02B093CD02BF91AF919F918F91DE
:100F20003F912F910F900FBE0F901F90189526E8BC
:100F3000230F0296A11DB11DD2CF1F920F920FB6A3
:100F40000F9211242F933F934F935F936F937F934F
:100F50008F939F93AF93BF93EF93FF93E091D00252
:100F6000F091D102309749F0A685B7858585968D99
:100F700091FF14C09C918923A1F4FF91EF91BF913F
:100F8000AF919F918F917F916F915F914F913F9121
:100F90002F910F900FBE0F901F9018959C91892351
:100FA00061F7A389B4899C918589809589238C9365
:100FB000868997890197F1F7608D718DA685B78530
:100FC000558538E020E0CB010197F1F7822F90E0C2
:100FD00095958795282F4C91452309F0206831502D
:100FE00091F7868D81FD20958091CF0290E001964A
:100FF0008F7399273091CE02381799F0A091CF02C4
:10100000B0E0A757BD4F2C938093CF02828D938D74
:101010000197F1F7A389B4898C919589892B8C93D9
:10102000ACCF868D8160868FF1CF1F920F920FB665
:101030000F9211242F933F934F935F936F937F935E
:101040008F939F93AF93BF93EF93FF938091B900DA
:10105000887F803609F44AC0F0F5883209F4A7C0C9
:1010600018F5803109F49BC0B8F4882309F4F9C05D
:10107000883009F494C0FF91EF91BF91AF919F9197
:101080008F917F916F915F914F913F912F910F9031
:101090000FBE0F901F901895883109F488C08032D8
:1010A00051F78093650214C0803409F49DC040F468
:1010B0008033B9F38833F9F68093650285ECB0C0CC
:1010C000803509F485C0883509F496C0883499F6CE
:1010D0000E94A203D0CF883909F48CC038F5883734
:1010E00029F050F4883611F0803729F683E0809398
:1010F000D8021092640257C0883809F47BC0803946
:1011000019F0803809F0B7CF80916402803208F07E
:1011100071C0E091640281E08E0F8093640280913F
:10112000BB00F0E0EC5BFD4F80833DC0803B39F0BD
:10113000E0F4803A09F479C0883A09F09CCF84E061
:101140008093D8021092430210924202E091D4029E
:10115000F091D50209958091420281110FC081E082
:10116000809342021092220209C0803C09F4A6CF6B
:10117000883C09F4A3CF883B09F07DCFE09143027E
:1011800081E08E0F80934302F0E0EE5DFD4F8081A1
:101190008093BB00909143028091420229C08091CC
:1011A00088028093BB0085EC8093BC0064CF909153
:1011B000870280918602981758F5E091870281E0B6
:1011C0008E0F80938702F0E0EA59FD4F8081E9CFCE
:1011D000E091870281E08E0F809387028091BB00AF
:1011E000F0E0EA59FD4F808390918702809186025A
:1011F0009817C8F285E8D8CFE091870281E08E0F7A
:10120000809387028091BB00F0E0EA59FD4F808314
:101210008091D70281115CCF81E08093D60284EA6D
:101220008093BC001092D80226CF85EC8093BC003E
:101230001092D80280916402803230F4E09164020E
:10124000F0E0EC5BFD4F10826091640270E0E09191
:10125000D202F091D30284E492E0099510926402E4
:101260000ACF1092650234CFFC01118210821382E2
:10127000128215821482FB0101900020E9F7319758
:10128000AF01461B570B0C94C3061092EE0210924E
:10129000ED0288EE93E0A0E0B0E08093EF0290933F
:1012A000F002A093F102B093F20222E131E0309318
:1012B000EC022093EB0225EC30E03093F80220930F
:1012C000F70224EC30E03093FA022093F90220EC8C
:1012D00030E03093FC022093FB0221EC30E03093AD
:1012E000FE022093FD0222EC30E0309300032093B5
:1012F000FF0226EC30E030930203209301031092AA
:101300000403109205031092060310920703109233
:101310008B0310928A0380938C0390938D03A09388
:101320008E03B0938F0324E231E03093890320933E
:1013300088031092C7031092C6038093C80390934A
:10134000C903A093CA03B093CB0382E491E09093C6
:10135000C5038093C4031092DB031092DA0310924A
:10136000DD031092DC031092DF031092DE03109273
:10137000E1031092E0036091E2036E7F6D7F609362
:10138000E2036695617081E0682784E00E943E0276
:1013900061E084E00E946C02E2EBF0E0E491E09313
:1013A000D403EEE9F0E0E491F0E0EE0FFF1FE05728
:1013B000FF4F859194919093D6038093D50360E07D
:1013C00083E00E946C028091E20381FD04C061E031
:1013D00083E00E943E0283E08093D003E1EBF0E0E3
:1013E000E491E093D103EDE9F0E0E491F0E0EE0F59
:1013F000FF1FEA57FF4F859194919093D3038093F9
:10140000D2031092BB031092BA0386E391E090934B
:10141000B9038093B80387E28093BC0380E1809393
:10142000C00382E08093C1031092C20388E08093DE
:10143000C30365E571E080EA93E00E9434096BE53F
:1014400071E086EA93E00E94340961E671E08CEA7B
:1014500093E00E9434096EE671E082EB93E00E9413
:10146000340962E571E08AE993E00E94340962E59B
:1014700071E084E993E00C943409CF93DF93CDB706
:10148000DEB7E0970FB6F894DEBF0FBECDBF7894FD
:1014900084B5826084BD84B5816084BD85B5826079
:1014A00085BD85B5816085BD80916E00816080932A
:1014B0006E00109281008091810082608093810093
:1014C00080918100816080938100809180008160A3
:1014D000809380008091B10084608093B1008091FE
:1014E000B00081608093B00080917A008460809326
:1014F0007A0080917A00826080937A0080917A00ED
:10150000816080937A0080917A00806880937A006D
:101510001092C100E091FB02F091FC0282E0808316
:10152000E091F702F091F8021082E091F902F09157
:10153000FA028FEC808310920303E091FF02F09196
:10154000000386E08083E091FD02F091FE0280813D
:1015500080618083E091FD02F091FE0280818860CD
:101560008083E091FD02F091FE028081806880839B
:10157000E091FD02F091FE0280818F7D80831092C8
:10158000DF031092DE031092DD031092DC03109251
:10159000DB031092DA038DE991E09093E1038093ED
:1015A000E0039091D003963108F047C02DEB30E076
:1015B0003093DB032093DA032BE931E03093DD0332
:1015C0002093DC032CE231E03093DF032093DE0331
:1015D0002091680084E0983048F031E09E3008F4B3
:1015E00030E081E001C0880F3A95EAF7822B8093C2
:1015F00068002DE630E0983050F02BE630E09E3069
:1016000030F02CE630E0963110F030E020E03093FE
:10161000D8032093D703292F30E0983008F052C127
:1016200081E001C0880F9A95EAF78093D9038091F1
:10163000E0039091E1030197F1F78091DE0390912F
:10164000DF03892B49F1E091D002F091D10223E030
:10165000E43CF20709F1309739F0A389B4899C91F1
:101660008589809589238C938091E2038E7F809376
:10167000E2031092CF021092CE0284EC93E090939A
:10168000D1028093D002E091D703F091D8038081FA
:101690009091D903892B80831092DC021092DB0297
:1016A0001092DA021092D9021092D80281E080934F
:1016B000D7021092D60261E082E10E943E0261E010
:1016C00083E10E943E028091B9008E7F8093B90031
:1016D0008091B9008D7F8093B90088E48093B80031
:1016E00085E48093BC008CE990E09093D5028093D0
:1016F000D4028DE990E09093D3028093D2021092AD
:10170000BD038091C103823018F098E09093BD032F
:101710009091C203992339F0813029F48091BD035F
:1017200084608093BD0362E370E080E090E00E94FB
:10173000C2026091C30388EB93E00E94580468EEF4
:1017400073E080E090E00E94C20260E388EB93E0E7
:101750000E94C0040BE416E4C8010197F1F760E3AE
:1017600088EB93E00E94C004C8010197F1F760E3A1
:1017700088EB93E00E94C00483E592E00197F1F7C3
:1017800060E288EB93E00E94C0046091BD03606258
:1017900040E088EB93E00E94D90484E08093BE038C
:1017A00040E06CE088EB93E00E94D9040E94F004D2
:1017B00082E08093BF0340E066E088EB93E00E9404
:1017C000D90440E062E088EB93E00E94D9048BE307
:1017D0009FE10197F1F788E08093C30360E088EB15
:1017E00093E00E94580461E088E00E946C0261E08E
:1017F00088E00E943E028E010F5F1F4FAE01475DE1
:101800005F4F5AA749A78FB7F8944090DD025090D8
:10181000DE026090DF027090E0028FBF88E2D801A4
:101820001D928A95E9F761E082E00E946C0260E017
:1018300082E00E943E0264E170E080E090E00E945D
:10184000C20261E082E00E943E0283E790E00197DD
:10185000F1F760E082E00E946C0240E060E570E039
:1018600082E090E00E940B02892B29F541E060E5BF
:1018700070E082E090E00E940B02892BE1F4780195
:1018800040E062E370E082E090E00E940B026C01B5
:10189000892B89F482E00E94E201019709F086C158
:1018A00083E290E00197F1F7BFEFCB1ADB0AE8E0A3
:1018B000CE16D10479F76CEC71E08BEE92E00E94C9
:1018C000340506C19E3040F42850310981E001C042
:1018D000880F2A95EAF7A9CE2E503109F7CFA70134
:1018E00096015F772DA73EA74FA758AB2FEF3FEF8D
:1018F0004FE75FE76DA57EA58FA598A90E943612D8
:1019000081110FC02FEF3FEF4FE75FE76DA57EA579
:101910008FA598A90E943A1018161CF46FE771E081
:1019200012C22FEF3FEF4FE75FE4C701B6010E94FD
:10193000311218161CF463E871E005C22FEF3FEF77
:101940004FE75FECC701B6010E943A1087FDF3CF65
:1019500020E030E0A901C701B6010E943A1087FFDC
:101960000BC06DE28BEE92E00E944C0146015701E4
:10197000B7FAB094B7F8B0942AE037ED43EA5BE3E6
:10198000C501B4010E9496114B015C010E94021234
:101990006B017C010E943F109B01AC01C501B401A9
:1019A0000E9495114B015C012AE0B701A6018BEE64
:1019B00092E00E9451056EE28BEE92E00E944C0193
:1019C00020E030E040E251E4C501B4010E94A010E3
:1019D0004B015C010E9402126B01F12CE12C2AE008
:1019E000B701A6018BEE92E00E945105C701B60136
:1019F0000E943F109B01AC01C501B4010E949511EA
:101A000020E030E040E251E40E94A0100E94021267
:101A1000AB0170E060E02AE08BEE92E00E9451059D
:101A200096C18AE5E81681E0F80609F463C092EBF6
:101A3000E91691E0F9060CF058C00E94F004A1E00C
:101A4000B0E0B093E402A093E30266EA73E08BEEA9
:101A500092E00E940106B7018BEE92E00E949D0584
:101A600060E080E00E94FB0467E871E088EB93E0AF
:101A70000E94340561E081E00E94FB048091E30252
:101A80009091E40226E0289FB001299F700D112457
:101A900060567C4F88EB93E00E949E0060E088E0F7
:101AA0000E943E0260E177E280E090E00E94C20284
:101AB00061E08AE00E94FB0461E088E00E943E024F
:101AC0001092E2021092E1021092E6021092E502F8
:101AD00080E090E0892B09F496CE0E9416018823BD
:101AE00009F491CE0E9400008ECEB8E0EB16B2E071
:101AF000FB06ECF5E3EBEE16E1E0FE06C4F10E9416
:101B0000F0041092E4021092E30260EA73E08BEEBC
:101B100092E00E940106B7018BEE92E00E949D05C3
:101B200060E080E00E94FB0467E871E088EB93E0EE
:101B30000E94340561E081E00E94FB048091E30291
:101B40009091E40226E0289FB001299F700D112496
:101B500060567C4F88EB93E00E949E0060E088E036
:101B60000E943E0260E27EE480E090E09FCF24E0AD
:101B700030E03093E4022093E3020E94F00468EB2B
:101B800073E08BEE92E00E9401068091E302909157
:101B9000E40226E0289FB001299F700D11246056B1
:101BA0007C4F88EB93E00E940106F1C181E034E0B4
:101BB000C316D1040CF480E0D7018D937D01E9A513
:101BC000FAA5AE17BF0709F05BCE40E062E370E014
:101BD00082E090E00E940B02892B09F06CCEC801D4
:101BE0000E948D00282ECE0109960E948D00F82EAD
:101BF000CE0141960E948D00E82ECE0149960E94AA
:101C00008D00D82ECE0181960E948D00F20CFE0C24
:101C1000DF0C8D1150CE0E94F00460E080E00E9445
:101C2000FB0468E971E088EB93E00E94ED0560E059
:101C30008CE00E94FB042E2D30E03CA72BA7B901BD
:101C400088EB93E00E949D0560E08EE00E94FB041B
:101C50008FED0E94430560E08FE00E94FB0465EA7F
:101C600071E088EB93E00E94ED0561E080E00E9466
:101C7000FB0467EA71E088EB93E00E94ED0561E008
:101C80008CE00E94FB04312CB10188EB93E00E94B0
:101C90009D0561E08EE00E94FB0462EB71E088EB41
:101CA00093E00E94ED0561E08FE00E94FB0485E275
:101CB0000E94430564EB71E08BEE92E00E94ED051B
:101CC000C301B2010E94D8056091E7027091E80259
:101CD0008091E9029091EA020E94D8056091E502A4
:101CE0007091E6028BEE92E00E949D058091E302E6
:101CF0009091E40226E0289FB001299F700D1124E5
:101D000060567C4F8BEE92E00E9401068091E102CA
:101D10009091E2026091E5027091E6020E943B120E
:101D2000072E000C880B990B0E9441106B017C015F
:101D30004B015C01AC019B010E943612882309F41F
:101D4000CECD6BE771E08BEE92E00E94340560E54A
:101D500071E08BEE92E00E94340560ED77E080E068
:101D600090E00E94C2020E94F00460E080E00E94C5
:101D7000FB0467E871E088EB93E00E94340561E0C2
:101D800081E00E94FB048091E3029091E40226E04E
:101D9000F22EF89EB001F99E700D112460567C4F12
:101DA00088EB93E00E949E008091E3029091E40210
:101DB000F89EB001F99E700D112460567C4F84E9A5
:101DC00093E00E94E4061A8219821C821B821E8202
:101DD0001D826AE973E0C8010E94E4066BA57CA538
:101DE000C8010E948D060E947B06B1010E948D06EB
:101DF0000E947B067C014091980350919903609169
:101E00009403709195030E944F06811103C0C7018E
:101E10000E941506B7018AE993E00E94E4068981D1
:101E20009A810E9427136AE973E084EC93E00E9490
:101E3000010660ED77E080E090E00E94C20250E091
:101E400040E062E571E08AE993E00E94C306809178
:101E5000E7029091E802A091E902B091EA02A301A1
:101E60009201281B390B4A0B5B0BDA01C901813C3B
:101E70009742A940B10508F42BCE4092E702509258
:101E8000E8026092E9027092EA028091E502909184
:101E9000E60201969093E6028093E50280E4809347
:101EA0007C0080917A00806480937A0080917A002F
:101EB00086FDFCCF90917800809179008927982742
:101EC00089272091E1023091E202820F931F9093C3
:101ED000E2028093E1026091E5027091E6026630D1
:101EE00071050CF4F5CD0E943B127B010E94F004B9
:101EF000C301B2010E94D80545E0E41641E0F406B2
:101F00000CF435CE5AE5E51651E0F5060CF089CD16
:101F10000E94F00482E090E09093E4028093E30258
:101F20006CEA73E08BEE92E00E940106B7018BEE43
:101F300092E00E949D0560E080E00E94FB0467E85B
:101F400071E088EB93E00E94340561E081E00E943B
:101F5000FB048091E3029091E40226E0289FB00107
:101F6000299F700D112460567C4F88EB93E00E94EE
:101F70009E0061E088E00E943E0268EE73E080E02F
:101F800090E00E94C20261E08AE00E94FB0468E8DF
:101F900073E180E090E00E94C2028ECDCF93DF9388
:101FA00080919403909195030E94271380919A0346
:101FB00090919B030E942713C8EBD3E0269788815A
:101FC00099810E94271323E0C03AD207B9F782E42F
:101FD00091E09093C5038093C4038091D0029091C7
:101FE000D102845C934071F4E091D703F091D8035F
:101FF00090818091D9038095892380831092D102AA
:102000001092D002DF91CF910895BB274A3031F46E
:10201000992322F4BDE2909581959F4F0C94111065
:10202000BB27FB015527AA27880F991FAA1FA417B2
:1020300010F0A41B83955051B9F7A05DAA3308F0A6
:10204000A95DA193009779F7B111B1931192CB01DA
:102050000C942A10DC01FC01672F71917723E1F7C2
:10206000329704C07C916D9370836291AE17BF0765
:10207000C8F308950E947C1008F481E00895E89464
:1020800009C097FB3EF490958095709561957F4FC0
:102090008F4F9F4F9923A9F0F92F96E9BB2793956E
:1020A000F695879577956795B795F111F8CFFAF47E
:1020B000BB0F11F460FF1BC06F5F7F4F8F4F9F4FAF
:1020C00016C0882311F096E911C0772321F09EE80D
:1020D000872F762F05C0662371F096E8862F70E073
:1020E00060E02AF09A95660F771F881FDAF7880F4D
:1020F0009695879597F90895990F0008550FAA0BA3
:10210000E0E8FEEF16161706E807F907C0F012160A
:102110001306E407F50798F0621B730B840B950B0D
:1021200039F40A2661F0232B242B252B21F4089562
:102130000A2609F4A140A6958FEF811D811D0895FF
:102140000E94B3100C9424110E94161138F00E94C2
:102150001D1120F0952311F00C940D110C94131106
:1021600011240C9458110E94351170F3959FC1F3FE
:10217000950F50E0551F629FF001729FBB27F00D35
:10218000B11D639FAA27F00DB11DAA1F649F66278A
:10219000B00DA11D661F829F2227B00DA11D621FD9
:1021A000739FB00DA11D621F839FA00D611D221F93
:1021B000749F3327A00D611D231F849F600D211D77
:1021C000822F762F6A2F11249F5750409AF0F1F0FA
:1021D00088234AF0EE0FFF1FBB1F661F771F881F63
:1021E00091505040A9F79E3F510580F00C940D117D
:1021F0000C9458115F3FE4F3983ED4F3869577959D
:102200006795B795F795E7959F5FC1F7FE2B880F08
:10221000911D9695879597F9089597F99F6780E89E
:1022200070E060E008959FEF80EC089500240A9428
:102230001616170618060906089500240A941216A1
:102240001306140605060895092E0394000C11F4D4
:10225000882352F0BB0F40F4BF2B11F460FF04C081
:102260006F5F7F4F8F4F9F4F089557FD9058440FDA
:10227000551F59F05F3F71F04795880F97FB991FE5
:1022800061F09F3F79F087950895121613061406A2
:10229000551FF2CF4695F1DF08C01616170618062F
:1022A000991FF1CF86957105610508940895E8940A
:1022B000BB2766277727CB0197F908952F923F9286
:1022C0004F925F926F927F928F929F92AF92BF9246
:1022D000CF92DF92EF92FF920F931F93CF93DF93F2
:1022E000CDB7DEB7CA1BDB0B0FB6F894DEBF0FBE4F
:1022F000CDBF09942A88398848885F846E847D849C
:102300008C849B84AA84B984C884DF80EE80FD809D
:102310000C811B81AA81B981CE0FD11D0FB6F89413
:10232000DEBF0FBECDBFED0108955058BB27AA27D1
:102330000E94AD110C9424110E94161138F00E94D5
:102340001D1120F039F49F3F19F426F40C94131159
:102350000EF4E095E7FB0C940D11E92F0E94351166
:1023600058F3BA17620773078407950720F079F4CA
:10237000A6F50C9457110EF4E0950B2EBA2FA02D54
:102380000B01B90190010C01CA01A0011124FF2722
:10239000591B99F0593F50F4503E68F11A16F0401D
:1023A000A22F232F342F4427585FF3CF469537951C
:1023B0002795A795F0405395C9F77EF41F16BA0BE1
:1023C000620B730B840BBAF09150A1F0FF0FBB1F8F
:1023D000661F771F881FC2F70EC0BA0F621F731FD8
:1023E000841F48F4879577956795B795F7959E3F35
:1023F00008F0B0CF9395880F08F09927EE0F9795C6
:10240000879508950E943D1188F09F5798F0B92F45
:102410009927B751B0F0E1F0660F771F881F991F19
:102420001AF0BA95C9F714C0B13091F00E94571153
:10243000B1E008950C945711672F782F8827B85F63
:1024400039F0B93FCCF3869577956795B395D9F771
:102450003EF490958095709561957F4F8F4F9F4F7B
:1024600008950E947C1008F48FEF08950E947C105C
:10247000880B990B089597FB072E16F4009407D04C
:1024800077FD09D00E94711207FC05D03EF49095AB
:1024900081959F4F0895709561957F4F0895A1E2B2
:1024A0001A2EAA1BBB1BFD010DC0AA1FBB1FEE1FCE
:1024B000FF1FA217B307E407F50720F0A21BB30B19
:1024C000E40BF50B661F771F881F991F1A9469F795
:1024D00060957095809590959B01AC01BD01CF01F1
:1024E0000895AA1BBB1B51E107C0AA1FBB1FA6175B
:1024F000B70710F0A61BB70B881F991F5A95A9F7AD
:1025000080959095BC01CD010895EE0FFF1F0590B9
:10251000F491E02D09940F931F93CF93DF938230B2
:10252000910510F482E090E0E091E503F091E6037C
:1025300030E020E0B0E0A0E0309799F421153105BB
:1025400009F44AC0281B390B24303105D8F58A819B
:102550009B816115710589F1FB0193838283FE01E3
:1025600011C0408151810281138148175907E0F061
:102570004817590799F4109761F012960C93129727
:1025800013961C933296CF01DF91CF911F910F913B
:1025900008950093E5031093E603F4CF2115310568
:1025A00051F04217530738F0A901DB019A01BD0130
:1025B000DF01F801C1CFEF01F9CF9093E6038093DB
:1025C000E503CDCFFE01E20FF31F819391932250DB
:1025D000310939832883D7CF2091E3033091E40375
:1025E000232B41F420910201309103013093E40345
:1025F0002093E30320910001309101012115310561
:1026000041F42DB73EB74091040150910501241BC0
:10261000350BE091E303F091E403E217F307A0F434
:102620002E1B3F0B2817390778F0AC014E5F5F4F28
:102630002417350748F04E0F5F1F5093E403409373
:10264000E303819391939FCFF0E0E0E09CCFCF93A1
:10265000DF930097E9F0FC01329713821282A09178
:10266000E503B091E603ED0130E020E01097A1F41E
:1026700020813181820F931F2091E3033091E40385
:102680002817390709F061C0F093E403E093E303EE
:10269000DF91CF910895EA01CE17DF07E8F54A816F
:1026A0005B819E0141155105B1F7E901FB83EA8386
:1026B00049915991C40FD51FEC17FD0761F4808132
:1026C00091810296840F951FE90199838883828105
:1026D00093819B838A83F0E0E0E012968D919C9138
:1026E00013970097B9F52D913C911197CD01029662
:1026F000820F931F2091E3033091E40328173907D9
:1027000039F6309751F51092E6031092E503B09335
:10271000E403A093E303BCCFD383C2834081518100
:10272000840F951FC817D90761F44E5F5F4F8881EA
:102730009981480F591F518340838A819B819383DC
:1027400082832115310509F0B0CFF093E603E093C1
:10275000E5039ECFFD01DC01C0CF13821282D7CFEB
:10276000B0E0A0E0E6EBF3E10C9460118C0100977F
:1027700051F4CB010E948B128C01C801CDB7DEB79A
:10278000E0E10C947C11FC01E60FF71F9C01225044
:102790003109E217F30708F49DC0D901CD91DC910E
:1027A0001197C617D70798F0C530D10530F3CE0181
:1027B00004978617970708F3C61BD70B2297C19378
:1027C000D1936D937C93CF010E942713D6CF5B01E9
:1027D000AC1ABD0A4C018C0E9D1EA091E503B09170
:1027E000E603512C412CF12CE12C109731F580910E
:1027F000E3039091E4038815990509F05CC046163F
:10280000570608F058C0809100019091010100978F
:1028100041F48DB79EB74091040150910501841B8E
:10282000950BE817F90708F055C0F093E403E0931F
:10283000E303F90171836083A0CF8D919C9111977F
:1028400012966C90129713967C901397A815B90561
:1028500059F56C0142E0C40ED11CCA14DB0420F10E
:10286000AC014A195B09DA011296159780F0628271
:10287000738251834083D9016D937C93E114F104F9
:1028800071F0D7011396FC93EE93129776CF2296B0
:102890008C0F9D1FF90191838083F301EFCFF0939B
:1028A000E603E093E50369CF4816590608F42C01C6
:1028B0007D01D3019ACFCB010E948B127C0100973E
:1028C00049F0AE01B8010E946D14C8010E9427139F
:1028D000870153CF10E000E050CFFB01DC0102C0C4
:1028E00001900D9241505040D8F70895FB01DC0152
:1028F00001900D920020E1F7089510E0C2E6D0E0CB
:1029000004C0FE010E9485122196C336D107C9F783
:04291000F894FFCF69
:102914000000E703800000004000140054000000A1
:1029240000004C01AC00D90099010A01E800FC0048
:10293400000000002904FC03BD040C03F503E203BA
:10294400D303000000002E05AC00BD04BC0400004D
:1029540000000D03AC00BD040C0369038103F40201
:102964000D0A002C00537563686F004D6F6B726124
:1029740000426172647A6F206D6F6B726100626CE9
:10298400616420706F6D69617275006E616E0069BB
:102994006E66006F76660057696C676F746E6F734E
:1029A4006320676C6562790054656D70657261744B
:1029B4007572613A00430057696C676F746E6F7388
:1029C400633A20002D2D2D2D2D2D2D2D2D2D2D2D2A
:1029D4002D2D2D2D2D2D2D2D2D2D2D005265616488
:1029E400204448543131206661696C65642E0000CE
:00000001FF
