:100000000C9463000C948B000C948B000C942807C8
:100010000C9428070C9428070C948B000C948B00EC
:100020000C948B000C948B000C948B000C948B0024
:100030000C948B000C948B000C948B000C948B0014
:100040000C94DE060C948B000C94AC060C94860683
:100050000C948B000C948B000C948B000C948B00F4
:100060000C94A0070C948B000000000024002700D3
:100070002A0000000008000201000003040700003D
:1000800000000000000000000000230026002900FE
:1000900000000000250028002B00040404040404D0
:1000A0000404020202020202030303030303010227
:1000B00004081020408001020408102001020408F6
:1000C0001020D008BB0E11241FBECFEFD8E0DEBF3A
:1000D000CDBF23E0AAEDB1E001C01D92A13EB20761
:1000E000E1F711E0A0E0B1E0EEEEF6E202C005902B
:1000F0000D92AA3DB107D9F710E0C2E6D0E004C0E6
:100100002197FE010E947211C136D107C9F70E94E2
:10011000C7090C946A130C94000008950895DB013C
:1001200014964D915C9115976D917C91DC01ED9148
:10013000FC910280F381E02D0994AF92BF92CF929F
:10014000DF92EF92FF920F931F93CF93DF936C0197
:100150007B018B01040F151FEB015E01AE18BF0878
:10016000C017D10759F06991D601ED91FC9101902A
:10017000F081E02DC6010995892B79F7C501DF9142
:10018000CF911F910F91FF90EF90DF90CF90BF9094
:10019000AF900895FC01538D448D252F30E0842FBE
:1001A00090E0821B930B541710F0CF96089501979F
:1001B0000895FC01918D828D981761F0A28DAE0F8C
:1001C000BF2FB11D5D968C91928D9F5F9F73928F13
:1001D00090E008958FEF9FEF0895FC01918D828D3F
:1001E000981731F0828DE80FF11D858D90E008950C
:1001F0008FEF9FEF0895FC01918D228D892F90E064
:10020000805C9F4F821B91098F739927089585EE1B
:1002100092E00E94FB0021E0892B09F420E0822F6C
:10022000089580E090E0892B29F00E940701811158
:100230000C9400000895FC01A48DA80FB92FB11DE6
:10024000A35ABF4F2C91848D90E001968F7399270C
:10025000848FA689B7892C93A089B1898C918370EA
:1002600080648C93938D848D981306C00288F389E3
:10027000E02D80818F7D80830895EF92FF920F9310
:100280001F93CF93DF93EC0181E0888F9B8D8C8D42
:1002900098131AC0E889F989808185FF15C09FB736
:1002A000F894EE89FF896083E889F98980818370F9
:1002B000806480839FBF81E090E0DF91CF911F91A8
:1002C0000F91FF90EF900895F62E0B8D10E00F5FC9
:1002D0001F4F0F731127E02E8C8D8E110CC00FB69F
:1002E00007FCFACFE889F989808185FFF5CFCE0137
:1002F0000E941B01F1CFEB8DEC0FFD2FF11DE35A96
:10030000FF4FF0829FB7F8940B8FEA89FB898081B9
:100310008062CFCFCF93DF93EC01888D8823B9F033
:10032000AA89BB89E889F9898C9185FD03C0808100
:1003300086FD0DC00FB607FCF7CF8C9185FFF2CF7D
:10034000808185FFEDCFCE010E941B01E9CFDF91B7
:10035000CF91089590E0FC01EE58FF4F2491FC01ED
:10036000E255FF4F3491FC01E656FF4FE491EE2336
:10037000C9F0222339F0233001F1A8F4213019F11A
:10038000223029F1F0E0EE0FFF1FE057FF4FA5915B
:10039000B4918FB7F894EC91611126C030953E234B
:1003A0003C938FBF08952730A9F02830C9F024303E
:1003B00049F7809180008F7D03C0809180008F7706
:1003C00080938000DFCF84B58F7784BDDBCF84B589
:1003D0008F7DFBCF8091B0008F778093B000D2CF1C
:1003E0008091B0008F7DF9CF3E2BDACFCF93DF9392
:1003F00090E0FC01E255FF4F249186569F4FFC018F
:1004000084918823D1F090E0880F991FFC01E8596E
:10041000FF4FA591B491FC01E057FF4FC591D491D6
:1004200061110EC09FB7F8948C91E22FE0958E2356
:100430008C932881E223E8839FBFDF91CF910895B9
:100440008FB7F894EC91E22BEC938FBFF6CF3FB7C8
:10045000F8948091C4029091C502A091C602B09117
:10046000C70226B5A89B05C02F3F19F00196A11D14
:10047000B11D3FBFBA2FA92F982F8827BC01CD01EE
:10048000620F711D811D911D42E0660F771F881F4D
:10049000991F4A95D1F708958F929F92AF92BF927C
:1004A000CF92DF92EF92FF924B015C010E942702F4
:1004B0006B017C010E9427026C197D098E099F093E
:1004C000683E734081059105A8F321E0821A9108E6
:1004D000A108B10888EEC80E83E0D81EE11CF11C0B
:1004E00081149104A104B10429F7FF90EF90DF90EB
:1004F000CF90BF90AF909F908F9008952091CA02A7
:100500003091CB022817390771F49091C80280917D
:10051000C902981741F0E091C802F0E0ED57FD4F95
:10052000808190E008958FEF9FEF08950895EF92F6
:10053000FF920F931F93CF93DF93DC015C96ED90B6
:10054000FC905D97E114F10479F481E090E013965A
:100550009C938E93129790E080E0DF91CF911F9152
:100560000F91FF90EF9008955196ED91FC91529765
:1005700050968C915097982F90950FB75E962C912E
:100580005E97122F127021FD6095F894208111233F
:1005900019F1282B2083E7012197F1F728E0462F56
:1005A00050E0308160FF1AC0382B3083E70121977B
:1005B000F1F7BA0175956795215089F7112381F0FC
:1005C0008081892380830FBF5C968D919C910197D8
:1005D000F1F781E090E0C1CF2923DCCF3923E5CFCB
:1005E0009081892BEFCF2091CA023091CB0228173E
:1005F000390771F48091C9022091C80290E0805CB3
:100600009F4F821B910960E470E00E9428110895B9
:1006100090E080E008952091CA023091CB02281723
:100620003907B9F49091C8028091C902981789F0EE
:10063000E091C802F0E0ED57FD4F80812091C802A3
:1006400030E02F5F3F4F2F7333272093C80290E095
:1006500008958FEF9FEF089585ED8093BC00809102
:10066000BC0084FDFCCF1092D202089520913C0280
:10067000260F3327331F21323105ECF42091D202AB
:10068000FC0190E080E0243069F082E00895A091C0
:100690003C022191AC01445E5D4FA40FB52FB11D0A
:1006A0002C930196861798F380913C02680F609313
:1006B0003C0280E0089581E00895E091D6028091A7
:1006C000D502E81730F4F0E0E450FE4F808190E06E
:1006D00008958FEF9FEF08959091D6028091D502F3
:1006E0002FEF3FEF981748F4E92FF0E0E450FE4F6A
:1006F000208130E09F5F9093D602C90108958091D8
:10070000D5029091D602891B990B0895CF92DF9262
:10071000EF92FF920F931F93CF93DF937C01CB0156
:100720008A012091FB01222389F0EB016B01C40EA9
:10073000D51ECC15DD0569F06991D701ED91FC91CD
:100740000190F081E02DC7010995F3CF642F0E943D
:100750003603C801DF91CF911F910F91FF90EF9069
:10076000DF90CF900895CF93DF931F92CDB7DEB780
:1007700069832091FB012223F9F02091D3022032DA
:1007800058F021E030E0FC013383228390E080E0E8
:100790000F90DF91CF9108958091D402E82FF0E07F
:1007A000E552FE4F998190838F5F8093D4028093AE
:1007B000D30281E090E0ECCF61E0CE0101960E948F
:1007C0003603F7CFCF93FC01C48121E02093FB01D6
:1007D000C093DA011092D4021092D3028385682B61
:1007E00082E893E00E94B3039091D302913208F023
:1007F0003FC08091D2028111FCCF82E08093D2026F
:1008000081E08093D1028FEF80935F02109281028A
:1008100090938002ABEDB1E0E0E6F2E080E0981367
:100820002FC01092820280918202CC0FC82BC093FD
:1008300082028091D002813039F51092D0028091ED
:1008400082028093BB008091BC0083FDF8CF85ECD1
:100850008093BC008091D2028230E1F380915F02EC
:100860008F3F31F080915F02803211F080915F0202
:100870001092D4021092D3021092FB01CF910895EE
:100880002D9121938F5FCBCF85EEE2CF089590E03D
:1008900080E008950F931F93CF938C01C62F0E9481
:1008A000E2036C2F6460C8010E94E2036C2F6B7F2F
:1008B000C8010E94E20383EC90E00197F1F7CF9129
:1008C0001F910F9108950F931F93CF93DF938C0186
:1008D000D62FC42F607F642B0E944A0480E1D89FEA
:1008E000B00111246C2BC801DF91CF911F910F91A2
:1008F0000C944A0440E061E082EB93E00E946304C0
:100900008BE39FE10197F1F70895CF93DF93CDB784
:10091000DEB728970FB6F894DEBF0FBECDBF98E0C4
:10092000E6E0F1E0DE01119601900D929A95E1F773
:100930009091BB03961708F46FEF262F30E0220F3B
:10094000331F41E050E04C0F5D1F240F351FF901AC
:100950006081680F606840E082EB93E028960FB6F4
:10096000F894DEBF0FBECDBFDF91CF910C9463042E
:1009700041E00E94630481E090E00895FB01019052
:100980000020E9F73197AF01461B570BDC01ED91D1
:10099000FC910280F381E02D099441E0682F82EB05
:1009A00093E00E94630460E571E082EB93E00E94B3
:1009B000BE04019608958F929F92AF92BF92EF92DC
:1009C000FF920F931F93CF93DF93CDB7DEB7A1971D
:1009D0000FB6F894DEBF0FBECDBF7C01FA01CB018C
:1009E00019A2223008F42AE08E010F5D1F4F822EDB
:1009F000912CB12CA12CBF01A50194010E943C11A6
:100A0000F901CA016A300CF5605DD8016E938D0161
:100A1000232B242B252B79F790E080E0109721F0F1
:100A2000BD01C7010E94BE04A1960FB6F894DEBFB7
:100A30000FBECDBFDF91CF911F910F91FF90EF902F
:100A4000BF90AF909F908F900895695CDECFCF925A
:100A5000DF92EF92FF920F931F93CF93DF93EC01FE
:100A60006B01770FEE08FF08F7FE25C0E881F981DA
:100A70000190F081E02D6DE209958C014427552706
:100A8000BA014C195D096E097F092AE0CE010E9466
:100A9000DB04080F191F60E571E0CE010E94BE045F
:100AA000800F911FDF91CF911F910F91FF90EF90D9
:100AB000DF90CF9008952AE0B701A6010E94DB04E1
:100AC0008C01E9CFCF93DF93AB01BC012AE085EE27
:100AD00092E00E94DB04EC0160E571E085EE92E0BB
:100AE0000E94BE048C0F9D1FDF91CF9108950F933C
:100AF0001F93CF93DF93EC010E94BE048C0160E54D
:100B000071E0CE010E94BE04800F911FDF91CF9152
:100B10001F910F9108950F931F93CF93DF93EC01D3
:100B20000E948F008C0160E571E0CE010E94BE043E
:100B3000800F911FDF91CF911F910F910895CF9357
:100B4000DF93EC0188819981009711F00E941412C3
:100B5000198218821D821C821B821A82DF91CF911A
:100B600008950F931F93CF93DF93EC0188819981B0
:100B7000009759F02A813B812617370730F081E032
:100B8000DF91CF911F910F9108958B016F5F7F4F80
:100B90000E949D12009759F0998388831B830A83D2
:100BA0002C813D81232B59F7FC011082E8CF80E096
:100BB000E7CFEF92FF920F931F93CF93DF936115CF
:100BC000710541F480E0DF91CF911F910F91FF906B
:100BD000EF90089541155105B1F07B01EC010C81B6
:100BE0001D81040F151FB8010E94B105882351F320
:100BF000288139818C819D81B701820F931F0E94CA
:100C000063131D830C8381E0DECFCF93DF93EC0170
:100C100041E050E063E571E00E94D905811103C015
:100C2000CE010E949F05CE01DF91CF910895EF92F2
:100C3000FF920F931F93CF93DF93CDB7DEB7289723
:100C40000FB6F894DEBF0FBECDBF7C014AE08E0127
:100C50000F5F1F4FB80190E080E00E94F20EF80194
:100C600001900020E9F73197AF01401B510BB8010B
:100C7000C7010E94D905811103C0C7010E949F05C9
:100C8000C70128960FB6F894DEBF0FBECDBFDF9127
:100C9000CF911F910F91FF90EF900895EF92FF92E7
:100CA0000F931F93CF93DF93EC017B018A01BA016D
:100CB0000E94B10581110BC0CE010E949F05CE019B
:100CC000DF91CF911F910F91FF90EF9008951D83B9
:100CD0000C83B701888199810E946313F0CFCF9371
:100CE000DF93EC01FB018617970749F06081718162
:100CF0006115710541F0448155810E944E06CE0177
:100D0000DF91CF9108950E949F05F9CF1F920F9216
:100D10000FB60F9211242F933F934F935F936F93CE
:100D20007F938F939F93AF93BF93EF93FF9385EE42
:100D300092E00E941B01FF91EF91BF91AF919F91B3
:100D40008F917F916F915F914F913F912F910F9074
:100D50000FBE0F901F9018951F920F920FB60F9213
:100D600011242F938F939F93EF93FF93E091F502BC
:100D7000F091F6028081E091FB02F091FC0282FD8D
:100D80001BC090818091FE028F5F8F732091FF02C4
:100D9000821741F0E091FE02F0E0EB51FD4F958F9C
:100DA0008093FE02FF91EF919F918F912F910F9071
:100DB0000FBE0F901F9018958081F4CF1F920F9255
:100DC0000FB60F9211242F933F938F939F93AF935E
:100DD000BF938091D7029091D802A091D902B0918F
:100DE000DA023091C30223E0230F2D3758F5019624
:100DF000A11DB11D2093C3028093D7029093D80206
:100E0000A093D902B093DA028091C4029091C502F6
:100E1000A091C602B091C7020196A11DB11D809399
:100E2000C4029093C502A093C602B093C702BF91BB
:100E3000AF919F918F913F912F910F900FBE0F9087
:100E40001F90189526E8230F0296A11DB11DD2CF41
:100E50001F920F920FB60F9211242F933F934F932F
:100E60005F936F937F938F939F93AF93BF93EF9312
:100E7000FF93E091CA02F091CB02309749F0A6852A
:100E8000B7858585968D91FF14C09C918923A1F427
:100E9000FF91EF91BF91AF919F918F917F916F9152
:100EA0005F914F913F912F910F900FBE0F901F9028
:100EB00018959C91892361F7A389B4899C918589B0
:100EC000809589238C93868997890197F1F7608DA6
:100ED000718DA685B785558538E020E0CB01019757
:100EE000F1F7822F90E095958795282F4C91452317
:100EF00009F02068315091F7868D81FD2095809111
:100F0000C90290E001968F7399273091C802381773
:100F100099F0A091C902B0E0AD57BD4F2C938093DA
:100F2000C902828D938D0197F1F7A389B4898C91C1
:100F30009589892B8C93ACCF868D8160868FF1CF7C
:100F40001F920F920FB60F9211242F933F934F933E
:100F50005F936F937F938F939F93AF93BF93EF9321
:100F6000FF938091B900887F803609F44AC0F0F57C
:100F7000883209F4A7C018F5803109F49BC0B8F491
:100F8000882309F4F9C0883009F494C0FF91EF91E7
:100F9000BF91AF919F918F917F916F915F914F9191
:100FA0003F912F910F900FBE0F901F901895883191
:100FB00009F488C0803251F780935F0214C08034F6
:100FC00009F49DC040F48033B9F38833F9F6809377
:100FD0005F0285ECB0C0803509F485C0883509F41E
:100FE00096C0883499F60E942C03D0CF883909F432
:100FF0008CC038F5883729F050F4883611F08037E6
:1010000029F683E08093D20210925E0257C088389E
:1010100009F47BC0803919F0803809F0B7CF80918E
:101020005E02803208F071C0E0915E0281E08E0FB6
:1010300080935E028091BB00F0E0E25CFD4F808314
:101040003DC0803B39F0E0F4803A09F479C0883A39
:1010500009F09CCF84E08093D20210923D0210925E
:101060003C02E091CE02F091CF02099580913C02C2
:1010700081110FC081E080933C0210921C0209C0D4
:10108000803C09F4A6CF883C09F4A3CF883B09F043
:101090007DCFE0913D0281E08E0F80933D02F0E034
:1010A000E45EFD4F80818093BB0090913D02809172
:1010B0003C0229C0809182028093BB0085EC809322
:1010C000BC0064CF9091810280918002981758F5FE
:1010D000E091810281E08E0F80938102F0E0E05A7E
:1010E000FD4F8081E9CFE091810281E08E0F8093F6
:1010F00081028091BB00F0E0E05AFD4F8083909127
:101100008102809180029817C8F285E8D8CFE091DB
:10111000810281E08E0F809381028091BB00F0E01C
:10112000E05AFD4F80838091D10281115CCF81E034
:101130008093D00284EA8093BC001092D20226CF22
:1011400085EC8093BC001092D20280915E028032C6
:1011500030F4E0915E02F0E0E25CFD4F10826091BD
:101160005E0270E0E091CC02F091CD028EE392E05D
:10117000099510925E020ACF10925F0234CFFC01F3
:10118000118210821382128215821482FB01019057
:101190000020E9F73197AF01461B570B0C944E0620
:1011A0001092E8021092E70288EE93E0A0E0B0E02F
:1011B0008093E9029093EA02A093EB02B093EC02D1
:1011C00022E131E03093E6022093E50225EC30E0A5
:1011D0003093F2022093F10224EC30E03093F402D9
:1011E0002093F30220EC30E03093F6022093F502D6
:1011F00021EC30E03093F8022093F70222EC30E04B
:101200003093FA022093F90226EC30E03093FC028E
:101210002093FB021092FE021092FF021092000334
:101220001092010310928503109284038093860329
:1012300090938703A0938803B093890324E231E05D
:1012400030938303209382031092C1031092C00352
:101250008093C2039093C303A093C403B093C503C8
:1012600082E491E09093BF038093BE031092D50374
:101270001092D4031092D7031092D6031092D90380
:101280001092D8031092DB031092DA036091DC0312
:101290006E7F6D7F6093DC036695617081E06827E7
:1012A00083E00E94AA0161E083E00E94F601E1EB85
:1012B000F0E0E491E093CE03EDE9F0E0E491F0E0BA
:1012C000EE0FFF1FE057FF4F859194919093D0034D
:1012D0008093CF0360E082E00E94F6018091DC03FE
:1012E00081FD04C061E082E00E94AA0182E0809357
:1012F000CA03E0EBF0E0E491E093CB03ECE9F0E02B
:10130000E491F0E0EE0FFF1FEA57FF4F2591349173
:101310003093CD032093CC031092B5031092B40305
:1013200026E331E03093B3032093B20397E2909326
:10133000B60390E19093BA038093BB031092BC0371
:1013400088E08093BD0365E571E08AE993E00E943F
:10135000BF086AE571E080EA93E00E94BF0860E69A
:1013600071E086EA93E00E94BF086DE671E08CEAC6
:1013700093E00E94BF0862E571E084E993E00E9477
:10138000BF0862E571E08EE893E00C94BF08CF934C
:10139000DF93CDB7DEB72A970FB6F894DEBF0FBE46
:1013A000CDBF789484B5826084BD84B5816084BDEE
:1013B00085B5826085BD85B5816085BD80916E00F3
:1013C000816080936E001092810080918100826024
:1013D0008093810080918100816080938100809161
:1013E00080008160809380008091B1008460809350
:1013F000B1008091B00081608093B00080917A004C
:10140000846080937A0080917A00826080937A0071
:1014100080917A00816080937A0080917A00806860
:1014200080937A001092C100E091F502F091F602EB
:1014300082E08083E091F102F091F2021082E0916B
:10144000F302F091F4028FEC80831092FD02E091A0
:10145000F902F091FA0286E08083E091F702F091C0
:10146000F802808180618083E091F702F091F802B8
:10147000808188608083E091F702F091F80280819A
:1014800080688083E091F702F091F80280818F7D7F
:1014900080831092D9031092D8031092D703109230
:1014A000D6031092D5031092D4038DE991E0909366
:1014B000DB038093DA039091CA03963108F047C0AA
:1014C0002DEB30E03093D5032093D4032BE931E0AA
:1014D0003093D7032093D6032CE231E03093D90325
:1014E0002093D8032091680084E0983048F031E0E0
:1014F0009E3008F430E081E001C0880F3A95EAF7A9
:10150000822B809368002DE630E0983050F02BE677
:1015100030E09E3030F02CE630E0963110F030E0D4
:1015200020E03093D2032093D103292F30E098306C
:1015300008F0D2C281E001C0880F9A95EAF7809343
:10154000D3038091DA039091DB030197F1F7809147
:10155000D8039091D903892B49F1E091CA02F09107
:10156000CB0223E0EE3BF20709F1309739F0A38973
:10157000B4899C918589809589238C938091DC0323
:101580008E7F8093DC031092C9021092C8028EEB0A
:1015900093E09093CB028093CA02E091D103F09143
:1015A000D20380819091D303892B80831092D6023D
:1015B0001092D5021092D4021092D3021092D2024D
:1015C00081E08093D1021092D00261E082E10E941A
:1015D000AA0161E083E10E94AA018091B9008E7F97
:1015E0008093B9008091B9008D7F8093B90088E421
:1015F0008093B80085E48093BC008DE890E09093E0
:10160000CF028093CE028EE890E09093CD0280933B
:10161000CC021092B7038091BB03823018F098E09F
:101620009093B7039091BC03992339F0813029F44A
:101630008091B70384608093B70362E370E080E039
:1016400090E00E944C026091BD0382EB93E00E9407
:10165000E20368EE73E080E090E00E944C0260E3F9
:1016600082EB93E00E944A040BE416E4C801019760
:10167000F1F760E382EB93E00E944A04C80101970E
:10168000F1F760E382EB93E00E944A0483E592E085
:101690000197F1F760E282EB93E00E944A046091C7
:1016A000B703606240E082EB93E00E94630484E051
:1016B0008093B80340E06CE082EB93E00E94630407
:1016C0000E947A0482E08093B90340E066E082EBF6
:1016D00093E00E94630440E062E082EB93E00E94AA
:1016E00063048BE39FE10197F1F788E08093BD03EA
:1016F00060E082EB93E00E94E20361E088E00E94F8
:10170000F60161E088E00E94AA0116E000E482E0B0
:10171000282E312C8FB7F8944090D7025090D802E1
:101720006090D9027090DA028FBF0E947A0460E064
:1017300080E00E9485046AE771E082EB93E00E94FA
:10174000770560E08CE00E94850470E060E082EB49
:1017500093E00E94270560E08EE00E9485048FEDF3
:101760000E94CD0460E08FE00E94850467E871E08C
:1017700082EB93E00E94770561E080E00E9485049F
:1017800069E871E082EB93E00E94770561E08CE00C
:101790000E94850470E060E082EB93E00E942705E0
:1017A00061E08EE00E94850464E971E082EB93E0E1
:1017B0000E94770561E08FE00E94850485E20E9427
:1017C000CD0466E971E085EE92E00E947705C301E1
:1017D000B2010E9462056091E1027091E202809183
:1017E000E3029091E4020E9462056091DF02709131
:1017F000E00285EE92E00E9427058091DD02909143
:10180000DE02189FB001199F700D112466567C4F9F
:1018100085EE92E00E948B058091DB029091DC02C4
:101820006091DF027091E0020E942811072E000CE7
:10183000880B990B0E942E0F6B017C014B015C0100
:10184000AC019B010E9423116EEA71E0811120C05E
:10185000D701C601BF778F839887A987BA872FEFF3
:101860003FEF4FE75FE7BC01CD010E9423118111DB
:1018700040C12FEF3FEF4FE75FE76F8178858985A4
:101880009A850E94270F18160CF033C162EB71E0A5
:1018900085EE92E00E94BE0460E571E085EE92E084
:1018A0000E94BE0460ED77E080E090E00E944C0270
:1018B0000E947A0460E080E00E9485046AEB71E097
:1018C00082EB93E00E94BE0461E081E00E94850407
:1018D0008091DD029091DE02189FB001199F700D7A
:1018E000112466567C4F82EB93E00E948F0080911A
:1018F000DD029091DE02189FB001199F700D112436
:1019000066567C4F8EE893E00E946F061A82198219
:101910001C821B821E821D8264E973E0CE01019647
:101920000E946F06CE0101960E9417060E940506CE
:101930000E9417060E9405067C0140919203509177
:10194000930360918E0370918F030E94D9058111DA
:1019500003C0C7010E949F05B70184E993E00E947C
:101960006F0689819A810E94141264E973E08EEBFC
:1019700093E00E948B0560ED77E080E090E00E94AC
:101980004C0250E040E062E571E084E993E00E949F
:101990004E068091E1029091E202A091E302B091A3
:1019A000E402A3019201281B390B4A0B5B0BDA01FD
:1019B000C90185369105A105B10508F470C14092B1
:1019C000E1025092E2026092E3027092E40280919E
:1019D000DF029091E00201969093E0028093DF0293
:1019E00000937C0080917A00806480937A008091DB
:1019F0007A0086FDFCCF909178008091790089274C
:101A0000982789272091DB023091DC02820F931FF7
:101A10009093DC028093DB026091DF027091E00220
:101A20006A3071050CF43BC10E9428117B010E94B1
:101A30007A04C301B2010E94620535E0E31631E089
:101A4000F3060CF47AC14AE5E41641E0F4060CF022
:101A5000D0C00E947A043092DE022092DD0266EA53
:101A600073E085EE92E00E948B05B70185EE92E06F
:101A70000E94270560E080E00E9485046AEB71E027
:101A800082EB93E00E94BE0461E081E00E94850445
:101A90008091DD029091DE02189FB001199F700DB8
:101AA000112466567C4F82EB93E00E948F0061E028
:101AB00088E00E94AA0168EE73E080E090E00E9456
:101AC0004C0261E08AE00E94850468E873E180E0EE
:101AD00090E00E944C02D7C09E3040F4285031095B
:101AE00081E001C0880F2A95EAF729CD2E503109EF
:101AF000F7CF2FEF3FEF4FE75FE4C701B6010E943A
:101B00001E1118161CF466EB71E0C2CE2FEF3FEFEA
:101B10004FE75FECC701B6010E94270F87FDF3CFA7
:101B200020E030E0A901C701B6010E94270F87FF1E
:101B30000BC06DE285EE92E00E943D014601570127
:101B4000B7FAB094B7F8B0942AE037ED43EA5BE314
:101B5000C501B4010E9483104B015C010E94EF108B
:101B60006B017C010E942C0F9B01AC01C501B401EB
:101B70000E9482104B015C012AE0B701A60185EEAC
:101B800092E00E94DB046EE285EE92E00E943D014D
:101B900020E030E040E251E4C501B4010E948D0F25
:101BA0004B015C010E94EF106B01F12CE12C2AE04B
:101BB000B701A60185EE92E00E94DB04C701B601E1
:101BC0000E942C0F9B01AC01C501B4010E94821040
:101BD00020E030E040E251E40E948D0F0E94EF10BF
:101BE000AB0170E060E02AE085EE92E00E94DB0449
:101BF00053CE5AE5E51651E0F50609F462C082EBD2
:101C0000E81681E0F8060CF057C00E947A04A1E0C3
:101C1000B0E0B093DE02A093DD0260EA73E085EEEF
:101C200092E00E948B05B70185EE92E00E942705A5
:101C300060E080E00E9485046AEB71E082EB93E053
:101C40000E94BE0461E081E00E9485048091DD0273
:101C50009091DE02189FB001199F700D11246656F5
:101C60007C4F82EB93E00E948F0060E088E00E944E
:101C7000AA0160E177E280E090E00E944C0261E01E
:101C80008AE00E94850461E088E00E94AA01109227
:101C9000DC021092DB021092E0021092DF0280E080
:101CA00090E0892B09F436CD0E940701882309F4BE
:101CB00031CD0E9400002ECDB8E0EB16B2E0FB065D
:101CC000E4F523EBE21621E0F206BCF10E947A046F
:101CD0001092DE021092DD026AE973E085EE92E076
:101CE0000E948B05B70185EE92E00E94270560E017
:101CF00080E00E9485046AEB71E082EB93E00E9431
:101D0000BE0461E081E00E9485048091DD02909133
:101D1000DE02189FB001199F700D112466567C4F8A
:101D200082EB93E00E948F0060E088E00E94AA01AD
:101D300060E27EE480E090E0A0CF44E050E0509389
:101D4000DE024093DD020E947A046BEC71E085EEC6
:101D500092E00E9477058091DD029091DE02189F4B
:101D6000B001199F700D112466567C4F82EB93E0F1
:101D70000E948B05AACECF93DF9380918E03909122
:101D80008F030E94141280919403909195030E94F6
:101D90001412C2EBD3E02697888199810E94141215
:101DA00023E0CA39D207B9F782E491E09093BF03E8
:101DB0008093BE038091CA029091CB028E5B9340C8
:101DC00071F4E091D103F091D20390818091D3031B
:101DD0008095892380831092CB021092CA02DF91F2
:101DE000CF910895BB274A3031F4992322F4BDE204
:101DF000909581959F4F0C94FE0EBB27FB015527B4
:101E0000AA27880F991FAA1FA41710F0A41B839557
:101E10005051B9F7A05DAA3308F0A95DA1930097CE
:101E200079F7B111B1931192CB010C94170FDC012A
:101E3000FC01672F71917723E1F7329704C07C9101
:101E40006D9370836291AE17BF07C8F308950E9427
:101E5000690F08F481E00895E89409C097FB3EF407
:101E600090958095709561957F4F8F4F9F4F9923E7
:101E7000A9F0F92F96E9BB279395F6958795779565
:101E80006795B795F111F8CFFAF4BB0F11F460FF25
:101E90001BC06F5F7F4F8F4F9F4F16C0882311F07D
:101EA00096E911C0772321F09EE8872F762F05C091
:101EB000662371F096E8862F70E060E02AF09A952C
:101EC000660F771F881FDAF7880F9695879597F921
:101ED0000895990F0008550FAA0BE0E8FEEF1616BB
:101EE0001706E807F907C0F012161306E407F5070E
:101EF00098F0621B730B840B950B39F40A2661F082
:101F0000232B242B252B21F408950A2609F4A14024
:101F1000A6958FEF811D811D08950E94A00F0C943E
:101F200011100E94031038F00E940A1020F095232F
:101F300011F00C94FA0F0C94001011240C9445101D
:101F40000E94221070F3959FC1F3950F50E0551F2A
:101F5000629FF001729FBB27F00DB11D639FAA27FE
:101F6000F00DB11DAA1F649F6627B00DA11D661F4D
:101F7000829F2227B00DA11D621F739FB00DA11D6E
:101F8000621F839FA00D611D221F749F3327A00D28
:101F9000611D231F849F600D211D822F762F6A2FC4
:101FA00011249F5750409AF0F1F088234AF0EE0F29
:101FB000FF1FBB1F661F771F881F91505040A9F756
:101FC0009E3F510580F00C94FA0F0C9445105F3F32
:101FD000E4F3983ED4F3869577956795B795F79592
:101FE000E7959F5FC1F7FE2B880F911D969587950A
:101FF00097F9089597F99F6780E870E060E0089589
:102000009FEF80EC089500240A9416161706180610
:102010000906089500240A941216130614060506EC
:102020000895092E0394000C11F4882352F0BB0F7D
:1020300040F4BF2B11F460FF04C06F5F7F4F8F4FE0
:102040009F4F089557FD9058440F551F59F05F3F1B
:1020500071F04795880F97FB991F61F09F3F79F0CA
:1020600087950895121613061406551FF2CF46954C
:10207000F1DF08C0161617061806991FF1CF8695CE
:102080007105610508940895E894BB2766277727B2
:10209000CB0197F908952F923F924F925F926F92E2
:1020A0007F928F929F92AF92BF92CF92DF92EF92E8
:1020B000FF920F931F93CF93DF93CDB7DEB7CA1B69
:1020C000DB0B0FB6F894DEBF0FBECDBF09942A8894
:1020D000398848885F846E847D848C849B84AA843C
:1020E000B984C884DF80EE80FD800C811B81AA81C9
:1020F000B981CE0FD11D0FB6F894DEBF0FBECDBF94
:10210000ED0108955058BB27AA270E949A100C94FD
:1021100011100E94031038F00E940A1020F039F4C8
:102120009F3F19F426F40C9400100EF4E095E7FBA1
:102130000C94FA0FE92F0E94221058F3BA17620785
:1021400073078407950720F079F4A6F50C944410E2
:102150000EF4E0950B2EBA2FA02D0B01B9019001C2
:102160000C01CA01A0011124FF27591B99F0593F06
:1021700050F4503E68F11A16F040A22F232F342F4E
:102180004427585FF3CF469537952795A795F0409C
:102190005395C9F77EF41F16BA0B620B730B840BB1
:1021A000BAF09150A1F0FF0FBB1F661F771F881F69
:1021B000C2F70EC0BA0F621F731F841F48F48795C1
:1021C00077956795B795F7959E3F08F0B0CF9395B3
:1021D000880F08F09927EE0F9795879508950E942C
:1021E0002A1088F09F5798F0B92F9927B751B0F06F
:1021F000E1F0660F771F881F991F1AF0BA95C9F78B
:1022000014C0B13091F00E944410B1E008950C94D4
:102210004410672F782F8827B85F39F0B93FCCF387
:10222000869577956795B395D9F73EF49095809507
:10223000709561957F4F8F4F9F4F08950E94690F52
:1022400008F48FEF08950E94690F880B990B089589
:1022500097FB072E16F4009407D077FD09D00E9453
:102260005E1107FC05D03EF4909581959F4F08952F
:10227000709561957F4F0895A1E21A2EAA1BBB1B92
:10228000FD010DC0AA1FBB1FEE1FFF1FA217B30742
:10229000E407F50720F0A21BB30BE40BF50B661F58
:1022A000771F881F991F1A9469F76095709580951C
:1022B00090959B01AC01BD01CF010895AA1BBB1BEA
:1022C00051E107C0AA1FBB1FA617B70710F0A61B36
:1022D000B70B881F991F5A95A9F780959095BC0157
:1022E000CD010895EE0FFF1F0590F491E02D0994A4
:1022F0000F931F93CF93DF938230910510F482E008
:1023000090E0E091DF03F091E00330E020E0B0E006
:10231000A0E0309799F42115310509F44AC0281B33
:10232000390B24303105D8F58A819B8161157105FF
:1023300089F1FB0193838283FE0111C040815181A9
:102340000281138148175907E0F04817590799F49B
:10235000109761F012960C93129713961C93329675
:10236000CF01DF91CF911F910F9108950093DF036B
:102370001093E003F4CF2115310551F042175307B4
:1023800038F0A901DB019A01BD01DF01F801C1CFDD
:10239000EF01F9CF9093E0038093DF03CDCFFE01EF
:1023A000E20FF31F819391932250310939832883DF
:1023B000D7CF2091DD033091DE03232B41F4209110
:1023C0000201309103013093DE032093DD0320915D
:1023D0000001309101012115310541F42DB73EB7BF
:1023E0004091040150910501241B350BE091DD0360
:1023F000F091DE03E217F307A0F42E1B3F0B281722
:10240000390778F0AC014E5F5F4F2417350748F06D
:102410004E0F5F1F5093DE034093DD038193919332
:102420009FCFF0E0E0E09CCFCF93DF930097E9F0FF
:10243000FC01329713821282A091DF03B091E00376
:10244000ED0130E020E01097A1F420813181820F6E
:10245000931F2091DD033091DE032817390709F01F
:1024600061C0F093DE03E093DD03DF91CF91089527
:10247000EA01CE17DF07E8F54A815B819E0141152D
:102480005105B1F7E901FB83EA8349915991C40FE2
:10249000D51FEC17FD0761F4808191810296840FAE
:1024A000951FE90199838883828193819B838A8325
:1024B000F0E0E0E012968D919C9113970097B9F5AA
:1024C0002D913C911197CD010296820F931F20917F
:1024D000DD033091DE032817390739F6309751F5BF
:1024E0001092E0031092DF03B093DE03A093DD03AC
:1024F000BCCFD383C28340815181840F951FC817FD
:10250000D90761F44E5F5F4F88819981480F591F49
:10251000518340838A819B81938382832115310576
:1025200009F0B0CFF093E003E093DF039ECFFD010D
:10253000DC01C0CF13821282D7CFB0E0A0E0E3EA83
:10254000F2E10C944D108C01009751F4CB010E94E4
:1025500078118C01C801CDB7DEB7E0E10C946910A9
:10256000FC01E60FF71F9C0122503109E217F30727
:1025700008F49DC0D901CD91DC911197C617D707FA
:1025800098F0C530D10530F3CE0104978617970730
:1025900008F3C61BD70B2297C193D1936D937C93FD
:1025A000CF010E941412D6CF5B01AC1ABD0A4C01B8
:1025B0008C0E9D1EA091DF03B091E003512C412CA5
:1025C000F12CE12C109731F58091DD039091DE0321
:1025D0008815990509F05CC04616570608F058C0E2
:1025E0008091000190910101009741F48DB79EB751
:1025F0004091040150910501841B950BE817F907E0
:1026000008F055C0F093DE03E093DD03F901718318
:102610006083A0CF8D919C91119712966C90129728
:1026200013967C901397A815B90559F56C0142E0F3
:10263000C40ED11CCA14DB0420F1AC014A195B0999
:10264000DA011296159780F062827382518340837B
:10265000D9016D937C93E114F10471F0D7011396C5
:10266000FC93EE93129776CF22968C0F9D1FF90163
:1026700091838083F301EFCFF093E003E093DF03D6
:1026800069CF4816590608F42C017D01D3019ACF71
:10269000CB010E9478117C01009749F0AE01B8018E
:1026A0000E945A13C8010E941412870153CF10E0F0
:1026B00000E050CFFB01DC0102C001900D924150BF
:1026C0005040D8F70895FB01DC0101900D920020E5
:1026D000E1F7089510E0C2E6D0E004C0FE010E94D8
:0E26E00072112196C336D107C9F7F894FFCFC7
:1026EE000000E103800000004000140054000000D0
:1026FE0000003D019D00CA008A01FB00D900ED00DB
:10270E0000000000B3038603470496027F036C03A8
:10271E005D0300000000B8049D004704460400005D
:10272E00000097029D0047049602F3020B037E02FF
:10273E000D0A002C0044555041004D6F6B72610024
:10274E00426172647A6F206D6F6B726100626C61B0
:10275E006420706F6D696172750054656D7065727D
:10276E0061747572613A00430057696C676F746EDD
:10277E006F73633A20002D2D2D2D2D2D2D2D2D2DEA
:10278E002D2D2D2D2D2D2D2D2D2D2D2D2D006E6123
:10279E006E00696E66006F76660057696C676F74BF
:1027AE006E6F736320676C6562790077696C676F13
:0A27BE00746E6F73635B775D0000BB
:00000001FF
